
sixtemesseven_si4463Rx.elf:     file format elf32-littlearm

Sections:
Idx Name          Size      VMA       LMA       File off  Algn
  0 .isr_vector   0000010c  08000000  08000000  00010000  2**0
                  CONTENTS, ALLOC, LOAD, READONLY, DATA
  1 .text         00002724  0800010c  0800010c  0001010c  2**2
                  CONTENTS, ALLOC, LOAD, READONLY, CODE
  2 .rodata       000001c0  08002830  08002830  00012830  2**2
                  CONTENTS, ALLOC, LOAD, READONLY, DATA
  3 .ARM.extab    00000000  080029f0  080029f0  0002000c  2**0
                  CONTENTS
  4 .ARM          00000000  080029f0  080029f0  0002000c  2**0
                  CONTENTS
  5 .preinit_array 00000000  080029f0  080029f0  0002000c  2**0
                  CONTENTS, ALLOC, LOAD, DATA
  6 .init_array   00000004  080029f0  080029f0  000129f0  2**2
                  CONTENTS, ALLOC, LOAD, DATA
  7 .fini_array   00000004  080029f4  080029f4  000129f4  2**2
                  CONTENTS, ALLOC, LOAD, DATA
  8 .data         0000000c  20000000  080029f8  00020000  2**2
                  CONTENTS, ALLOC, LOAD, DATA
  9 .bss          00000100  2000000c  08002a04  0002000c  2**2
                  ALLOC
 10 ._user_heap_stack 00000604  2000010c  08002a04  0002010c  2**0
                  ALLOC
 11 .ARM.attributes 00000029  00000000  00000000  0002000c  2**0
                  CONTENTS, READONLY
 12 .debug_info   00007e40  00000000  00000000  00020035  2**0
                  CONTENTS, READONLY, DEBUGGING
 13 .debug_abbrev 000015f0  00000000  00000000  00027e75  2**0
                  CONTENTS, READONLY, DEBUGGING
 14 .debug_aranges 00000878  00000000  00000000  00029468  2**3
                  CONTENTS, READONLY, DEBUGGING
 15 .debug_ranges 000007f0  00000000  00000000  00029ce0  2**3
                  CONTENTS, READONLY, DEBUGGING
 16 .debug_macro  00017f17  00000000  00000000  0002a4d0  2**0
                  CONTENTS, READONLY, DEBUGGING
 17 .debug_line   00006823  00000000  00000000  000423e7  2**0
                  CONTENTS, READONLY, DEBUGGING
 18 .debug_str    00081cba  00000000  00000000  00048c0a  2**0
                  CONTENTS, READONLY, DEBUGGING
 19 .comment      0000007b  00000000  00000000  000ca8c4  2**0
                  CONTENTS, READONLY
 20 .debug_frame  0000221c  00000000  00000000  000ca940  2**2
                  CONTENTS, READONLY, DEBUGGING

Disassembly of section .text:

0800010c <__do_global_dtors_aux>:
 800010c:	b510      	push	{r4, lr}
 800010e:	4c05      	ldr	r4, [pc, #20]	; (8000124 <__do_global_dtors_aux+0x18>)
 8000110:	7823      	ldrb	r3, [r4, #0]
 8000112:	b933      	cbnz	r3, 8000122 <__do_global_dtors_aux+0x16>
 8000114:	4b04      	ldr	r3, [pc, #16]	; (8000128 <__do_global_dtors_aux+0x1c>)
 8000116:	b113      	cbz	r3, 800011e <__do_global_dtors_aux+0x12>
 8000118:	4804      	ldr	r0, [pc, #16]	; (800012c <__do_global_dtors_aux+0x20>)
 800011a:	f3af 8000 	nop.w
 800011e:	2301      	movs	r3, #1
 8000120:	7023      	strb	r3, [r4, #0]
 8000122:	bd10      	pop	{r4, pc}
 8000124:	2000000c 	.word	0x2000000c
 8000128:	00000000 	.word	0x00000000
 800012c:	08002818 	.word	0x08002818

08000130 <frame_dummy>:
 8000130:	b508      	push	{r3, lr}
 8000132:	4b03      	ldr	r3, [pc, #12]	; (8000140 <frame_dummy+0x10>)
 8000134:	b11b      	cbz	r3, 800013e <frame_dummy+0xe>
 8000136:	4903      	ldr	r1, [pc, #12]	; (8000144 <frame_dummy+0x14>)
 8000138:	4803      	ldr	r0, [pc, #12]	; (8000148 <frame_dummy+0x18>)
 800013a:	f3af 8000 	nop.w
 800013e:	bd08      	pop	{r3, pc}
 8000140:	00000000 	.word	0x00000000
 8000144:	20000010 	.word	0x20000010
 8000148:	08002818 	.word	0x08002818

0800014c <main>:
/**
  * @brief  The application entry point.
  * @retval int
  */
int main(void)
{
 800014c:	b580      	push	{r7, lr}
 800014e:	b08c      	sub	sp, #48	; 0x30
 8000150:	af02      	add	r7, sp, #8
  /* USER CODE END 1 */

  /* MCU Configuration--------------------------------------------------------*/

  /* Reset of all peripherals, Initializes the Flash interface and the Systick. */
  HAL_Init();
 8000152:	f000 fcc3 	bl	8000adc <HAL_Init>
  /* USER CODE BEGIN Init */

  /* USER CODE END Init */

  /* Configure the system clock */
  SystemClock_Config();
 8000156:	f000 f849 	bl	80001ec <_Z18SystemClock_Configv>
  /* USER CODE BEGIN SysInit */

  /* USER CODE END SysInit */

  /* Initialize all configured peripherals */
  MX_GPIO_Init();
 800015a:	f000 f8f7 	bl	800034c <_ZL12MX_GPIO_Initv>
  MX_SPI1_Init();
 800015e:	f000 f88b 	bl	8000278 <_ZL12MX_SPI1_Initv>
  MX_USART1_UART_Init();
 8000162:	f000 f8c5 	bl	80002f0 <_ZL19MX_USART1_UART_Initv>
  /* USER CODE BEGIN 2 */
  si446x rf(GPIOA, &hspi1, nSEL_Pin, SDN_Pin, nIRQ_Pin); //446x object
 8000166:	1d38      	adds	r0, r7, #4
 8000168:	2310      	movs	r3, #16
 800016a:	9301      	str	r3, [sp, #4]
 800016c:	2308      	movs	r3, #8
 800016e:	9300      	str	r3, [sp, #0]
 8000170:	2302      	movs	r3, #2
 8000172:	4a19      	ldr	r2, [pc, #100]	; (80001d8 <main+0x8c>)
 8000174:	4919      	ldr	r1, [pc, #100]	; (80001dc <main+0x90>)
 8000176:	f000 fa96 	bl	80006a6 <_ZN6si446xC1EP12GPIO_TypeDefP19__SPI_HandleTypeDefttt>
  rf.powerUp(); //Power up
 800017a:	1d3b      	adds	r3, r7, #4
 800017c:	4618      	mov	r0, r3
 800017e:	f000 fab8 	bl	80006f2 <_ZN6si446x7powerUpEv>
  while (1)
  {
    /* USER CODE END WHILE */

    /* USER CODE BEGIN 3 */
	  bool isReceiver = true;
 8000182:	2301      	movs	r3, #1
 8000184:	f887 3027 	strb.w	r3, [r7, #39]	; 0x27

	//MODEM 2 - RECEIVER

	    rf.startRX(1);
 8000188:	1d3b      	adds	r3, r7, #4
 800018a:	2101      	movs	r1, #1
 800018c:	4618      	mov	r0, r3
 800018e:	f000 fbb7 	bl	8000900 <_ZN6si446x7startRXEh>
	  	HAL_Delay(200);
 8000192:	20c8      	movs	r0, #200	; 0xc8
 8000194:	f000 fd04 	bl	8000ba0 <HAL_Delay>
	  	fifoBytes = rf.getRxFifoInfo();
 8000198:	1d3b      	adds	r3, r7, #4
 800019a:	4618      	mov	r0, r3
 800019c:	f000 fbd5 	bl	800094a <_ZN6si446x13getRxFifoInfoEv>
 80001a0:	4603      	mov	r3, r0
 80001a2:	461a      	mov	r2, r3
 80001a4:	4b0e      	ldr	r3, [pc, #56]	; (80001e0 <main+0x94>)
 80001a6:	701a      	strb	r2, [r3, #0]
	  	//uint8_t message[64] = {"Package Received"};
	  	if(fifoBytes > 0)
 80001a8:	4b0d      	ldr	r3, [pc, #52]	; (80001e0 <main+0x94>)
 80001aa:	781b      	ldrb	r3, [r3, #0]
 80001ac:	2b00      	cmp	r3, #0
 80001ae:	d0e8      	beq.n	8000182 <main+0x36>
	  	{

	  	   rf.getPacket(buf, fifoBytes);
 80001b0:	4b0b      	ldr	r3, [pc, #44]	; (80001e0 <main+0x94>)
 80001b2:	781a      	ldrb	r2, [r3, #0]
 80001b4:	1d3b      	adds	r3, r7, #4
 80001b6:	490b      	ldr	r1, [pc, #44]	; (80001e4 <main+0x98>)
 80001b8:	4618      	mov	r0, r3
 80001ba:	f000 fbf5 	bl	80009a8 <_ZN6si446x9getPacketEPhh>
	  	   HAL_UART_Transmit(&huart1,  buf, sizeof(buf), 10);
 80001be:	230a      	movs	r3, #10
 80001c0:	2240      	movs	r2, #64	; 0x40
 80001c2:	4908      	ldr	r1, [pc, #32]	; (80001e4 <main+0x98>)
 80001c4:	4808      	ldr	r0, [pc, #32]	; (80001e8 <main+0x9c>)
 80001c6:	f002 f984 	bl	80024d2 <HAL_UART_Transmit>
	  	   break;
 80001ca:	bf00      	nop



  }
  /* USER CODE END 3 */
}
 80001cc:	2300      	movs	r3, #0
 80001ce:	4618      	mov	r0, r3
 80001d0:	3728      	adds	r7, #40	; 0x28
 80001d2:	46bd      	mov	sp, r7
 80001d4:	bd80      	pop	{r7, pc}
 80001d6:	bf00      	nop
 80001d8:	2000002c 	.word	0x2000002c
 80001dc:	40010800 	.word	0x40010800
 80001e0:	20000028 	.word	0x20000028
 80001e4:	200000c8 	.word	0x200000c8
 80001e8:	20000084 	.word	0x20000084

080001ec <_Z18SystemClock_Configv>:
/**
  * @brief System Clock Configuration
  * @retval None
  */
void SystemClock_Config(void)
{
 80001ec:	b580      	push	{r7, lr}
 80001ee:	b090      	sub	sp, #64	; 0x40
 80001f0:	af00      	add	r7, sp, #0
  RCC_OscInitTypeDef RCC_OscInitStruct = {0};
 80001f2:	f107 0318 	add.w	r3, r7, #24
 80001f6:	2228      	movs	r2, #40	; 0x28
 80001f8:	2100      	movs	r1, #0
 80001fa:	4618      	mov	r0, r3
 80001fc:	f002 fb03 	bl	8002806 <memset>
  RCC_ClkInitTypeDef RCC_ClkInitStruct = {0};
 8000200:	1d3b      	adds	r3, r7, #4
 8000202:	2200      	movs	r2, #0
 8000204:	601a      	str	r2, [r3, #0]
 8000206:	605a      	str	r2, [r3, #4]
 8000208:	609a      	str	r2, [r3, #8]
 800020a:	60da      	str	r2, [r3, #12]
 800020c:	611a      	str	r2, [r3, #16]

  /** Initializes the CPU, AHB and APB busses clocks
  */
  RCC_OscInitStruct.OscillatorType = RCC_OSCILLATORTYPE_HSI;
 800020e:	2302      	movs	r3, #2
 8000210:	61bb      	str	r3, [r7, #24]
  RCC_OscInitStruct.HSIState = RCC_HSI_ON;
 8000212:	2301      	movs	r3, #1
 8000214:	62bb      	str	r3, [r7, #40]	; 0x28
  RCC_OscInitStruct.HSICalibrationValue = RCC_HSICALIBRATION_DEFAULT;
 8000216:	2310      	movs	r3, #16
 8000218:	62fb      	str	r3, [r7, #44]	; 0x2c
  RCC_OscInitStruct.PLL.PLLState = RCC_PLL_NONE;
 800021a:	2300      	movs	r3, #0
 800021c:	637b      	str	r3, [r7, #52]	; 0x34
  if (HAL_RCC_OscConfig(&RCC_OscInitStruct) != HAL_OK)
 800021e:	f107 0318 	add.w	r3, r7, #24
 8000222:	4618      	mov	r0, r3
 8000224:	f000 ff80 	bl	8001128 <HAL_RCC_OscConfig>
 8000228:	4603      	mov	r3, r0
 800022a:	2b00      	cmp	r3, #0
 800022c:	bf14      	ite	ne
 800022e:	2301      	movne	r3, #1
 8000230:	2300      	moveq	r3, #0
 8000232:	b2db      	uxtb	r3, r3
 8000234:	2b00      	cmp	r3, #0
 8000236:	d001      	beq.n	800023c <_Z18SystemClock_Configv+0x50>
  {
    Error_Handler();
 8000238:	f000 f90a 	bl	8000450 <Error_Handler>
  }
  /** Initializes the CPU, AHB and APB busses clocks
  */
  RCC_ClkInitStruct.ClockType = RCC_CLOCKTYPE_HCLK|RCC_CLOCKTYPE_SYSCLK
 800023c:	230f      	movs	r3, #15
 800023e:	607b      	str	r3, [r7, #4]
                              |RCC_CLOCKTYPE_PCLK1|RCC_CLOCKTYPE_PCLK2;
  RCC_ClkInitStruct.SYSCLKSource = RCC_SYSCLKSOURCE_HSI;
 8000240:	2300      	movs	r3, #0
 8000242:	60bb      	str	r3, [r7, #8]
  RCC_ClkInitStruct.AHBCLKDivider = RCC_SYSCLK_DIV1;
 8000244:	2300      	movs	r3, #0
 8000246:	60fb      	str	r3, [r7, #12]
  RCC_ClkInitStruct.APB1CLKDivider = RCC_HCLK_DIV1;
 8000248:	2300      	movs	r3, #0
 800024a:	613b      	str	r3, [r7, #16]
  RCC_ClkInitStruct.APB2CLKDivider = RCC_HCLK_DIV1;
 800024c:	2300      	movs	r3, #0
 800024e:	617b      	str	r3, [r7, #20]

  if (HAL_RCC_ClockConfig(&RCC_ClkInitStruct, FLASH_LATENCY_0) != HAL_OK)
 8000250:	1d3b      	adds	r3, r7, #4
 8000252:	2100      	movs	r1, #0
 8000254:	4618      	mov	r0, r3
 8000256:	f001 f9e7 	bl	8001628 <HAL_RCC_ClockConfig>
 800025a:	4603      	mov	r3, r0
 800025c:	2b00      	cmp	r3, #0
 800025e:	bf14      	ite	ne
 8000260:	2301      	movne	r3, #1
 8000262:	2300      	moveq	r3, #0
 8000264:	b2db      	uxtb	r3, r3
 8000266:	2b00      	cmp	r3, #0
 8000268:	d001      	beq.n	800026e <_Z18SystemClock_Configv+0x82>
  {
    Error_Handler();
 800026a:	f000 f8f1 	bl	8000450 <Error_Handler>
  }
}
 800026e:	bf00      	nop
 8000270:	3740      	adds	r7, #64	; 0x40
 8000272:	46bd      	mov	sp, r7
 8000274:	bd80      	pop	{r7, pc}
	...

08000278 <_ZL12MX_SPI1_Initv>:
  * @brief SPI1 Initialization Function
  * @param None
  * @retval None
  */
static void MX_SPI1_Init(void)
{
 8000278:	b580      	push	{r7, lr}
 800027a:	af00      	add	r7, sp, #0

  /* USER CODE BEGIN SPI1_Init 1 */

  /* USER CODE END SPI1_Init 1 */
  /* SPI1 parameter configuration*/
  hspi1.Instance = SPI1;
 800027c:	4b1a      	ldr	r3, [pc, #104]	; (80002e8 <_ZL12MX_SPI1_Initv+0x70>)
 800027e:	4a1b      	ldr	r2, [pc, #108]	; (80002ec <_ZL12MX_SPI1_Initv+0x74>)
 8000280:	601a      	str	r2, [r3, #0]
  hspi1.Init.Mode = SPI_MODE_MASTER;
 8000282:	4b19      	ldr	r3, [pc, #100]	; (80002e8 <_ZL12MX_SPI1_Initv+0x70>)
 8000284:	f44f 7282 	mov.w	r2, #260	; 0x104
 8000288:	605a      	str	r2, [r3, #4]
  hspi1.Init.Direction = SPI_DIRECTION_2LINES;
 800028a:	4b17      	ldr	r3, [pc, #92]	; (80002e8 <_ZL12MX_SPI1_Initv+0x70>)
 800028c:	2200      	movs	r2, #0
 800028e:	609a      	str	r2, [r3, #8]
  hspi1.Init.DataSize = SPI_DATASIZE_8BIT;
 8000290:	4b15      	ldr	r3, [pc, #84]	; (80002e8 <_ZL12MX_SPI1_Initv+0x70>)
 8000292:	2200      	movs	r2, #0
 8000294:	60da      	str	r2, [r3, #12]
  hspi1.Init.CLKPolarity = SPI_POLARITY_LOW;
 8000296:	4b14      	ldr	r3, [pc, #80]	; (80002e8 <_ZL12MX_SPI1_Initv+0x70>)
 8000298:	2200      	movs	r2, #0
 800029a:	611a      	str	r2, [r3, #16]
  hspi1.Init.CLKPhase = SPI_PHASE_1EDGE;
 800029c:	4b12      	ldr	r3, [pc, #72]	; (80002e8 <_ZL12MX_SPI1_Initv+0x70>)
 800029e:	2200      	movs	r2, #0
 80002a0:	615a      	str	r2, [r3, #20]
  hspi1.Init.NSS = SPI_NSS_SOFT;
 80002a2:	4b11      	ldr	r3, [pc, #68]	; (80002e8 <_ZL12MX_SPI1_Initv+0x70>)
 80002a4:	f44f 7200 	mov.w	r2, #512	; 0x200
 80002a8:	619a      	str	r2, [r3, #24]
  hspi1.Init.BaudRatePrescaler = SPI_BAUDRATEPRESCALER_2;
 80002aa:	4b0f      	ldr	r3, [pc, #60]	; (80002e8 <_ZL12MX_SPI1_Initv+0x70>)
 80002ac:	2200      	movs	r2, #0
 80002ae:	61da      	str	r2, [r3, #28]
  hspi1.Init.FirstBit = SPI_FIRSTBIT_MSB;
 80002b0:	4b0d      	ldr	r3, [pc, #52]	; (80002e8 <_ZL12MX_SPI1_Initv+0x70>)
 80002b2:	2200      	movs	r2, #0
 80002b4:	621a      	str	r2, [r3, #32]
  hspi1.Init.TIMode = SPI_TIMODE_DISABLE;
 80002b6:	4b0c      	ldr	r3, [pc, #48]	; (80002e8 <_ZL12MX_SPI1_Initv+0x70>)
 80002b8:	2200      	movs	r2, #0
 80002ba:	625a      	str	r2, [r3, #36]	; 0x24
  hspi1.Init.CRCCalculation = SPI_CRCCALCULATION_DISABLE;
 80002bc:	4b0a      	ldr	r3, [pc, #40]	; (80002e8 <_ZL12MX_SPI1_Initv+0x70>)
 80002be:	2200      	movs	r2, #0
 80002c0:	629a      	str	r2, [r3, #40]	; 0x28
  hspi1.Init.CRCPolynomial = 10;
 80002c2:	4b09      	ldr	r3, [pc, #36]	; (80002e8 <_ZL12MX_SPI1_Initv+0x70>)
 80002c4:	220a      	movs	r2, #10
 80002c6:	62da      	str	r2, [r3, #44]	; 0x2c
  if (HAL_SPI_Init(&hspi1) != HAL_OK)
 80002c8:	4807      	ldr	r0, [pc, #28]	; (80002e8 <_ZL12MX_SPI1_Initv+0x70>)
 80002ca:	f001 fb49 	bl	8001960 <HAL_SPI_Init>
 80002ce:	4603      	mov	r3, r0
 80002d0:	2b00      	cmp	r3, #0
 80002d2:	bf14      	ite	ne
 80002d4:	2301      	movne	r3, #1
 80002d6:	2300      	moveq	r3, #0
 80002d8:	b2db      	uxtb	r3, r3
 80002da:	2b00      	cmp	r3, #0
 80002dc:	d001      	beq.n	80002e2 <_ZL12MX_SPI1_Initv+0x6a>
  {
    Error_Handler();
 80002de:	f000 f8b7 	bl	8000450 <Error_Handler>
  }
  /* USER CODE BEGIN SPI1_Init 2 */

  /* USER CODE END SPI1_Init 2 */

}
 80002e2:	bf00      	nop
 80002e4:	bd80      	pop	{r7, pc}
 80002e6:	bf00      	nop
 80002e8:	2000002c 	.word	0x2000002c
 80002ec:	40013000 	.word	0x40013000

080002f0 <_ZL19MX_USART1_UART_Initv>:
  * @brief USART1 Initialization Function
  * @param None
  * @retval None
  */
static void MX_USART1_UART_Init(void)
{
 80002f0:	b580      	push	{r7, lr}
 80002f2:	af00      	add	r7, sp, #0
  /* USER CODE END USART1_Init 0 */

  /* USER CODE BEGIN USART1_Init 1 */

  /* USER CODE END USART1_Init 1 */
  huart1.Instance = USART1;
 80002f4:	4b13      	ldr	r3, [pc, #76]	; (8000344 <_ZL19MX_USART1_UART_Initv+0x54>)
 80002f6:	4a14      	ldr	r2, [pc, #80]	; (8000348 <_ZL19MX_USART1_UART_Initv+0x58>)
 80002f8:	601a      	str	r2, [r3, #0]
  huart1.Init.BaudRate = 115200;
 80002fa:	4b12      	ldr	r3, [pc, #72]	; (8000344 <_ZL19MX_USART1_UART_Initv+0x54>)
 80002fc:	f44f 32e1 	mov.w	r2, #115200	; 0x1c200
 8000300:	605a      	str	r2, [r3, #4]
  huart1.Init.WordLength = UART_WORDLENGTH_8B;
 8000302:	4b10      	ldr	r3, [pc, #64]	; (8000344 <_ZL19MX_USART1_UART_Initv+0x54>)
 8000304:	2200      	movs	r2, #0
 8000306:	609a      	str	r2, [r3, #8]
  huart1.Init.StopBits = UART_STOPBITS_1;
 8000308:	4b0e      	ldr	r3, [pc, #56]	; (8000344 <_ZL19MX_USART1_UART_Initv+0x54>)
 800030a:	2200      	movs	r2, #0
 800030c:	60da      	str	r2, [r3, #12]
  huart1.Init.Parity = UART_PARITY_NONE;
 800030e:	4b0d      	ldr	r3, [pc, #52]	; (8000344 <_ZL19MX_USART1_UART_Initv+0x54>)
 8000310:	2200      	movs	r2, #0
 8000312:	611a      	str	r2, [r3, #16]
  huart1.Init.Mode = UART_MODE_TX_RX;
 8000314:	4b0b      	ldr	r3, [pc, #44]	; (8000344 <_ZL19MX_USART1_UART_Initv+0x54>)
 8000316:	220c      	movs	r2, #12
 8000318:	615a      	str	r2, [r3, #20]
  huart1.Init.HwFlowCtl = UART_HWCONTROL_NONE;
 800031a:	4b0a      	ldr	r3, [pc, #40]	; (8000344 <_ZL19MX_USART1_UART_Initv+0x54>)
 800031c:	2200      	movs	r2, #0
 800031e:	619a      	str	r2, [r3, #24]
  huart1.Init.OverSampling = UART_OVERSAMPLING_16;
 8000320:	4b08      	ldr	r3, [pc, #32]	; (8000344 <_ZL19MX_USART1_UART_Initv+0x54>)
 8000322:	2200      	movs	r2, #0
 8000324:	61da      	str	r2, [r3, #28]
  if (HAL_UART_Init(&huart1) != HAL_OK)
 8000326:	4807      	ldr	r0, [pc, #28]	; (8000344 <_ZL19MX_USART1_UART_Initv+0x54>)
 8000328:	f002 f886 	bl	8002438 <HAL_UART_Init>
 800032c:	4603      	mov	r3, r0
 800032e:	2b00      	cmp	r3, #0
 8000330:	bf14      	ite	ne
 8000332:	2301      	movne	r3, #1
 8000334:	2300      	moveq	r3, #0
 8000336:	b2db      	uxtb	r3, r3
 8000338:	2b00      	cmp	r3, #0
 800033a:	d001      	beq.n	8000340 <_ZL19MX_USART1_UART_Initv+0x50>
  {
    Error_Handler();
 800033c:	f000 f888 	bl	8000450 <Error_Handler>
  }
  /* USER CODE BEGIN USART1_Init 2 */

  /* USER CODE END USART1_Init 2 */

}
 8000340:	bf00      	nop
 8000342:	bd80      	pop	{r7, pc}
 8000344:	20000084 	.word	0x20000084
 8000348:	40013800 	.word	0x40013800

0800034c <_ZL12MX_GPIO_Initv>:
  * @brief GPIO Initialization Function
  * @param None
  * @retval None
  */
static void MX_GPIO_Init(void)
{
 800034c:	b580      	push	{r7, lr}
 800034e:	b088      	sub	sp, #32
 8000350:	af00      	add	r7, sp, #0
  GPIO_InitTypeDef GPIO_InitStruct = {0};
 8000352:	f107 0310 	add.w	r3, r7, #16
 8000356:	2200      	movs	r2, #0
 8000358:	601a      	str	r2, [r3, #0]
 800035a:	605a      	str	r2, [r3, #4]
 800035c:	609a      	str	r2, [r3, #8]
 800035e:	60da      	str	r2, [r3, #12]

  /* GPIO Ports Clock Enable */
  __HAL_RCC_GPIOC_CLK_ENABLE();
 8000360:	4b37      	ldr	r3, [pc, #220]	; (8000440 <_ZL12MX_GPIO_Initv+0xf4>)
 8000362:	699b      	ldr	r3, [r3, #24]
 8000364:	4a36      	ldr	r2, [pc, #216]	; (8000440 <_ZL12MX_GPIO_Initv+0xf4>)
 8000366:	f043 0310 	orr.w	r3, r3, #16
 800036a:	6193      	str	r3, [r2, #24]
 800036c:	4b34      	ldr	r3, [pc, #208]	; (8000440 <_ZL12MX_GPIO_Initv+0xf4>)
 800036e:	699b      	ldr	r3, [r3, #24]
 8000370:	f003 0310 	and.w	r3, r3, #16
 8000374:	60fb      	str	r3, [r7, #12]
 8000376:	68fb      	ldr	r3, [r7, #12]
  __HAL_RCC_GPIOA_CLK_ENABLE();
 8000378:	4b31      	ldr	r3, [pc, #196]	; (8000440 <_ZL12MX_GPIO_Initv+0xf4>)
 800037a:	699b      	ldr	r3, [r3, #24]
 800037c:	4a30      	ldr	r2, [pc, #192]	; (8000440 <_ZL12MX_GPIO_Initv+0xf4>)
 800037e:	f043 0304 	orr.w	r3, r3, #4
 8000382:	6193      	str	r3, [r2, #24]
 8000384:	4b2e      	ldr	r3, [pc, #184]	; (8000440 <_ZL12MX_GPIO_Initv+0xf4>)
 8000386:	699b      	ldr	r3, [r3, #24]
 8000388:	f003 0304 	and.w	r3, r3, #4
 800038c:	60bb      	str	r3, [r7, #8]
 800038e:	68bb      	ldr	r3, [r7, #8]
  __HAL_RCC_GPIOB_CLK_ENABLE();
 8000390:	4b2b      	ldr	r3, [pc, #172]	; (8000440 <_ZL12MX_GPIO_Initv+0xf4>)
 8000392:	699b      	ldr	r3, [r3, #24]
 8000394:	4a2a      	ldr	r2, [pc, #168]	; (8000440 <_ZL12MX_GPIO_Initv+0xf4>)
 8000396:	f043 0308 	orr.w	r3, r3, #8
 800039a:	6193      	str	r3, [r2, #24]
 800039c:	4b28      	ldr	r3, [pc, #160]	; (8000440 <_ZL12MX_GPIO_Initv+0xf4>)
 800039e:	699b      	ldr	r3, [r3, #24]
 80003a0:	f003 0308 	and.w	r3, r3, #8
 80003a4:	607b      	str	r3, [r7, #4]
 80003a6:	687b      	ldr	r3, [r7, #4]

  /*Configure GPIO pin Output Level */
  HAL_GPIO_WritePin(LEDONBOARD_GPIO_Port, LEDONBOARD_Pin, GPIO_PIN_RESET);
 80003a8:	2200      	movs	r2, #0
 80003aa:	f44f 5100 	mov.w	r1, #8192	; 0x2000
 80003ae:	4825      	ldr	r0, [pc, #148]	; (8000444 <_ZL12MX_GPIO_Initv+0xf8>)
 80003b0:	f000 fe80 	bl	80010b4 <HAL_GPIO_WritePin>

  /*Configure GPIO pin Output Level */
  HAL_GPIO_WritePin(GPIOA, nSEL_Pin|SDN_Pin, GPIO_PIN_RESET);
 80003b4:	2200      	movs	r2, #0
 80003b6:	210a      	movs	r1, #10
 80003b8:	4823      	ldr	r0, [pc, #140]	; (8000448 <_ZL12MX_GPIO_Initv+0xfc>)
 80003ba:	f000 fe7b 	bl	80010b4 <HAL_GPIO_WritePin>

  /*Configure GPIO pin : LEDONBOARD_Pin */
  GPIO_InitStruct.Pin = LEDONBOARD_Pin;
 80003be:	f44f 5300 	mov.w	r3, #8192	; 0x2000
 80003c2:	613b      	str	r3, [r7, #16]
  GPIO_InitStruct.Mode = GPIO_MODE_OUTPUT_PP;
 80003c4:	2301      	movs	r3, #1
 80003c6:	617b      	str	r3, [r7, #20]
  GPIO_InitStruct.Pull = GPIO_NOPULL;
 80003c8:	2300      	movs	r3, #0
 80003ca:	61bb      	str	r3, [r7, #24]
  GPIO_InitStruct.Speed = GPIO_SPEED_FREQ_LOW;
 80003cc:	2302      	movs	r3, #2
 80003ce:	61fb      	str	r3, [r7, #28]
  HAL_GPIO_Init(LEDONBOARD_GPIO_Port, &GPIO_InitStruct);
 80003d0:	f107 0310 	add.w	r3, r7, #16
 80003d4:	4619      	mov	r1, r3
 80003d6:	481b      	ldr	r0, [pc, #108]	; (8000444 <_ZL12MX_GPIO_Initv+0xf8>)
 80003d8:	f000 fd12 	bl	8000e00 <HAL_GPIO_Init>

  /*Configure GPIO pins : nSEL_Pin SDN_Pin */
  GPIO_InitStruct.Pin = nSEL_Pin|SDN_Pin;
 80003dc:	230a      	movs	r3, #10
 80003de:	613b      	str	r3, [r7, #16]
  GPIO_InitStruct.Mode = GPIO_MODE_OUTPUT_PP;
 80003e0:	2301      	movs	r3, #1
 80003e2:	617b      	str	r3, [r7, #20]
  GPIO_InitStruct.Pull = GPIO_NOPULL;
 80003e4:	2300      	movs	r3, #0
 80003e6:	61bb      	str	r3, [r7, #24]
  GPIO_InitStruct.Speed = GPIO_SPEED_FREQ_LOW;
 80003e8:	2302      	movs	r3, #2
 80003ea:	61fb      	str	r3, [r7, #28]
  HAL_GPIO_Init(GPIOA, &GPIO_InitStruct);
 80003ec:	f107 0310 	add.w	r3, r7, #16
 80003f0:	4619      	mov	r1, r3
 80003f2:	4815      	ldr	r0, [pc, #84]	; (8000448 <_ZL12MX_GPIO_Initv+0xfc>)
 80003f4:	f000 fd04 	bl	8000e00 <HAL_GPIO_Init>

  /*Configure GPIO pin : CTS_Pin */
  GPIO_InitStruct.Pin = CTS_Pin;
 80003f8:	2304      	movs	r3, #4
 80003fa:	613b      	str	r3, [r7, #16]
  GPIO_InitStruct.Mode = GPIO_MODE_INPUT;
 80003fc:	2300      	movs	r3, #0
 80003fe:	617b      	str	r3, [r7, #20]
  GPIO_InitStruct.Pull = GPIO_NOPULL;
 8000400:	2300      	movs	r3, #0
 8000402:	61bb      	str	r3, [r7, #24]
  HAL_GPIO_Init(CTS_GPIO_Port, &GPIO_InitStruct);
 8000404:	f107 0310 	add.w	r3, r7, #16
 8000408:	4619      	mov	r1, r3
 800040a:	480f      	ldr	r0, [pc, #60]	; (8000448 <_ZL12MX_GPIO_Initv+0xfc>)
 800040c:	f000 fcf8 	bl	8000e00 <HAL_GPIO_Init>

  /*Configure GPIO pin : nIRQ_Pin */
  GPIO_InitStruct.Pin = nIRQ_Pin;
 8000410:	2310      	movs	r3, #16
 8000412:	613b      	str	r3, [r7, #16]
  GPIO_InitStruct.Mode = GPIO_MODE_IT_RISING;
 8000414:	4b0d      	ldr	r3, [pc, #52]	; (800044c <_ZL12MX_GPIO_Initv+0x100>)
 8000416:	617b      	str	r3, [r7, #20]
  GPIO_InitStruct.Pull = GPIO_NOPULL;
 8000418:	2300      	movs	r3, #0
 800041a:	61bb      	str	r3, [r7, #24]
  HAL_GPIO_Init(nIRQ_GPIO_Port, &GPIO_InitStruct);
 800041c:	f107 0310 	add.w	r3, r7, #16
 8000420:	4619      	mov	r1, r3
 8000422:	4809      	ldr	r0, [pc, #36]	; (8000448 <_ZL12MX_GPIO_Initv+0xfc>)
 8000424:	f000 fcec 	bl	8000e00 <HAL_GPIO_Init>

  /* EXTI interrupt init*/
  HAL_NVIC_SetPriority(EXTI4_IRQn, 0, 0);
 8000428:	2200      	movs	r2, #0
 800042a:	2100      	movs	r1, #0
 800042c:	200a      	movs	r0, #10
 800042e:	f000 fcb0 	bl	8000d92 <HAL_NVIC_SetPriority>
    HAL_NVIC_EnableIRQ(EXTI4_IRQn);
 8000432:	200a      	movs	r0, #10
 8000434:	f000 fcc9 	bl	8000dca <HAL_NVIC_EnableIRQ>

}
 8000438:	bf00      	nop
 800043a:	3720      	adds	r7, #32
 800043c:	46bd      	mov	sp, r7
 800043e:	bd80      	pop	{r7, pc}
 8000440:	40021000 	.word	0x40021000
 8000444:	40011000 	.word	0x40011000
 8000448:	40010800 	.word	0x40010800
 800044c:	10110000 	.word	0x10110000

08000450 <Error_Handler>:
/**
  * @brief  This function is executed in case of error occurrence.
  * @retval None
  */
void Error_Handler(void)
{
 8000450:	b480      	push	{r7}
 8000452:	af00      	add	r7, sp, #0
  /* USER CODE BEGIN Error_Handler_Debug */
  /* User can add his own implementation to report the HAL error return state */

  /* USER CODE END Error_Handler_Debug */
}
 8000454:	bf00      	nop
 8000456:	46bd      	mov	sp, r7
 8000458:	bc80      	pop	{r7}
 800045a:	4770      	bx	lr

0800045c <HAL_MspInit>:
/* USER CODE END 0 */
/**
  * Initializes the Global MSP.
  */
void HAL_MspInit(void)
{
 800045c:	b480      	push	{r7}
 800045e:	b085      	sub	sp, #20
 8000460:	af00      	add	r7, sp, #0
  /* USER CODE BEGIN MspInit 0 */

  /* USER CODE END MspInit 0 */

  __HAL_RCC_AFIO_CLK_ENABLE();
 8000462:	4b15      	ldr	r3, [pc, #84]	; (80004b8 <HAL_MspInit+0x5c>)
 8000464:	699b      	ldr	r3, [r3, #24]
 8000466:	4a14      	ldr	r2, [pc, #80]	; (80004b8 <HAL_MspInit+0x5c>)
 8000468:	f043 0301 	orr.w	r3, r3, #1
 800046c:	6193      	str	r3, [r2, #24]
 800046e:	4b12      	ldr	r3, [pc, #72]	; (80004b8 <HAL_MspInit+0x5c>)
 8000470:	699b      	ldr	r3, [r3, #24]
 8000472:	f003 0301 	and.w	r3, r3, #1
 8000476:	60bb      	str	r3, [r7, #8]
 8000478:	68bb      	ldr	r3, [r7, #8]
  __HAL_RCC_PWR_CLK_ENABLE();
 800047a:	4b0f      	ldr	r3, [pc, #60]	; (80004b8 <HAL_MspInit+0x5c>)
 800047c:	69db      	ldr	r3, [r3, #28]
 800047e:	4a0e      	ldr	r2, [pc, #56]	; (80004b8 <HAL_MspInit+0x5c>)
 8000480:	f043 5380 	orr.w	r3, r3, #268435456	; 0x10000000
 8000484:	61d3      	str	r3, [r2, #28]
 8000486:	4b0c      	ldr	r3, [pc, #48]	; (80004b8 <HAL_MspInit+0x5c>)
 8000488:	69db      	ldr	r3, [r3, #28]
 800048a:	f003 5380 	and.w	r3, r3, #268435456	; 0x10000000
 800048e:	607b      	str	r3, [r7, #4]
 8000490:	687b      	ldr	r3, [r7, #4]

  /* System interrupt init*/

  /** NOJTAG: JTAG-DP Disabled and SW-DP Enabled
  */
  __HAL_AFIO_REMAP_SWJ_NOJTAG();
 8000492:	4b0a      	ldr	r3, [pc, #40]	; (80004bc <HAL_MspInit+0x60>)
 8000494:	685b      	ldr	r3, [r3, #4]
 8000496:	60fb      	str	r3, [r7, #12]
 8000498:	68fb      	ldr	r3, [r7, #12]
 800049a:	f023 63e0 	bic.w	r3, r3, #117440512	; 0x7000000
 800049e:	60fb      	str	r3, [r7, #12]
 80004a0:	68fb      	ldr	r3, [r7, #12]
 80004a2:	f043 7300 	orr.w	r3, r3, #33554432	; 0x2000000
 80004a6:	60fb      	str	r3, [r7, #12]
 80004a8:	4a04      	ldr	r2, [pc, #16]	; (80004bc <HAL_MspInit+0x60>)
 80004aa:	68fb      	ldr	r3, [r7, #12]
 80004ac:	6053      	str	r3, [r2, #4]

  /* USER CODE BEGIN MspInit 1 */

  /* USER CODE END MspInit 1 */
}
 80004ae:	bf00      	nop
 80004b0:	3714      	adds	r7, #20
 80004b2:	46bd      	mov	sp, r7
 80004b4:	bc80      	pop	{r7}
 80004b6:	4770      	bx	lr
 80004b8:	40021000 	.word	0x40021000
 80004bc:	40010000 	.word	0x40010000

080004c0 <HAL_SPI_MspInit>:
* This function configures the hardware resources used in this example
* @param hspi: SPI handle pointer
* @retval None
*/
void HAL_SPI_MspInit(SPI_HandleTypeDef* hspi)
{
 80004c0:	b580      	push	{r7, lr}
 80004c2:	b088      	sub	sp, #32
 80004c4:	af00      	add	r7, sp, #0
 80004c6:	6078      	str	r0, [r7, #4]
  GPIO_InitTypeDef GPIO_InitStruct = {0};
 80004c8:	f107 0310 	add.w	r3, r7, #16
 80004cc:	2200      	movs	r2, #0
 80004ce:	601a      	str	r2, [r3, #0]
 80004d0:	605a      	str	r2, [r3, #4]
 80004d2:	609a      	str	r2, [r3, #8]
 80004d4:	60da      	str	r2, [r3, #12]
  if(hspi->Instance==SPI1)
 80004d6:	687b      	ldr	r3, [r7, #4]
 80004d8:	681b      	ldr	r3, [r3, #0]
 80004da:	4a1b      	ldr	r2, [pc, #108]	; (8000548 <HAL_SPI_MspInit+0x88>)
 80004dc:	4293      	cmp	r3, r2
 80004de:	d12f      	bne.n	8000540 <HAL_SPI_MspInit+0x80>
  {
  /* USER CODE BEGIN SPI1_MspInit 0 */

  /* USER CODE END SPI1_MspInit 0 */
    /* Peripheral clock enable */
    __HAL_RCC_SPI1_CLK_ENABLE();
 80004e0:	4b1a      	ldr	r3, [pc, #104]	; (800054c <HAL_SPI_MspInit+0x8c>)
 80004e2:	699b      	ldr	r3, [r3, #24]
 80004e4:	4a19      	ldr	r2, [pc, #100]	; (800054c <HAL_SPI_MspInit+0x8c>)
 80004e6:	f443 5380 	orr.w	r3, r3, #4096	; 0x1000
 80004ea:	6193      	str	r3, [r2, #24]
 80004ec:	4b17      	ldr	r3, [pc, #92]	; (800054c <HAL_SPI_MspInit+0x8c>)
 80004ee:	699b      	ldr	r3, [r3, #24]
 80004f0:	f403 5380 	and.w	r3, r3, #4096	; 0x1000
 80004f4:	60fb      	str	r3, [r7, #12]
 80004f6:	68fb      	ldr	r3, [r7, #12]

    __HAL_RCC_GPIOA_CLK_ENABLE();
 80004f8:	4b14      	ldr	r3, [pc, #80]	; (800054c <HAL_SPI_MspInit+0x8c>)
 80004fa:	699b      	ldr	r3, [r3, #24]
 80004fc:	4a13      	ldr	r2, [pc, #76]	; (800054c <HAL_SPI_MspInit+0x8c>)
 80004fe:	f043 0304 	orr.w	r3, r3, #4
 8000502:	6193      	str	r3, [r2, #24]
 8000504:	4b11      	ldr	r3, [pc, #68]	; (800054c <HAL_SPI_MspInit+0x8c>)
 8000506:	699b      	ldr	r3, [r3, #24]
 8000508:	f003 0304 	and.w	r3, r3, #4
 800050c:	60bb      	str	r3, [r7, #8]
 800050e:	68bb      	ldr	r3, [r7, #8]
    /**SPI1 GPIO Configuration
    PA5     ------> SPI1_SCK
    PA6     ------> SPI1_MISO
    PA7     ------> SPI1_MOSI
    */
    GPIO_InitStruct.Pin = GPIO_PIN_5|GPIO_PIN_7;
 8000510:	23a0      	movs	r3, #160	; 0xa0
 8000512:	613b      	str	r3, [r7, #16]
    GPIO_InitStruct.Mode = GPIO_MODE_AF_PP;
 8000514:	2302      	movs	r3, #2
 8000516:	617b      	str	r3, [r7, #20]
    GPIO_InitStruct.Speed = GPIO_SPEED_FREQ_HIGH;
 8000518:	2303      	movs	r3, #3
 800051a:	61fb      	str	r3, [r7, #28]
    HAL_GPIO_Init(GPIOA, &GPIO_InitStruct);
 800051c:	f107 0310 	add.w	r3, r7, #16
 8000520:	4619      	mov	r1, r3
 8000522:	480b      	ldr	r0, [pc, #44]	; (8000550 <HAL_SPI_MspInit+0x90>)
 8000524:	f000 fc6c 	bl	8000e00 <HAL_GPIO_Init>

    GPIO_InitStruct.Pin = GPIO_PIN_6;
 8000528:	2340      	movs	r3, #64	; 0x40
 800052a:	613b      	str	r3, [r7, #16]
    GPIO_InitStruct.Mode = GPIO_MODE_INPUT;
 800052c:	2300      	movs	r3, #0
 800052e:	617b      	str	r3, [r7, #20]
    GPIO_InitStruct.Pull = GPIO_NOPULL;
 8000530:	2300      	movs	r3, #0
 8000532:	61bb      	str	r3, [r7, #24]
    HAL_GPIO_Init(GPIOA, &GPIO_InitStruct);
 8000534:	f107 0310 	add.w	r3, r7, #16
 8000538:	4619      	mov	r1, r3
 800053a:	4805      	ldr	r0, [pc, #20]	; (8000550 <HAL_SPI_MspInit+0x90>)
 800053c:	f000 fc60 	bl	8000e00 <HAL_GPIO_Init>
  /* USER CODE BEGIN SPI1_MspInit 1 */

  /* USER CODE END SPI1_MspInit 1 */
  }

}
 8000540:	bf00      	nop
 8000542:	3720      	adds	r7, #32
 8000544:	46bd      	mov	sp, r7
 8000546:	bd80      	pop	{r7, pc}
 8000548:	40013000 	.word	0x40013000
 800054c:	40021000 	.word	0x40021000
 8000550:	40010800 	.word	0x40010800

08000554 <HAL_UART_MspInit>:
* This function configures the hardware resources used in this example
* @param huart: UART handle pointer
* @retval None
*/
void HAL_UART_MspInit(UART_HandleTypeDef* huart)
{
 8000554:	b580      	push	{r7, lr}
 8000556:	b088      	sub	sp, #32
 8000558:	af00      	add	r7, sp, #0
 800055a:	6078      	str	r0, [r7, #4]
  GPIO_InitTypeDef GPIO_InitStruct = {0};
 800055c:	f107 0310 	add.w	r3, r7, #16
 8000560:	2200      	movs	r2, #0
 8000562:	601a      	str	r2, [r3, #0]
 8000564:	605a      	str	r2, [r3, #4]
 8000566:	609a      	str	r2, [r3, #8]
 8000568:	60da      	str	r2, [r3, #12]
  if(huart->Instance==USART1)
 800056a:	687b      	ldr	r3, [r7, #4]
 800056c:	681b      	ldr	r3, [r3, #0]
 800056e:	4a1c      	ldr	r2, [pc, #112]	; (80005e0 <HAL_UART_MspInit+0x8c>)
 8000570:	4293      	cmp	r3, r2
 8000572:	d131      	bne.n	80005d8 <HAL_UART_MspInit+0x84>
  {
  /* USER CODE BEGIN USART1_MspInit 0 */

  /* USER CODE END USART1_MspInit 0 */
    /* Peripheral clock enable */
    __HAL_RCC_USART1_CLK_ENABLE();
 8000574:	4b1b      	ldr	r3, [pc, #108]	; (80005e4 <HAL_UART_MspInit+0x90>)
 8000576:	699b      	ldr	r3, [r3, #24]
 8000578:	4a1a      	ldr	r2, [pc, #104]	; (80005e4 <HAL_UART_MspInit+0x90>)
 800057a:	f443 4380 	orr.w	r3, r3, #16384	; 0x4000
 800057e:	6193      	str	r3, [r2, #24]
 8000580:	4b18      	ldr	r3, [pc, #96]	; (80005e4 <HAL_UART_MspInit+0x90>)
 8000582:	699b      	ldr	r3, [r3, #24]
 8000584:	f403 4380 	and.w	r3, r3, #16384	; 0x4000
 8000588:	60fb      	str	r3, [r7, #12]
 800058a:	68fb      	ldr	r3, [r7, #12]

    __HAL_RCC_GPIOA_CLK_ENABLE();
 800058c:	4b15      	ldr	r3, [pc, #84]	; (80005e4 <HAL_UART_MspInit+0x90>)
 800058e:	699b      	ldr	r3, [r3, #24]
 8000590:	4a14      	ldr	r2, [pc, #80]	; (80005e4 <HAL_UART_MspInit+0x90>)
 8000592:	f043 0304 	orr.w	r3, r3, #4
 8000596:	6193      	str	r3, [r2, #24]
 8000598:	4b12      	ldr	r3, [pc, #72]	; (80005e4 <HAL_UART_MspInit+0x90>)
 800059a:	699b      	ldr	r3, [r3, #24]
 800059c:	f003 0304 	and.w	r3, r3, #4
 80005a0:	60bb      	str	r3, [r7, #8]
 80005a2:	68bb      	ldr	r3, [r7, #8]
    /**USART1 GPIO Configuration
    PA9     ------> USART1_TX
    PA10     ------> USART1_RX
    */
    GPIO_InitStruct.Pin = GPIO_PIN_9;
 80005a4:	f44f 7300 	mov.w	r3, #512	; 0x200
 80005a8:	613b      	str	r3, [r7, #16]
    GPIO_InitStruct.Mode = GPIO_MODE_AF_PP;
 80005aa:	2302      	movs	r3, #2
 80005ac:	617b      	str	r3, [r7, #20]
    GPIO_InitStruct.Speed = GPIO_SPEED_FREQ_HIGH;
 80005ae:	2303      	movs	r3, #3
 80005b0:	61fb      	str	r3, [r7, #28]
    HAL_GPIO_Init(GPIOA, &GPIO_InitStruct);
 80005b2:	f107 0310 	add.w	r3, r7, #16
 80005b6:	4619      	mov	r1, r3
 80005b8:	480b      	ldr	r0, [pc, #44]	; (80005e8 <HAL_UART_MspInit+0x94>)
 80005ba:	f000 fc21 	bl	8000e00 <HAL_GPIO_Init>

    GPIO_InitStruct.Pin = GPIO_PIN_10;
 80005be:	f44f 6380 	mov.w	r3, #1024	; 0x400
 80005c2:	613b      	str	r3, [r7, #16]
    GPIO_InitStruct.Mode = GPIO_MODE_INPUT;
 80005c4:	2300      	movs	r3, #0
 80005c6:	617b      	str	r3, [r7, #20]
    GPIO_InitStruct.Pull = GPIO_NOPULL;
 80005c8:	2300      	movs	r3, #0
 80005ca:	61bb      	str	r3, [r7, #24]
    HAL_GPIO_Init(GPIOA, &GPIO_InitStruct);
 80005cc:	f107 0310 	add.w	r3, r7, #16
 80005d0:	4619      	mov	r1, r3
 80005d2:	4805      	ldr	r0, [pc, #20]	; (80005e8 <HAL_UART_MspInit+0x94>)
 80005d4:	f000 fc14 	bl	8000e00 <HAL_GPIO_Init>
  /* USER CODE BEGIN USART1_MspInit 1 */

  /* USER CODE END USART1_MspInit 1 */
  }

}
 80005d8:	bf00      	nop
 80005da:	3720      	adds	r7, #32
 80005dc:	46bd      	mov	sp, r7
 80005de:	bd80      	pop	{r7, pc}
 80005e0:	40013800 	.word	0x40013800
 80005e4:	40021000 	.word	0x40021000
 80005e8:	40010800 	.word	0x40010800

080005ec <NMI_Handler>:
/******************************************************************************/
/**
  * @brief This function handles Non maskable interrupt.
  */
void NMI_Handler(void)
{
 80005ec:	b480      	push	{r7}
 80005ee:	af00      	add	r7, sp, #0

  /* USER CODE END NonMaskableInt_IRQn 0 */
  /* USER CODE BEGIN NonMaskableInt_IRQn 1 */

  /* USER CODE END NonMaskableInt_IRQn 1 */
}
 80005f0:	bf00      	nop
 80005f2:	46bd      	mov	sp, r7
 80005f4:	bc80      	pop	{r7}
 80005f6:	4770      	bx	lr

080005f8 <HardFault_Handler>:

/**
  * @brief This function handles Hard fault interrupt.
  */
void HardFault_Handler(void)
{
 80005f8:	b480      	push	{r7}
 80005fa:	af00      	add	r7, sp, #0
  /* USER CODE BEGIN HardFault_IRQn 0 */

  /* USER CODE END HardFault_IRQn 0 */
  while (1)
 80005fc:	e7fe      	b.n	80005fc <HardFault_Handler+0x4>

080005fe <MemManage_Handler>:

/**
  * @brief This function handles Memory management fault.
  */
void MemManage_Handler(void)
{
 80005fe:	b480      	push	{r7}
 8000600:	af00      	add	r7, sp, #0
  /* USER CODE BEGIN MemoryManagement_IRQn 0 */

  /* USER CODE END MemoryManagement_IRQn 0 */
  while (1)
 8000602:	e7fe      	b.n	8000602 <MemManage_Handler+0x4>

08000604 <BusFault_Handler>:

/**
  * @brief This function handles Prefetch fault, memory access fault.
  */
void BusFault_Handler(void)
{
 8000604:	b480      	push	{r7}
 8000606:	af00      	add	r7, sp, #0
  /* USER CODE BEGIN BusFault_IRQn 0 */

  /* USER CODE END BusFault_IRQn 0 */
  while (1)
 8000608:	e7fe      	b.n	8000608 <BusFault_Handler+0x4>

0800060a <UsageFault_Handler>:

/**
  * @brief This function handles Undefined instruction or illegal state.
  */
void UsageFault_Handler(void)
{
 800060a:	b480      	push	{r7}
 800060c:	af00      	add	r7, sp, #0
  /* USER CODE BEGIN UsageFault_IRQn 0 */

  /* USER CODE END UsageFault_IRQn 0 */
  while (1)
 800060e:	e7fe      	b.n	800060e <UsageFault_Handler+0x4>

08000610 <SVC_Handler>:

/**
  * @brief This function handles System service call via SWI instruction.
  */
void SVC_Handler(void)
{
 8000610:	b480      	push	{r7}
 8000612:	af00      	add	r7, sp, #0

  /* USER CODE END SVCall_IRQn 0 */
  /* USER CODE BEGIN SVCall_IRQn 1 */

  /* USER CODE END SVCall_IRQn 1 */
}
 8000614:	bf00      	nop
 8000616:	46bd      	mov	sp, r7
 8000618:	bc80      	pop	{r7}
 800061a:	4770      	bx	lr

0800061c <DebugMon_Handler>:

/**
  * @brief This function handles Debug monitor.
  */
void DebugMon_Handler(void)
{
 800061c:	b480      	push	{r7}
 800061e:	af00      	add	r7, sp, #0

  /* USER CODE END DebugMonitor_IRQn 0 */
  /* USER CODE BEGIN DebugMonitor_IRQn 1 */

  /* USER CODE END DebugMonitor_IRQn 1 */
}
 8000620:	bf00      	nop
 8000622:	46bd      	mov	sp, r7
 8000624:	bc80      	pop	{r7}
 8000626:	4770      	bx	lr

08000628 <PendSV_Handler>:

/**
  * @brief This function handles Pendable request for system service.
  */
void PendSV_Handler(void)
{
 8000628:	b480      	push	{r7}
 800062a:	af00      	add	r7, sp, #0

  /* USER CODE END PendSV_IRQn 0 */
  /* USER CODE BEGIN PendSV_IRQn 1 */

  /* USER CODE END PendSV_IRQn 1 */
}
 800062c:	bf00      	nop
 800062e:	46bd      	mov	sp, r7
 8000630:	bc80      	pop	{r7}
 8000632:	4770      	bx	lr

08000634 <SysTick_Handler>:

/**
  * @brief This function handles System tick timer.
  */
void SysTick_Handler(void)
{
 8000634:	b580      	push	{r7, lr}
 8000636:	af00      	add	r7, sp, #0
  /* USER CODE BEGIN SysTick_IRQn 0 */

  /* USER CODE END SysTick_IRQn 0 */
  HAL_IncTick();
 8000638:	f000 fa96 	bl	8000b68 <HAL_IncTick>
  /* USER CODE BEGIN SysTick_IRQn 1 */

  /* USER CODE END SysTick_IRQn 1 */
}
 800063c:	bf00      	nop
 800063e:	bd80      	pop	{r7, pc}

08000640 <EXTI4_IRQHandler>:

/**
  * @brief This function handles EXTI line4 interrupt.
  */
void EXTI4_IRQHandler(void)
{
 8000640:	b580      	push	{r7, lr}
 8000642:	af00      	add	r7, sp, #0
  /* USER CODE BEGIN EXTI4_IRQn 0 */

  /* USER CODE END EXTI4_IRQn 0 */
  HAL_GPIO_EXTI_IRQHandler(GPIO_PIN_4);
 8000644:	2010      	movs	r0, #16
 8000646:	f000 fd4d 	bl	80010e4 <HAL_GPIO_EXTI_IRQHandler>
  /* USER CODE BEGIN EXTI4_IRQn 1 */

  /* USER CODE END EXTI4_IRQn 1 */
}
 800064a:	bf00      	nop
 800064c:	bd80      	pop	{r7, pc}

0800064e <SystemInit>:
  * @note   This function should be used only after reset.
  * @param  None
  * @retval None
  */
void SystemInit (void)
{
 800064e:	b480      	push	{r7}
 8000650:	af00      	add	r7, sp, #0

  /* Configure the Vector Table location -------------------------------------*/
#if defined(USER_VECT_TAB_ADDRESS)
  SCB->VTOR = VECT_TAB_BASE_ADDRESS | VECT_TAB_OFFSET; /* Vector Table Relocation in Internal SRAM. */
#endif /* USER_VECT_TAB_ADDRESS */
}
 8000652:	bf00      	nop
 8000654:	46bd      	mov	sp, r7
 8000656:	bc80      	pop	{r7}
 8000658:	4770      	bx	lr
	...

0800065c <Reset_Handler>:
  .weak Reset_Handler
  .type Reset_Handler, %function
Reset_Handler:

/* Copy the data segment initializers from flash to SRAM */
  ldr r0, =_sdata
 800065c:	480c      	ldr	r0, [pc, #48]	; (8000690 <LoopFillZerobss+0x12>)
  ldr r1, =_edata
 800065e:	490d      	ldr	r1, [pc, #52]	; (8000694 <LoopFillZerobss+0x16>)
  ldr r2, =_sidata
 8000660:	4a0d      	ldr	r2, [pc, #52]	; (8000698 <LoopFillZerobss+0x1a>)
  movs r3, #0
 8000662:	2300      	movs	r3, #0
  b LoopCopyDataInit
 8000664:	e002      	b.n	800066c <LoopCopyDataInit>

08000666 <CopyDataInit>:

CopyDataInit:
  ldr r4, [r2, r3]
 8000666:	58d4      	ldr	r4, [r2, r3]
  str r4, [r0, r3]
 8000668:	50c4      	str	r4, [r0, r3]
  adds r3, r3, #4
 800066a:	3304      	adds	r3, #4

0800066c <LoopCopyDataInit>:

LoopCopyDataInit:
  adds r4, r0, r3
 800066c:	18c4      	adds	r4, r0, r3
  cmp r4, r1
 800066e:	428c      	cmp	r4, r1
  bcc CopyDataInit
 8000670:	d3f9      	bcc.n	8000666 <CopyDataInit>
  
/* Zero fill the bss segment. */
  ldr r2, =_sbss
 8000672:	4a0a      	ldr	r2, [pc, #40]	; (800069c <LoopFillZerobss+0x1e>)
  ldr r4, =_ebss
 8000674:	4c0a      	ldr	r4, [pc, #40]	; (80006a0 <LoopFillZerobss+0x22>)
  movs r3, #0
 8000676:	2300      	movs	r3, #0
  b LoopFillZerobss
 8000678:	e001      	b.n	800067e <LoopFillZerobss>

0800067a <FillZerobss>:

FillZerobss:
  str  r3, [r2]
 800067a:	6013      	str	r3, [r2, #0]
  adds r2, r2, #4
 800067c:	3204      	adds	r2, #4

0800067e <LoopFillZerobss>:

LoopFillZerobss:
  cmp r2, r4
 800067e:	42a2      	cmp	r2, r4
  bcc FillZerobss
 8000680:	d3fb      	bcc.n	800067a <FillZerobss>

/* Call the clock system intitialization function.*/
    bl  SystemInit
 8000682:	f7ff ffe4 	bl	800064e <SystemInit>
/* Call static constructors */
    bl __libc_init_array
 8000686:	f002 f88f 	bl	80027a8 <__libc_init_array>
/* Call the application's entry point.*/
  bl main
 800068a:	f7ff fd5f 	bl	800014c <main>
  bx lr
 800068e:	4770      	bx	lr
  ldr r0, =_sdata
 8000690:	20000000 	.word	0x20000000
  ldr r1, =_edata
 8000694:	2000000c 	.word	0x2000000c
  ldr r2, =_sidata
 8000698:	080029f8 	.word	0x080029f8
  ldr r2, =_sbss
 800069c:	2000000c 	.word	0x2000000c
  ldr r4, =_ebss
 80006a0:	2000010c 	.word	0x2000010c

080006a4 <ADC1_2_IRQHandler>:
 * @retval : None
*/
    .section .text.Default_Handler,"ax",%progbits
Default_Handler:
Infinite_Loop:
  b Infinite_Loop
 80006a4:	e7fe      	b.n	80006a4 <ADC1_2_IRQHandler>

080006a6 <_ZN6si446xC1EP12GPIO_TypeDefP19__SPI_HandleTypeDefttt>:
	GPIO0 = gpio0;
	GPIO1 = gpio1;
}

//Constructor without gpib pins
si446x::si446x(GPIO_TypeDef* pinBank, SPI_HandleTypeDef* spi, uint16_t ss,
 80006a6:	b480      	push	{r7}
 80006a8:	b085      	sub	sp, #20
 80006aa:	af00      	add	r7, sp, #0
 80006ac:	60f8      	str	r0, [r7, #12]
 80006ae:	60b9      	str	r1, [r7, #8]
 80006b0:	607a      	str	r2, [r7, #4]
 80006b2:	807b      	strh	r3, [r7, #2]
		uint16_t sdn, uint16_t irq) {
 80006b4:	68fb      	ldr	r3, [r7, #12]
 80006b6:	f44f 727a 	mov.w	r2, #1000	; 0x3e8
 80006ba:	839a      	strh	r2, [r3, #28]
	SPI = spi;
 80006bc:	68fb      	ldr	r3, [r7, #12]
 80006be:	687a      	ldr	r2, [r7, #4]
 80006c0:	60da      	str	r2, [r3, #12]
	PIN_BANK_SS = pinBank;
 80006c2:	68fb      	ldr	r3, [r7, #12]
 80006c4:	68ba      	ldr	r2, [r7, #8]
 80006c6:	619a      	str	r2, [r3, #24]
	PIN_BANK_SDN = pinBank;
 80006c8:	68fb      	ldr	r3, [r7, #12]
 80006ca:	68ba      	ldr	r2, [r7, #8]
 80006cc:	615a      	str	r2, [r3, #20]
	PIN_BANK_IRQ = pinBank;
 80006ce:	68fb      	ldr	r3, [r7, #12]
 80006d0:	68ba      	ldr	r2, [r7, #8]
 80006d2:	611a      	str	r2, [r3, #16]
	SS = ss;
 80006d4:	68fb      	ldr	r3, [r7, #12]
 80006d6:	887a      	ldrh	r2, [r7, #2]
 80006d8:	801a      	strh	r2, [r3, #0]
	SDN = sdn;
 80006da:	68fb      	ldr	r3, [r7, #12]
 80006dc:	8b3a      	ldrh	r2, [r7, #24]
 80006de:	805a      	strh	r2, [r3, #2]
	IRQ = irq;
 80006e0:	68fb      	ldr	r3, [r7, #12]
 80006e2:	8bba      	ldrh	r2, [r7, #28]
 80006e4:	809a      	strh	r2, [r3, #4]
}
 80006e6:	68fb      	ldr	r3, [r7, #12]
 80006e8:	4618      	mov	r0, r3
 80006ea:	3714      	adds	r7, #20
 80006ec:	46bd      	mov	sp, r7
 80006ee:	bc80      	pop	{r7}
 80006f0:	4770      	bx	lr

080006f2 <_ZN6si446x7powerUpEv>:
	//HAL_Delay(500); //TODO Use nIRQ / GPIO Pin
}


//Power up and program MCU
void si446x::powerUp() {
 80006f2:	b580      	push	{r7, lr}
 80006f4:	b082      	sub	sp, #8
 80006f6:	af00      	add	r7, sp, #0
 80006f8:	6078      	str	r0, [r7, #4]
	HAL_GPIO_WritePin(PIN_BANK_SDN, SDN, GPIO_PIN_SET);
 80006fa:	687b      	ldr	r3, [r7, #4]
 80006fc:	6958      	ldr	r0, [r3, #20]
 80006fe:	687b      	ldr	r3, [r7, #4]
 8000700:	885b      	ldrh	r3, [r3, #2]
 8000702:	2201      	movs	r2, #1
 8000704:	4619      	mov	r1, r3
 8000706:	f000 fcd5 	bl	80010b4 <HAL_GPIO_WritePin>
	HAL_Delay(100);
 800070a:	2064      	movs	r0, #100	; 0x64
 800070c:	f000 fa48 	bl	8000ba0 <HAL_Delay>
	HAL_GPIO_WritePin(PIN_BANK_SDN, SDN, GPIO_PIN_RESET);
 8000710:	687b      	ldr	r3, [r7, #4]
 8000712:	6958      	ldr	r0, [r3, #20]
 8000714:	687b      	ldr	r3, [r7, #4]
 8000716:	885b      	ldrh	r3, [r3, #2]
 8000718:	2200      	movs	r2, #0
 800071a:	4619      	mov	r1, r3
 800071c:	f000 fcca 	bl	80010b4 <HAL_GPIO_WritePin>
	waitUntilReady();
 8000720:	6878      	ldr	r0, [r7, #4]
 8000722:	f000 f807 	bl	8000734 <_ZN6si446x14waitUntilReadyEv>
	writeConfig();
 8000726:	6878      	ldr	r0, [r7, #4]
 8000728:	f000 f96e 	bl	8000a08 <_ZN6si446x11writeConfigEv>
}
 800072c:	bf00      	nop
 800072e:	3708      	adds	r7, #8
 8000730:	46bd      	mov	sp, r7
 8000732:	bd80      	pop	{r7, pc}

08000734 <_ZN6si446x14waitUntilReadyEv>:

//Before every command check if CTS is asserted
void si446x::waitUntilReady() {
 8000734:	b580      	push	{r7, lr}
 8000736:	b084      	sub	sp, #16
 8000738:	af00      	add	r7, sp, #0
 800073a:	6078      	str	r0, [r7, #4]
	uint8_t comand = CTS;
 800073c:	2344      	movs	r3, #68	; 0x44
 800073e:	73fb      	strb	r3, [r7, #15]
	uint8_t testByte = 0x00;
 8000740:	2300      	movs	r3, #0
 8000742:	73bb      	strb	r3, [r7, #14]
	while (testByte != 0xff) {
 8000744:	7bbb      	ldrb	r3, [r7, #14]
 8000746:	2bff      	cmp	r3, #255	; 0xff
 8000748:	d022      	beq.n	8000790 <_ZN6si446x14waitUntilReadyEv+0x5c>
		HAL_GPIO_WritePin(PIN_BANK_SS, SS, GPIO_PIN_RESET);
 800074a:	687b      	ldr	r3, [r7, #4]
 800074c:	6998      	ldr	r0, [r3, #24]
 800074e:	687b      	ldr	r3, [r7, #4]
 8000750:	881b      	ldrh	r3, [r3, #0]
 8000752:	2200      	movs	r2, #0
 8000754:	4619      	mov	r1, r3
 8000756:	f000 fcad 	bl	80010b4 <HAL_GPIO_WritePin>
		HAL_SPI_Transmit(SPI, &comand, 1, spiTimeout);
 800075a:	687b      	ldr	r3, [r7, #4]
 800075c:	68d8      	ldr	r0, [r3, #12]
 800075e:	687b      	ldr	r3, [r7, #4]
 8000760:	8b9b      	ldrh	r3, [r3, #28]
 8000762:	f107 010f 	add.w	r1, r7, #15
 8000766:	2201      	movs	r2, #1
 8000768:	f001 f97e 	bl	8001a68 <HAL_SPI_Transmit>
		HAL_SPI_Receive(SPI, &testByte, 1, spiTimeout);
 800076c:	687b      	ldr	r3, [r7, #4]
 800076e:	68d8      	ldr	r0, [r3, #12]
 8000770:	687b      	ldr	r3, [r7, #4]
 8000772:	8b9b      	ldrh	r3, [r3, #28]
 8000774:	f107 010e 	add.w	r1, r7, #14
 8000778:	2201      	movs	r2, #1
 800077a:	f001 fab1 	bl	8001ce0 <HAL_SPI_Receive>
		HAL_GPIO_WritePin(PIN_BANK_SS, SS, GPIO_PIN_SET);
 800077e:	687b      	ldr	r3, [r7, #4]
 8000780:	6998      	ldr	r0, [r3, #24]
 8000782:	687b      	ldr	r3, [r7, #4]
 8000784:	881b      	ldrh	r3, [r3, #0]
 8000786:	2201      	movs	r2, #1
 8000788:	4619      	mov	r1, r3
 800078a:	f000 fc93 	bl	80010b4 <HAL_GPIO_WritePin>
	while (testByte != 0xff) {
 800078e:	e7d9      	b.n	8000744 <_ZN6si446x14waitUntilReadyEv+0x10>
	}
}
 8000790:	bf00      	nop
 8000792:	3710      	adds	r7, #16
 8000794:	46bd      	mov	sp, r7
 8000796:	bd80      	pop	{r7, pc}

08000798 <_ZN6si446x11sendCommandEPhh>:

//Send command and configuration bytes
void si446x::sendCommand(uint8_t* command, uint8_t lenCommand)
{
 8000798:	b580      	push	{r7, lr}
 800079a:	b084      	sub	sp, #16
 800079c:	af00      	add	r7, sp, #0
 800079e:	60f8      	str	r0, [r7, #12]
 80007a0:	60b9      	str	r1, [r7, #8]
 80007a2:	4613      	mov	r3, r2
 80007a4:	71fb      	strb	r3, [r7, #7]
	waitUntilReady();
 80007a6:	68f8      	ldr	r0, [r7, #12]
 80007a8:	f7ff ffc4 	bl	8000734 <_ZN6si446x14waitUntilReadyEv>
	HAL_GPIO_WritePin(PIN_BANK_SS, SS, GPIO_PIN_RESET);
 80007ac:	68fb      	ldr	r3, [r7, #12]
 80007ae:	6998      	ldr	r0, [r3, #24]
 80007b0:	68fb      	ldr	r3, [r7, #12]
 80007b2:	881b      	ldrh	r3, [r3, #0]
 80007b4:	2200      	movs	r2, #0
 80007b6:	4619      	mov	r1, r3
 80007b8:	f000 fc7c 	bl	80010b4 <HAL_GPIO_WritePin>
	HAL_SPI_Transmit(SPI, command, lenCommand, spiTimeout);
 80007bc:	68fb      	ldr	r3, [r7, #12]
 80007be:	68d8      	ldr	r0, [r3, #12]
 80007c0:	79fb      	ldrb	r3, [r7, #7]
 80007c2:	b29a      	uxth	r2, r3
 80007c4:	68fb      	ldr	r3, [r7, #12]
 80007c6:	8b9b      	ldrh	r3, [r3, #28]
 80007c8:	68b9      	ldr	r1, [r7, #8]
 80007ca:	f001 f94d 	bl	8001a68 <HAL_SPI_Transmit>
	HAL_GPIO_WritePin(PIN_BANK_SS, SS, GPIO_PIN_SET);
 80007ce:	68fb      	ldr	r3, [r7, #12]
 80007d0:	6998      	ldr	r0, [r3, #24]
 80007d2:	68fb      	ldr	r3, [r7, #12]
 80007d4:	881b      	ldrh	r3, [r3, #0]
 80007d6:	2201      	movs	r2, #1
 80007d8:	4619      	mov	r1, r3
 80007da:	f000 fc6b 	bl	80010b4 <HAL_GPIO_WritePin>
}
 80007de:	bf00      	nop
 80007e0:	3710      	adds	r7, #16
 80007e2:	46bd      	mov	sp, r7
 80007e4:	bd80      	pop	{r7, pc}

080007e6 <_ZN6si446x21sendComandGetResponseEPhhS0_h>:

//Send a command and config bytes, get replay stream in return
void si446x::sendComandGetResponse(uint8_t* command, uint8_t lenCommand, uint8_t* response, uint8_t lenResponse)
{
 80007e6:	b580      	push	{r7, lr}
 80007e8:	b086      	sub	sp, #24
 80007ea:	af00      	add	r7, sp, #0
 80007ec:	60f8      	str	r0, [r7, #12]
 80007ee:	60b9      	str	r1, [r7, #8]
 80007f0:	603b      	str	r3, [r7, #0]
 80007f2:	4613      	mov	r3, r2
 80007f4:	71fb      	strb	r3, [r7, #7]
	uint8_t cts[] = {CTS};
 80007f6:	2344      	movs	r3, #68	; 0x44
 80007f8:	753b      	strb	r3, [r7, #20]
	uint8_t ff[] = {0x00};
 80007fa:	2300      	movs	r3, #0
 80007fc:	743b      	strb	r3, [r7, #16]
	HAL_GPIO_WritePin(PIN_BANK_SS, SS, GPIO_PIN_RESET);
 80007fe:	68fb      	ldr	r3, [r7, #12]
 8000800:	6998      	ldr	r0, [r3, #24]
 8000802:	68fb      	ldr	r3, [r7, #12]
 8000804:	881b      	ldrh	r3, [r3, #0]
 8000806:	2200      	movs	r2, #0
 8000808:	4619      	mov	r1, r3
 800080a:	f000 fc53 	bl	80010b4 <HAL_GPIO_WritePin>
	HAL_SPI_Transmit(SPI, command, lenCommand, spiTimeout);
 800080e:	68fb      	ldr	r3, [r7, #12]
 8000810:	68d8      	ldr	r0, [r3, #12]
 8000812:	79fb      	ldrb	r3, [r7, #7]
 8000814:	b29a      	uxth	r2, r3
 8000816:	68fb      	ldr	r3, [r7, #12]
 8000818:	8b9b      	ldrh	r3, [r3, #28]
 800081a:	68b9      	ldr	r1, [r7, #8]
 800081c:	f001 f924 	bl	8001a68 <HAL_SPI_Transmit>
	HAL_GPIO_WritePin(PIN_BANK_SS, SS, GPIO_PIN_SET);
 8000820:	68fb      	ldr	r3, [r7, #12]
 8000822:	6998      	ldr	r0, [r3, #24]
 8000824:	68fb      	ldr	r3, [r7, #12]
 8000826:	881b      	ldrh	r3, [r3, #0]
 8000828:	2201      	movs	r2, #1
 800082a:	4619      	mov	r1, r3
 800082c:	f000 fc42 	bl	80010b4 <HAL_GPIO_WritePin>
	while(true)
	{
		HAL_GPIO_WritePin(PIN_BANK_SS, SS, GPIO_PIN_RESET);
 8000830:	68fb      	ldr	r3, [r7, #12]
 8000832:	6998      	ldr	r0, [r3, #24]
 8000834:	68fb      	ldr	r3, [r7, #12]
 8000836:	881b      	ldrh	r3, [r3, #0]
 8000838:	2200      	movs	r2, #0
 800083a:	4619      	mov	r1, r3
 800083c:	f000 fc3a 	bl	80010b4 <HAL_GPIO_WritePin>
		HAL_SPI_Transmit(SPI, cts, 1, spiTimeout);
 8000840:	68fb      	ldr	r3, [r7, #12]
 8000842:	68d8      	ldr	r0, [r3, #12]
 8000844:	68fb      	ldr	r3, [r7, #12]
 8000846:	8b9b      	ldrh	r3, [r3, #28]
 8000848:	f107 0114 	add.w	r1, r7, #20
 800084c:	2201      	movs	r2, #1
 800084e:	f001 f90b 	bl	8001a68 <HAL_SPI_Transmit>
		HAL_SPI_Receive(SPI, ff, 1, spiTimeout);
 8000852:	68fb      	ldr	r3, [r7, #12]
 8000854:	68d8      	ldr	r0, [r3, #12]
 8000856:	68fb      	ldr	r3, [r7, #12]
 8000858:	8b9b      	ldrh	r3, [r3, #28]
 800085a:	f107 0110 	add.w	r1, r7, #16
 800085e:	2201      	movs	r2, #1
 8000860:	f001 fa3e 	bl	8001ce0 <HAL_SPI_Receive>
		if(ff[0] == 0xff)
 8000864:	7c3b      	ldrb	r3, [r7, #16]
 8000866:	2bff      	cmp	r3, #255	; 0xff
 8000868:	d112      	bne.n	8000890 <_ZN6si446x21sendComandGetResponseEPhhS0_h+0xaa>
		{
			HAL_SPI_Receive(SPI, response, lenResponse, spiTimeout);
 800086a:	68fb      	ldr	r3, [r7, #12]
 800086c:	68d8      	ldr	r0, [r3, #12]
 800086e:	f897 3020 	ldrb.w	r3, [r7, #32]
 8000872:	b29a      	uxth	r2, r3
 8000874:	68fb      	ldr	r3, [r7, #12]
 8000876:	8b9b      	ldrh	r3, [r3, #28]
 8000878:	6839      	ldr	r1, [r7, #0]
 800087a:	f001 fa31 	bl	8001ce0 <HAL_SPI_Receive>
			HAL_GPIO_WritePin(PIN_BANK_SS, SS, GPIO_PIN_SET);
 800087e:	68fb      	ldr	r3, [r7, #12]
 8000880:	6998      	ldr	r0, [r3, #24]
 8000882:	68fb      	ldr	r3, [r7, #12]
 8000884:	881b      	ldrh	r3, [r3, #0]
 8000886:	2201      	movs	r2, #1
 8000888:	4619      	mov	r1, r3
 800088a:	f000 fc13 	bl	80010b4 <HAL_GPIO_WritePin>
			break;
 800088e:	e008      	b.n	80008a2 <_ZN6si446x21sendComandGetResponseEPhhS0_h+0xbc>
		}
		HAL_GPIO_WritePin(PIN_BANK_SS, SS, GPIO_PIN_SET);
 8000890:	68fb      	ldr	r3, [r7, #12]
 8000892:	6998      	ldr	r0, [r3, #24]
 8000894:	68fb      	ldr	r3, [r7, #12]
 8000896:	881b      	ldrh	r3, [r3, #0]
 8000898:	2201      	movs	r2, #1
 800089a:	4619      	mov	r1, r3
 800089c:	f000 fc0a 	bl	80010b4 <HAL_GPIO_WritePin>
		HAL_GPIO_WritePin(PIN_BANK_SS, SS, GPIO_PIN_RESET);
 80008a0:	e7c6      	b.n	8000830 <_ZN6si446x21sendComandGetResponseEPhhS0_h+0x4a>
	}
}
 80008a2:	bf00      	nop
 80008a4:	3718      	adds	r7, #24
 80008a6:	46bd      	mov	sp, r7
 80008a8:	bd80      	pop	{r7, pc}

080008aa <_ZN6si446x14clearInteruptsEv>:
	HAL_SPI_Transmit(SPI, data, len, spiTimeout);
	HAL_GPIO_WritePin(PIN_BANK_SS, SS, GPIO_PIN_SET);
}

//Clear all pending interupts
void si446x::clearInterupts() {
 80008aa:	b580      	push	{r7, lr}
 80008ac:	b084      	sub	sp, #16
 80008ae:	af00      	add	r7, sp, #0
 80008b0:	6078      	str	r0, [r7, #4]
	uint8_t comBuf[] = {GET_INT_STATUS, 0x00, 0x00, 0x00};
 80008b2:	2320      	movs	r3, #32
 80008b4:	733b      	strb	r3, [r7, #12]
 80008b6:	2300      	movs	r3, #0
 80008b8:	737b      	strb	r3, [r7, #13]
 80008ba:	2300      	movs	r3, #0
 80008bc:	73bb      	strb	r3, [r7, #14]
 80008be:	2300      	movs	r3, #0
 80008c0:	73fb      	strb	r3, [r7, #15]
	sendCommand(comBuf, 4);
 80008c2:	f107 030c 	add.w	r3, r7, #12
 80008c6:	2204      	movs	r2, #4
 80008c8:	4619      	mov	r1, r3
 80008ca:	6878      	ldr	r0, [r7, #4]
 80008cc:	f7ff ff64 	bl	8000798 <_ZN6si446x11sendCommandEPhh>
}
 80008d0:	bf00      	nop
 80008d2:	3710      	adds	r7, #16
 80008d4:	46bd      	mov	sp, r7
 80008d6:	bd80      	pop	{r7, pc}

080008d8 <_ZN6si446x13setReadyStateEv>:
	return 0xff;
}

//Will bring modem to ready state
void si446x::setReadyState()
{
 80008d8:	b580      	push	{r7, lr}
 80008da:	b084      	sub	sp, #16
 80008dc:	af00      	add	r7, sp, #0
 80008de:	6078      	str	r0, [r7, #4]
	uint8_t comBuf[] = {CHANGE_STATE, 0x03};
 80008e0:	4b06      	ldr	r3, [pc, #24]	; (80008fc <_ZN6si446x13setReadyStateEv+0x24>)
 80008e2:	881b      	ldrh	r3, [r3, #0]
 80008e4:	81bb      	strh	r3, [r7, #12]
	sendCommand(comBuf, 2);
 80008e6:	f107 030c 	add.w	r3, r7, #12
 80008ea:	2202      	movs	r2, #2
 80008ec:	4619      	mov	r1, r3
 80008ee:	6878      	ldr	r0, [r7, #4]
 80008f0:	f7ff ff52 	bl	8000798 <_ZN6si446x11sendCommandEPhh>
}
 80008f4:	bf00      	nop
 80008f6:	3710      	adds	r7, #16
 80008f8:	46bd      	mov	sp, r7
 80008fa:	bd80      	pop	{r7, pc}
 80008fc:	08002830 	.word	0x08002830

08000900 <_ZN6si446x7startRXEh>:

//Inits. RX Mode. When one package is received, modem will fall back to ready mode
void si446x::startRX(uint8_t channel)
{
 8000900:	b580      	push	{r7, lr}
 8000902:	b084      	sub	sp, #16
 8000904:	af00      	add	r7, sp, #0
 8000906:	6078      	str	r0, [r7, #4]
 8000908:	460b      	mov	r3, r1
 800090a:	70fb      	strb	r3, [r7, #3]
	//Ready State
	setReadyState();
 800090c:	6878      	ldr	r0, [r7, #4]
 800090e:	f7ff ffe3 	bl	80008d8 <_ZN6si446x13setReadyStateEv>
	//Clear Interupts
	clearInterupts();
 8000912:	6878      	ldr	r0, [r7, #4]
 8000914:	f7ff ffc9 	bl	80008aa <_ZN6si446x14clearInteruptsEv>
	//Clear FIFO TX /RX
	clearFifoTXRX();
 8000918:	6878      	ldr	r0, [r7, #4]
 800091a:	f000 f831 	bl	8000980 <_ZN6si446x13clearFifoTXRXEv>
	//Get Radio into RX Mode
	uint8_t commandRx[] = {START_RX, channel, 0x00, 0x00, 0x00, 0x00,0x03,0x00};
 800091e:	f107 0308 	add.w	r3, r7, #8
 8000922:	2200      	movs	r2, #0
 8000924:	601a      	str	r2, [r3, #0]
 8000926:	605a      	str	r2, [r3, #4]
 8000928:	2332      	movs	r3, #50	; 0x32
 800092a:	723b      	strb	r3, [r7, #8]
 800092c:	2303      	movs	r3, #3
 800092e:	73bb      	strb	r3, [r7, #14]
 8000930:	78fb      	ldrb	r3, [r7, #3]
 8000932:	727b      	strb	r3, [r7, #9]
	sendCommand(commandRx, sizeof(commandRx));
 8000934:	f107 0308 	add.w	r3, r7, #8
 8000938:	2208      	movs	r2, #8
 800093a:	4619      	mov	r1, r3
 800093c:	6878      	ldr	r0, [r7, #4]
 800093e:	f7ff ff2b 	bl	8000798 <_ZN6si446x11sendCommandEPhh>
}
 8000942:	bf00      	nop
 8000944:	3710      	adds	r7, #16
 8000946:	46bd      	mov	sp, r7
 8000948:	bd80      	pop	{r7, pc}

0800094a <_ZN6si446x13getRxFifoInfoEv>:

//Returns number of Bytes in RX FIFO
uint8_t si446x::getRxFifoInfo()
{
 800094a:	b580      	push	{r7, lr}
 800094c:	b086      	sub	sp, #24
 800094e:	af02      	add	r7, sp, #8
 8000950:	6078      	str	r0, [r7, #4]
	uint8_t comBuf[2] = {0x15, 0x00};
 8000952:	2315      	movs	r3, #21
 8000954:	733b      	strb	r3, [r7, #12]
 8000956:	2300      	movs	r3, #0
 8000958:	737b      	strb	r3, [r7, #13]
	uint8_t response[2] = {0x00};
 800095a:	2300      	movs	r3, #0
 800095c:	813b      	strh	r3, [r7, #8]
	sendComandGetResponse(comBuf, 2, response, 2);
 800095e:	f107 0208 	add.w	r2, r7, #8
 8000962:	f107 010c 	add.w	r1, r7, #12
 8000966:	2302      	movs	r3, #2
 8000968:	9300      	str	r3, [sp, #0]
 800096a:	4613      	mov	r3, r2
 800096c:	2202      	movs	r2, #2
 800096e:	6878      	ldr	r0, [r7, #4]
 8000970:	f7ff ff39 	bl	80007e6 <_ZN6si446x21sendComandGetResponseEPhhS0_h>
	return(response[0]);
 8000974:	7a3b      	ldrb	r3, [r7, #8]
}
 8000976:	4618      	mov	r0, r3
 8000978:	3710      	adds	r7, #16
 800097a:	46bd      	mov	sp, r7
 800097c:	bd80      	pop	{r7, pc}
	...

08000980 <_ZN6si446x13clearFifoTXRXEv>:

//Clear RX and TX FIFO
void si446x::clearFifoTXRX() {
 8000980:	b580      	push	{r7, lr}
 8000982:	b084      	sub	sp, #16
 8000984:	af00      	add	r7, sp, #0
 8000986:	6078      	str	r0, [r7, #4]
	uint8_t comBuf[] = { FIFO_INFO, 0x03};
 8000988:	4b06      	ldr	r3, [pc, #24]	; (80009a4 <_ZN6si446x13clearFifoTXRXEv+0x24>)
 800098a:	881b      	ldrh	r3, [r3, #0]
 800098c:	81bb      	strh	r3, [r7, #12]
	sendCommand(comBuf, sizeof(comBuf));
 800098e:	f107 030c 	add.w	r3, r7, #12
 8000992:	2202      	movs	r2, #2
 8000994:	4619      	mov	r1, r3
 8000996:	6878      	ldr	r0, [r7, #4]
 8000998:	f7ff fefe 	bl	8000798 <_ZN6si446x11sendCommandEPhh>
}
 800099c:	bf00      	nop
 800099e:	3710      	adds	r7, #16
 80009a0:	46bd      	mov	sp, r7
 80009a2:	bd80      	pop	{r7, pc}
 80009a4:	08002834 	.word	0x08002834

080009a8 <_ZN6si446x9getPacketEPhh>:

//Gets Packet out of FIFO
void si446x::getPacket(uint8_t* rxData, uint8_t len)
{
 80009a8:	b580      	push	{r7, lr}
 80009aa:	b086      	sub	sp, #24
 80009ac:	af00      	add	r7, sp, #0
 80009ae:	60f8      	str	r0, [r7, #12]
 80009b0:	60b9      	str	r1, [r7, #8]
 80009b2:	4613      	mov	r3, r2
 80009b4:	71fb      	strb	r3, [r7, #7]
	uint8_t buf = READ_RX_FIFO;
 80009b6:	2377      	movs	r3, #119	; 0x77
 80009b8:	75fb      	strb	r3, [r7, #23]
	HAL_GPIO_WritePin(PIN_BANK_SS, SS, GPIO_PIN_RESET);
 80009ba:	68fb      	ldr	r3, [r7, #12]
 80009bc:	6998      	ldr	r0, [r3, #24]
 80009be:	68fb      	ldr	r3, [r7, #12]
 80009c0:	881b      	ldrh	r3, [r3, #0]
 80009c2:	2200      	movs	r2, #0
 80009c4:	4619      	mov	r1, r3
 80009c6:	f000 fb75 	bl	80010b4 <HAL_GPIO_WritePin>
	HAL_SPI_Transmit(SPI, &buf, 1, spiTimeout);
 80009ca:	68fb      	ldr	r3, [r7, #12]
 80009cc:	68d8      	ldr	r0, [r3, #12]
 80009ce:	68fb      	ldr	r3, [r7, #12]
 80009d0:	8b9b      	ldrh	r3, [r3, #28]
 80009d2:	f107 0117 	add.w	r1, r7, #23
 80009d6:	2201      	movs	r2, #1
 80009d8:	f001 f846 	bl	8001a68 <HAL_SPI_Transmit>
	HAL_SPI_Receive(SPI, rxData, len, spiTimeout);
 80009dc:	68fb      	ldr	r3, [r7, #12]
 80009de:	68d8      	ldr	r0, [r3, #12]
 80009e0:	79fb      	ldrb	r3, [r7, #7]
 80009e2:	b29a      	uxth	r2, r3
 80009e4:	68fb      	ldr	r3, [r7, #12]
 80009e6:	8b9b      	ldrh	r3, [r3, #28]
 80009e8:	68b9      	ldr	r1, [r7, #8]
 80009ea:	f001 f979 	bl	8001ce0 <HAL_SPI_Receive>
	HAL_GPIO_WritePin(PIN_BANK_SS, SS, GPIO_PIN_SET);
 80009ee:	68fb      	ldr	r3, [r7, #12]
 80009f0:	6998      	ldr	r0, [r3, #24]
 80009f2:	68fb      	ldr	r3, [r7, #12]
 80009f4:	881b      	ldrh	r3, [r3, #0]
 80009f6:	2201      	movs	r2, #1
 80009f8:	4619      	mov	r1, r3
 80009fa:	f000 fb5b 	bl	80010b4 <HAL_GPIO_WritePin>
}
 80009fe:	bf00      	nop
 8000a00:	3718      	adds	r7, #24
 8000a02:	46bd      	mov	sp, r7
 8000a04:	bd80      	pop	{r7, pc}
	...

08000a08 <_ZN6si446x11writeConfigEv>:


//Writes the configs from the radio_config_Si4463.h to the radio
//TODO include patch?
void si446x::writeConfig() {
 8000a08:	b590      	push	{r4, r7, lr}
 8000a0a:	f5ad 7d0d 	sub.w	sp, sp, #564	; 0x234
 8000a0e:	af02      	add	r7, sp, #8
 8000a10:	1d3b      	adds	r3, r7, #4
 8000a12:	6018      	str	r0, [r3, #0]
	uint8_t buf[1]= {0x00};
 8000a14:	2300      	movs	r3, #0
 8000a16:	f887 3218 	strb.w	r3, [r7, #536]	; 0x218
	uint8_t configArray[] = RADIO_CONFIGURATION_DATA_ARRAY;
 8000a1a:	f107 038c 	add.w	r3, r7, #140	; 0x8c
 8000a1e:	4a2e      	ldr	r2, [pc, #184]	; (8000ad8 <_ZN6si446x11writeConfigEv+0xd0>)
 8000a20:	4618      	mov	r0, r3
 8000a22:	4611      	mov	r1, r2
 8000a24:	f240 1389 	movw	r3, #393	; 0x189
 8000a28:	461a      	mov	r2, r3
 8000a2a:	f001 fee1 	bl	80027f0 <memcpy>
	uint8_t len = configArray[0];
 8000a2e:	f107 038c 	add.w	r3, r7, #140	; 0x8c
 8000a32:	781b      	ldrb	r3, [r3, #0]
 8000a34:	f887 3227 	strb.w	r3, [r7, #551]	; 0x227
	int arrCounter = 1;
 8000a38:	2301      	movs	r3, #1
 8000a3a:	f8c7 3220 	str.w	r3, [r7, #544]	; 0x220
	uint8_t configBuffer[128] = { 0x00 };
 8000a3e:	f107 030c 	add.w	r3, r7, #12
 8000a42:	4618      	mov	r0, r3
 8000a44:	2380      	movs	r3, #128	; 0x80
 8000a46:	461a      	mov	r2, r3
 8000a48:	2100      	movs	r1, #0
 8000a4a:	f001 fedc 	bl	8002806 <memset>
	while (len != 0) {
 8000a4e:	f897 3227 	ldrb.w	r3, [r7, #551]	; 0x227
 8000a52:	2b00      	cmp	r3, #0
 8000a54:	d03b      	beq.n	8000ace <_ZN6si446x11writeConfigEv+0xc6>
		for (int i = 0; i < len; i++) {
 8000a56:	2300      	movs	r3, #0
 8000a58:	f8c7 321c 	str.w	r3, [r7, #540]	; 0x21c
 8000a5c:	f897 3227 	ldrb.w	r3, [r7, #551]	; 0x227
 8000a60:	f8d7 221c 	ldr.w	r2, [r7, #540]	; 0x21c
 8000a64:	429a      	cmp	r2, r3
 8000a66:	da17      	bge.n	8000a98 <_ZN6si446x11writeConfigEv+0x90>
			configBuffer[i] = configArray[arrCounter];
 8000a68:	f107 028c 	add.w	r2, r7, #140	; 0x8c
 8000a6c:	f8d7 3220 	ldr.w	r3, [r7, #544]	; 0x220
 8000a70:	4413      	add	r3, r2
 8000a72:	7819      	ldrb	r1, [r3, #0]
 8000a74:	f107 020c 	add.w	r2, r7, #12
 8000a78:	f8d7 321c 	ldr.w	r3, [r7, #540]	; 0x21c
 8000a7c:	4413      	add	r3, r2
 8000a7e:	460a      	mov	r2, r1
 8000a80:	701a      	strb	r2, [r3, #0]
			arrCounter++;
 8000a82:	f8d7 3220 	ldr.w	r3, [r7, #544]	; 0x220
 8000a86:	3301      	adds	r3, #1
 8000a88:	f8c7 3220 	str.w	r3, [r7, #544]	; 0x220
		for (int i = 0; i < len; i++) {
 8000a8c:	f8d7 321c 	ldr.w	r3, [r7, #540]	; 0x21c
 8000a90:	3301      	adds	r3, #1
 8000a92:	f8c7 321c 	str.w	r3, [r7, #540]	; 0x21c
 8000a96:	e7e1      	b.n	8000a5c <_ZN6si446x11writeConfigEv+0x54>
		}
		sendComandGetResponse(configBuffer, len, buf, 0);
 8000a98:	f507 7406 	add.w	r4, r7, #536	; 0x218
 8000a9c:	f897 2227 	ldrb.w	r2, [r7, #551]	; 0x227
 8000aa0:	f107 010c 	add.w	r1, r7, #12
 8000aa4:	1d38      	adds	r0, r7, #4
 8000aa6:	2300      	movs	r3, #0
 8000aa8:	9300      	str	r3, [sp, #0]
 8000aaa:	4623      	mov	r3, r4
 8000aac:	6800      	ldr	r0, [r0, #0]
 8000aae:	f7ff fe9a 	bl	80007e6 <_ZN6si446x21sendComandGetResponseEPhhS0_h>
		//printHexArray(configBuffer, len); //DEBUG OUTPUT
		len = configArray[arrCounter];
 8000ab2:	f107 028c 	add.w	r2, r7, #140	; 0x8c
 8000ab6:	f8d7 3220 	ldr.w	r3, [r7, #544]	; 0x220
 8000aba:	4413      	add	r3, r2
 8000abc:	781b      	ldrb	r3, [r3, #0]
 8000abe:	f887 3227 	strb.w	r3, [r7, #551]	; 0x227
		arrCounter++;
 8000ac2:	f8d7 3220 	ldr.w	r3, [r7, #544]	; 0x220
 8000ac6:	3301      	adds	r3, #1
 8000ac8:	f8c7 3220 	str.w	r3, [r7, #544]	; 0x220
	while (len != 0) {
 8000acc:	e7bf      	b.n	8000a4e <_ZN6si446x11writeConfigEv+0x46>
	}
}
 8000ace:	bf00      	nop
 8000ad0:	f507 770b 	add.w	r7, r7, #556	; 0x22c
 8000ad4:	46bd      	mov	sp, r7
 8000ad6:	bd90      	pop	{r4, r7, pc}
 8000ad8:	08002838 	.word	0x08002838

08000adc <HAL_Init>:
  *         need to ensure that the SysTick time base is always set to 1 millisecond
  *         to have correct HAL operation.
  * @retval HAL status
  */
HAL_StatusTypeDef HAL_Init(void)
{
 8000adc:	b580      	push	{r7, lr}
 8000ade:	af00      	add	r7, sp, #0
    defined(STM32F102x6) || defined(STM32F102xB) || \
    defined(STM32F103x6) || defined(STM32F103xB) || defined(STM32F103xE) || defined(STM32F103xG) || \
    defined(STM32F105xC) || defined(STM32F107xC)

  /* Prefetch buffer is not available on value line devices */
  __HAL_FLASH_PREFETCH_BUFFER_ENABLE();
 8000ae0:	4b08      	ldr	r3, [pc, #32]	; (8000b04 <HAL_Init+0x28>)
 8000ae2:	681b      	ldr	r3, [r3, #0]
 8000ae4:	4a07      	ldr	r2, [pc, #28]	; (8000b04 <HAL_Init+0x28>)
 8000ae6:	f043 0310 	orr.w	r3, r3, #16
 8000aea:	6013      	str	r3, [r2, #0]
#endif
#endif /* PREFETCH_ENABLE */

  /* Set Interrupt Group Priority */
  HAL_NVIC_SetPriorityGrouping(NVIC_PRIORITYGROUP_4);
 8000aec:	2003      	movs	r0, #3
 8000aee:	f000 f945 	bl	8000d7c <HAL_NVIC_SetPriorityGrouping>

  /* Use systick as time base source and configure 1ms tick (default clock after Reset is HSI) */
  HAL_InitTick(TICK_INT_PRIORITY);
 8000af2:	2000      	movs	r0, #0
 8000af4:	f000 f808 	bl	8000b08 <HAL_InitTick>

  /* Init the low level hardware */
  HAL_MspInit();
 8000af8:	f7ff fcb0 	bl	800045c <HAL_MspInit>

  /* Return function status */
  return HAL_OK;
 8000afc:	2300      	movs	r3, #0
}
 8000afe:	4618      	mov	r0, r3
 8000b00:	bd80      	pop	{r7, pc}
 8000b02:	bf00      	nop
 8000b04:	40022000 	.word	0x40022000

08000b08 <HAL_InitTick>:
  *       implementation  in user file.
  * @param TickPriority Tick interrupt priority.
  * @retval HAL status
  */
__weak HAL_StatusTypeDef HAL_InitTick(uint32_t TickPriority)
{
 8000b08:	b580      	push	{r7, lr}
 8000b0a:	b082      	sub	sp, #8
 8000b0c:	af00      	add	r7, sp, #0
 8000b0e:	6078      	str	r0, [r7, #4]
  /* Configure the SysTick to have interrupt in 1ms time basis*/
  if (HAL_SYSTICK_Config(SystemCoreClock / (1000U / uwTickFreq)) > 0U)
 8000b10:	4b12      	ldr	r3, [pc, #72]	; (8000b5c <HAL_InitTick+0x54>)
 8000b12:	681a      	ldr	r2, [r3, #0]
 8000b14:	4b12      	ldr	r3, [pc, #72]	; (8000b60 <HAL_InitTick+0x58>)
 8000b16:	781b      	ldrb	r3, [r3, #0]
 8000b18:	4619      	mov	r1, r3
 8000b1a:	f44f 737a 	mov.w	r3, #1000	; 0x3e8
 8000b1e:	fbb3 f3f1 	udiv	r3, r3, r1
 8000b22:	fbb2 f3f3 	udiv	r3, r2, r3
 8000b26:	4618      	mov	r0, r3
 8000b28:	f000 f95d 	bl	8000de6 <HAL_SYSTICK_Config>
 8000b2c:	4603      	mov	r3, r0
 8000b2e:	2b00      	cmp	r3, #0
 8000b30:	d001      	beq.n	8000b36 <HAL_InitTick+0x2e>
  {
    return HAL_ERROR;
 8000b32:	2301      	movs	r3, #1
 8000b34:	e00e      	b.n	8000b54 <HAL_InitTick+0x4c>
  }

  /* Configure the SysTick IRQ priority */
  if (TickPriority < (1UL << __NVIC_PRIO_BITS))
 8000b36:	687b      	ldr	r3, [r7, #4]
 8000b38:	2b0f      	cmp	r3, #15
 8000b3a:	d80a      	bhi.n	8000b52 <HAL_InitTick+0x4a>
  {
    HAL_NVIC_SetPriority(SysTick_IRQn, TickPriority, 0U);
 8000b3c:	2200      	movs	r2, #0
 8000b3e:	6879      	ldr	r1, [r7, #4]
 8000b40:	f04f 30ff 	mov.w	r0, #4294967295
 8000b44:	f000 f925 	bl	8000d92 <HAL_NVIC_SetPriority>
    uwTickPrio = TickPriority;
 8000b48:	4a06      	ldr	r2, [pc, #24]	; (8000b64 <HAL_InitTick+0x5c>)
 8000b4a:	687b      	ldr	r3, [r7, #4]
 8000b4c:	6013      	str	r3, [r2, #0]
  {
    return HAL_ERROR;
  }

  /* Return function status */
  return HAL_OK;
 8000b4e:	2300      	movs	r3, #0
 8000b50:	e000      	b.n	8000b54 <HAL_InitTick+0x4c>
    return HAL_ERROR;
 8000b52:	2301      	movs	r3, #1
}
 8000b54:	4618      	mov	r0, r3
 8000b56:	3708      	adds	r7, #8
 8000b58:	46bd      	mov	sp, r7
 8000b5a:	bd80      	pop	{r7, pc}
 8000b5c:	20000000 	.word	0x20000000
 8000b60:	20000008 	.word	0x20000008
 8000b64:	20000004 	.word	0x20000004

08000b68 <HAL_IncTick>:
  * @note This function is declared as __weak to be overwritten in case of other
  *      implementations in user file.
  * @retval None
  */
__weak void HAL_IncTick(void)
{
 8000b68:	b480      	push	{r7}
 8000b6a:	af00      	add	r7, sp, #0
  uwTick += uwTickFreq;
 8000b6c:	4b05      	ldr	r3, [pc, #20]	; (8000b84 <HAL_IncTick+0x1c>)
 8000b6e:	781b      	ldrb	r3, [r3, #0]
 8000b70:	461a      	mov	r2, r3
 8000b72:	4b05      	ldr	r3, [pc, #20]	; (8000b88 <HAL_IncTick+0x20>)
 8000b74:	681b      	ldr	r3, [r3, #0]
 8000b76:	4413      	add	r3, r2
 8000b78:	4a03      	ldr	r2, [pc, #12]	; (8000b88 <HAL_IncTick+0x20>)
 8000b7a:	6013      	str	r3, [r2, #0]
}
 8000b7c:	bf00      	nop
 8000b7e:	46bd      	mov	sp, r7
 8000b80:	bc80      	pop	{r7}
 8000b82:	4770      	bx	lr
 8000b84:	20000008 	.word	0x20000008
 8000b88:	20000108 	.word	0x20000108

08000b8c <HAL_GetTick>:
  * @note  This function is declared as __weak to be overwritten in case of other
  *       implementations in user file.
  * @retval tick value
  */
__weak uint32_t HAL_GetTick(void)
{
 8000b8c:	b480      	push	{r7}
 8000b8e:	af00      	add	r7, sp, #0
  return uwTick;
 8000b90:	4b02      	ldr	r3, [pc, #8]	; (8000b9c <HAL_GetTick+0x10>)
 8000b92:	681b      	ldr	r3, [r3, #0]
}
 8000b94:	4618      	mov	r0, r3
 8000b96:	46bd      	mov	sp, r7
 8000b98:	bc80      	pop	{r7}
 8000b9a:	4770      	bx	lr
 8000b9c:	20000108 	.word	0x20000108

08000ba0 <HAL_Delay>:
  *       implementations in user file.
  * @param Delay specifies the delay time length, in milliseconds.
  * @retval None
  */
__weak void HAL_Delay(uint32_t Delay)
{
 8000ba0:	b580      	push	{r7, lr}
 8000ba2:	b084      	sub	sp, #16
 8000ba4:	af00      	add	r7, sp, #0
 8000ba6:	6078      	str	r0, [r7, #4]
  uint32_t tickstart = HAL_GetTick();
 8000ba8:	f7ff fff0 	bl	8000b8c <HAL_GetTick>
 8000bac:	60b8      	str	r0, [r7, #8]
  uint32_t wait = Delay;
 8000bae:	687b      	ldr	r3, [r7, #4]
 8000bb0:	60fb      	str	r3, [r7, #12]

  /* Add a freq to guarantee minimum wait */
  if (wait < HAL_MAX_DELAY)
 8000bb2:	68fb      	ldr	r3, [r7, #12]
 8000bb4:	f1b3 3fff 	cmp.w	r3, #4294967295
 8000bb8:	d005      	beq.n	8000bc6 <HAL_Delay+0x26>
  {
    wait += (uint32_t)(uwTickFreq);
 8000bba:	4b09      	ldr	r3, [pc, #36]	; (8000be0 <HAL_Delay+0x40>)
 8000bbc:	781b      	ldrb	r3, [r3, #0]
 8000bbe:	461a      	mov	r2, r3
 8000bc0:	68fb      	ldr	r3, [r7, #12]
 8000bc2:	4413      	add	r3, r2
 8000bc4:	60fb      	str	r3, [r7, #12]
  }

  while ((HAL_GetTick() - tickstart) < wait)
 8000bc6:	bf00      	nop
 8000bc8:	f7ff ffe0 	bl	8000b8c <HAL_GetTick>
 8000bcc:	4602      	mov	r2, r0
 8000bce:	68bb      	ldr	r3, [r7, #8]
 8000bd0:	1ad3      	subs	r3, r2, r3
 8000bd2:	68fa      	ldr	r2, [r7, #12]
 8000bd4:	429a      	cmp	r2, r3
 8000bd6:	d8f7      	bhi.n	8000bc8 <HAL_Delay+0x28>
  {
  }
}
 8000bd8:	bf00      	nop
 8000bda:	3710      	adds	r7, #16
 8000bdc:	46bd      	mov	sp, r7
 8000bde:	bd80      	pop	{r7, pc}
 8000be0:	20000008 	.word	0x20000008

08000be4 <__NVIC_SetPriorityGrouping>:
           In case of a conflict between priority grouping and available
           priority bits (__NVIC_PRIO_BITS), the smallest possible priority group is set.
  \param [in]      PriorityGroup  Priority grouping field.
 */
__STATIC_INLINE void __NVIC_SetPriorityGrouping(uint32_t PriorityGroup)
{
 8000be4:	b480      	push	{r7}
 8000be6:	b085      	sub	sp, #20
 8000be8:	af00      	add	r7, sp, #0
 8000bea:	6078      	str	r0, [r7, #4]
  uint32_t reg_value;
  uint32_t PriorityGroupTmp = (PriorityGroup & (uint32_t)0x07UL);             /* only values 0..7 are used          */
 8000bec:	687b      	ldr	r3, [r7, #4]
 8000bee:	f003 0307 	and.w	r3, r3, #7
 8000bf2:	60fb      	str	r3, [r7, #12]

  reg_value  =  SCB->AIRCR;                                                   /* read old register configuration    */
 8000bf4:	4b0c      	ldr	r3, [pc, #48]	; (8000c28 <__NVIC_SetPriorityGrouping+0x44>)
 8000bf6:	68db      	ldr	r3, [r3, #12]
 8000bf8:	60bb      	str	r3, [r7, #8]
  reg_value &= ~((uint32_t)(SCB_AIRCR_VECTKEY_Msk | SCB_AIRCR_PRIGROUP_Msk)); /* clear bits to change               */
 8000bfa:	68ba      	ldr	r2, [r7, #8]
 8000bfc:	f64f 03ff 	movw	r3, #63743	; 0xf8ff
 8000c00:	4013      	ands	r3, r2
 8000c02:	60bb      	str	r3, [r7, #8]
  reg_value  =  (reg_value                                   |
                ((uint32_t)0x5FAUL << SCB_AIRCR_VECTKEY_Pos) |
                (PriorityGroupTmp << SCB_AIRCR_PRIGROUP_Pos) );               /* Insert write key and priority group */
 8000c04:	68fb      	ldr	r3, [r7, #12]
 8000c06:	021a      	lsls	r2, r3, #8
                ((uint32_t)0x5FAUL << SCB_AIRCR_VECTKEY_Pos) |
 8000c08:	68bb      	ldr	r3, [r7, #8]
 8000c0a:	4313      	orrs	r3, r2
  reg_value  =  (reg_value                                   |
 8000c0c:	f043 63bf 	orr.w	r3, r3, #100139008	; 0x5f80000
 8000c10:	f443 3300 	orr.w	r3, r3, #131072	; 0x20000
 8000c14:	60bb      	str	r3, [r7, #8]
  SCB->AIRCR =  reg_value;
 8000c16:	4a04      	ldr	r2, [pc, #16]	; (8000c28 <__NVIC_SetPriorityGrouping+0x44>)
 8000c18:	68bb      	ldr	r3, [r7, #8]
 8000c1a:	60d3      	str	r3, [r2, #12]
}
 8000c1c:	bf00      	nop
 8000c1e:	3714      	adds	r7, #20
 8000c20:	46bd      	mov	sp, r7
 8000c22:	bc80      	pop	{r7}
 8000c24:	4770      	bx	lr
 8000c26:	bf00      	nop
 8000c28:	e000ed00 	.word	0xe000ed00

08000c2c <__NVIC_GetPriorityGrouping>:
  \brief   Get Priority Grouping
  \details Reads the priority grouping field from the NVIC Interrupt Controller.
  \return                Priority grouping field (SCB->AIRCR [10:8] PRIGROUP field).
 */
__STATIC_INLINE uint32_t __NVIC_GetPriorityGrouping(void)
{
 8000c2c:	b480      	push	{r7}
 8000c2e:	af00      	add	r7, sp, #0
  return ((uint32_t)((SCB->AIRCR & SCB_AIRCR_PRIGROUP_Msk) >> SCB_AIRCR_PRIGROUP_Pos));
 8000c30:	4b04      	ldr	r3, [pc, #16]	; (8000c44 <__NVIC_GetPriorityGrouping+0x18>)
 8000c32:	68db      	ldr	r3, [r3, #12]
 8000c34:	0a1b      	lsrs	r3, r3, #8
 8000c36:	f003 0307 	and.w	r3, r3, #7
}
 8000c3a:	4618      	mov	r0, r3
 8000c3c:	46bd      	mov	sp, r7
 8000c3e:	bc80      	pop	{r7}
 8000c40:	4770      	bx	lr
 8000c42:	bf00      	nop
 8000c44:	e000ed00 	.word	0xe000ed00

08000c48 <__NVIC_EnableIRQ>:
  \details Enables a device specific interrupt in the NVIC interrupt controller.
  \param [in]      IRQn  Device specific interrupt number.
  \note    IRQn must not be negative.
 */
__STATIC_INLINE void __NVIC_EnableIRQ(IRQn_Type IRQn)
{
 8000c48:	b480      	push	{r7}
 8000c4a:	b083      	sub	sp, #12
 8000c4c:	af00      	add	r7, sp, #0
 8000c4e:	4603      	mov	r3, r0
 8000c50:	71fb      	strb	r3, [r7, #7]
  if ((int32_t)(IRQn) >= 0)
 8000c52:	f997 3007 	ldrsb.w	r3, [r7, #7]
 8000c56:	2b00      	cmp	r3, #0
 8000c58:	db0b      	blt.n	8000c72 <__NVIC_EnableIRQ+0x2a>
  {
    NVIC->ISER[(((uint32_t)IRQn) >> 5UL)] = (uint32_t)(1UL << (((uint32_t)IRQn) & 0x1FUL));
 8000c5a:	79fb      	ldrb	r3, [r7, #7]
 8000c5c:	f003 021f 	and.w	r2, r3, #31
 8000c60:	4906      	ldr	r1, [pc, #24]	; (8000c7c <__NVIC_EnableIRQ+0x34>)
 8000c62:	f997 3007 	ldrsb.w	r3, [r7, #7]
 8000c66:	095b      	lsrs	r3, r3, #5
 8000c68:	2001      	movs	r0, #1
 8000c6a:	fa00 f202 	lsl.w	r2, r0, r2
 8000c6e:	f841 2023 	str.w	r2, [r1, r3, lsl #2]
  }
}
 8000c72:	bf00      	nop
 8000c74:	370c      	adds	r7, #12
 8000c76:	46bd      	mov	sp, r7
 8000c78:	bc80      	pop	{r7}
 8000c7a:	4770      	bx	lr
 8000c7c:	e000e100 	.word	0xe000e100

08000c80 <__NVIC_SetPriority>:
  \param [in]      IRQn  Interrupt number.
  \param [in]  priority  Priority to set.
  \note    The priority cannot be set for every processor exception.
 */
__STATIC_INLINE void __NVIC_SetPriority(IRQn_Type IRQn, uint32_t priority)
{
 8000c80:	b480      	push	{r7}
 8000c82:	b083      	sub	sp, #12
 8000c84:	af00      	add	r7, sp, #0
 8000c86:	4603      	mov	r3, r0
 8000c88:	6039      	str	r1, [r7, #0]
 8000c8a:	71fb      	strb	r3, [r7, #7]
  if ((int32_t)(IRQn) >= 0)
 8000c8c:	f997 3007 	ldrsb.w	r3, [r7, #7]
 8000c90:	2b00      	cmp	r3, #0
 8000c92:	db0a      	blt.n	8000caa <__NVIC_SetPriority+0x2a>
  {
    NVIC->IP[((uint32_t)IRQn)]               = (uint8_t)((priority << (8U - __NVIC_PRIO_BITS)) & (uint32_t)0xFFUL);
 8000c94:	683b      	ldr	r3, [r7, #0]
 8000c96:	b2da      	uxtb	r2, r3
 8000c98:	490c      	ldr	r1, [pc, #48]	; (8000ccc <__NVIC_SetPriority+0x4c>)
 8000c9a:	f997 3007 	ldrsb.w	r3, [r7, #7]
 8000c9e:	0112      	lsls	r2, r2, #4
 8000ca0:	b2d2      	uxtb	r2, r2
 8000ca2:	440b      	add	r3, r1
 8000ca4:	f883 2300 	strb.w	r2, [r3, #768]	; 0x300
  }
  else
  {
    SCB->SHP[(((uint32_t)IRQn) & 0xFUL)-4UL] = (uint8_t)((priority << (8U - __NVIC_PRIO_BITS)) & (uint32_t)0xFFUL);
  }
}
 8000ca8:	e00a      	b.n	8000cc0 <__NVIC_SetPriority+0x40>
    SCB->SHP[(((uint32_t)IRQn) & 0xFUL)-4UL] = (uint8_t)((priority << (8U - __NVIC_PRIO_BITS)) & (uint32_t)0xFFUL);
 8000caa:	683b      	ldr	r3, [r7, #0]
 8000cac:	b2da      	uxtb	r2, r3
 8000cae:	4908      	ldr	r1, [pc, #32]	; (8000cd0 <__NVIC_SetPriority+0x50>)
 8000cb0:	79fb      	ldrb	r3, [r7, #7]
 8000cb2:	f003 030f 	and.w	r3, r3, #15
 8000cb6:	3b04      	subs	r3, #4
 8000cb8:	0112      	lsls	r2, r2, #4
 8000cba:	b2d2      	uxtb	r2, r2
 8000cbc:	440b      	add	r3, r1
 8000cbe:	761a      	strb	r2, [r3, #24]
}
 8000cc0:	bf00      	nop
 8000cc2:	370c      	adds	r7, #12
 8000cc4:	46bd      	mov	sp, r7
 8000cc6:	bc80      	pop	{r7}
 8000cc8:	4770      	bx	lr
 8000cca:	bf00      	nop
 8000ccc:	e000e100 	.word	0xe000e100
 8000cd0:	e000ed00 	.word	0xe000ed00

08000cd4 <NVIC_EncodePriority>:
  \param [in]   PreemptPriority  Preemptive priority value (starting from 0).
  \param [in]       SubPriority  Subpriority value (starting from 0).
  \return                        Encoded priority. Value can be used in the function \ref NVIC_SetPriority().
 */
__STATIC_INLINE uint32_t NVIC_EncodePriority (uint32_t PriorityGroup, uint32_t PreemptPriority, uint32_t SubPriority)
{
 8000cd4:	b480      	push	{r7}
 8000cd6:	b089      	sub	sp, #36	; 0x24
 8000cd8:	af00      	add	r7, sp, #0
 8000cda:	60f8      	str	r0, [r7, #12]
 8000cdc:	60b9      	str	r1, [r7, #8]
 8000cde:	607a      	str	r2, [r7, #4]
  uint32_t PriorityGroupTmp = (PriorityGroup & (uint32_t)0x07UL);   /* only values 0..7 are used          */
 8000ce0:	68fb      	ldr	r3, [r7, #12]
 8000ce2:	f003 0307 	and.w	r3, r3, #7
 8000ce6:	61fb      	str	r3, [r7, #28]
  uint32_t PreemptPriorityBits;
  uint32_t SubPriorityBits;

  PreemptPriorityBits = ((7UL - PriorityGroupTmp) > (uint32_t)(__NVIC_PRIO_BITS)) ? (uint32_t)(__NVIC_PRIO_BITS) : (uint32_t)(7UL - PriorityGroupTmp);
 8000ce8:	69fb      	ldr	r3, [r7, #28]
 8000cea:	f1c3 0307 	rsb	r3, r3, #7
 8000cee:	2b04      	cmp	r3, #4
 8000cf0:	bf28      	it	cs
 8000cf2:	2304      	movcs	r3, #4
 8000cf4:	61bb      	str	r3, [r7, #24]
  SubPriorityBits     = ((PriorityGroupTmp + (uint32_t)(__NVIC_PRIO_BITS)) < (uint32_t)7UL) ? (uint32_t)0UL : (uint32_t)((PriorityGroupTmp - 7UL) + (uint32_t)(__NVIC_PRIO_BITS));
 8000cf6:	69fb      	ldr	r3, [r7, #28]
 8000cf8:	3304      	adds	r3, #4
 8000cfa:	2b06      	cmp	r3, #6
 8000cfc:	d902      	bls.n	8000d04 <NVIC_EncodePriority+0x30>
 8000cfe:	69fb      	ldr	r3, [r7, #28]
 8000d00:	3b03      	subs	r3, #3
 8000d02:	e000      	b.n	8000d06 <NVIC_EncodePriority+0x32>
 8000d04:	2300      	movs	r3, #0
 8000d06:	617b      	str	r3, [r7, #20]

  return (
           ((PreemptPriority & (uint32_t)((1UL << (PreemptPriorityBits)) - 1UL)) << SubPriorityBits) |
 8000d08:	f04f 32ff 	mov.w	r2, #4294967295
 8000d0c:	69bb      	ldr	r3, [r7, #24]
 8000d0e:	fa02 f303 	lsl.w	r3, r2, r3
 8000d12:	43da      	mvns	r2, r3
 8000d14:	68bb      	ldr	r3, [r7, #8]
 8000d16:	401a      	ands	r2, r3
 8000d18:	697b      	ldr	r3, [r7, #20]
 8000d1a:	409a      	lsls	r2, r3
           ((SubPriority     & (uint32_t)((1UL << (SubPriorityBits    )) - 1UL)))
 8000d1c:	f04f 31ff 	mov.w	r1, #4294967295
 8000d20:	697b      	ldr	r3, [r7, #20]
 8000d22:	fa01 f303 	lsl.w	r3, r1, r3
 8000d26:	43d9      	mvns	r1, r3
 8000d28:	687b      	ldr	r3, [r7, #4]
 8000d2a:	400b      	ands	r3, r1
           ((PreemptPriority & (uint32_t)((1UL << (PreemptPriorityBits)) - 1UL)) << SubPriorityBits) |
 8000d2c:	4313      	orrs	r3, r2
         );
}
 8000d2e:	4618      	mov	r0, r3
 8000d30:	3724      	adds	r7, #36	; 0x24
 8000d32:	46bd      	mov	sp, r7
 8000d34:	bc80      	pop	{r7}
 8000d36:	4770      	bx	lr

08000d38 <SysTick_Config>:
  \note    When the variable <b>__Vendor_SysTickConfig</b> is set to 1, then the
           function <b>SysTick_Config</b> is not included. In this case, the file <b><i>device</i>.h</b>
           must contain a vendor-specific implementation of this function.
 */
__STATIC_INLINE uint32_t SysTick_Config(uint32_t ticks)
{
 8000d38:	b580      	push	{r7, lr}
 8000d3a:	b082      	sub	sp, #8
 8000d3c:	af00      	add	r7, sp, #0
 8000d3e:	6078      	str	r0, [r7, #4]
  if ((ticks - 1UL) > SysTick_LOAD_RELOAD_Msk)
 8000d40:	687b      	ldr	r3, [r7, #4]
 8000d42:	3b01      	subs	r3, #1
 8000d44:	f1b3 7f80 	cmp.w	r3, #16777216	; 0x1000000
 8000d48:	d301      	bcc.n	8000d4e <SysTick_Config+0x16>
  {
    return (1UL);                                                   /* Reload value impossible */
 8000d4a:	2301      	movs	r3, #1
 8000d4c:	e00f      	b.n	8000d6e <SysTick_Config+0x36>
  }

  SysTick->LOAD  = (uint32_t)(ticks - 1UL);                         /* set reload register */
 8000d4e:	4a0a      	ldr	r2, [pc, #40]	; (8000d78 <SysTick_Config+0x40>)
 8000d50:	687b      	ldr	r3, [r7, #4]
 8000d52:	3b01      	subs	r3, #1
 8000d54:	6053      	str	r3, [r2, #4]
  NVIC_SetPriority (SysTick_IRQn, (1UL << __NVIC_PRIO_BITS) - 1UL); /* set Priority for Systick Interrupt */
 8000d56:	210f      	movs	r1, #15
 8000d58:	f04f 30ff 	mov.w	r0, #4294967295
 8000d5c:	f7ff ff90 	bl	8000c80 <__NVIC_SetPriority>
  SysTick->VAL   = 0UL;                                             /* Load the SysTick Counter Value */
 8000d60:	4b05      	ldr	r3, [pc, #20]	; (8000d78 <SysTick_Config+0x40>)
 8000d62:	2200      	movs	r2, #0
 8000d64:	609a      	str	r2, [r3, #8]
  SysTick->CTRL  = SysTick_CTRL_CLKSOURCE_Msk |
 8000d66:	4b04      	ldr	r3, [pc, #16]	; (8000d78 <SysTick_Config+0x40>)
 8000d68:	2207      	movs	r2, #7
 8000d6a:	601a      	str	r2, [r3, #0]
                   SysTick_CTRL_TICKINT_Msk   |
                   SysTick_CTRL_ENABLE_Msk;                         /* Enable SysTick IRQ and SysTick Timer */
  return (0UL);                                                     /* Function successful */
 8000d6c:	2300      	movs	r3, #0
}
 8000d6e:	4618      	mov	r0, r3
 8000d70:	3708      	adds	r7, #8
 8000d72:	46bd      	mov	sp, r7
 8000d74:	bd80      	pop	{r7, pc}
 8000d76:	bf00      	nop
 8000d78:	e000e010 	.word	0xe000e010

08000d7c <HAL_NVIC_SetPriorityGrouping>:
  * @note   When the NVIC_PriorityGroup_0 is selected, IRQ preemption is no more possible. 
  *         The pending IRQ priority will be managed only by the subpriority. 
  * @retval None
  */
void HAL_NVIC_SetPriorityGrouping(uint32_t PriorityGroup)
{
 8000d7c:	b580      	push	{r7, lr}
 8000d7e:	b082      	sub	sp, #8
 8000d80:	af00      	add	r7, sp, #0
 8000d82:	6078      	str	r0, [r7, #4]
  /* Check the parameters */
  assert_param(IS_NVIC_PRIORITY_GROUP(PriorityGroup));
  
  /* Set the PRIGROUP[10:8] bits according to the PriorityGroup parameter value */
  NVIC_SetPriorityGrouping(PriorityGroup);
 8000d84:	6878      	ldr	r0, [r7, #4]
 8000d86:	f7ff ff2d 	bl	8000be4 <__NVIC_SetPriorityGrouping>
}
 8000d8a:	bf00      	nop
 8000d8c:	3708      	adds	r7, #8
 8000d8e:	46bd      	mov	sp, r7
 8000d90:	bd80      	pop	{r7, pc}

08000d92 <HAL_NVIC_SetPriority>:
  *         This parameter can be a value between 0 and 15
  *         A lower priority value indicates a higher priority.          
  * @retval None
  */
void HAL_NVIC_SetPriority(IRQn_Type IRQn, uint32_t PreemptPriority, uint32_t SubPriority)
{ 
 8000d92:	b580      	push	{r7, lr}
 8000d94:	b086      	sub	sp, #24
 8000d96:	af00      	add	r7, sp, #0
 8000d98:	4603      	mov	r3, r0
 8000d9a:	60b9      	str	r1, [r7, #8]
 8000d9c:	607a      	str	r2, [r7, #4]
 8000d9e:	73fb      	strb	r3, [r7, #15]
  uint32_t prioritygroup = 0x00U;
 8000da0:	2300      	movs	r3, #0
 8000da2:	617b      	str	r3, [r7, #20]
  
  /* Check the parameters */
  assert_param(IS_NVIC_SUB_PRIORITY(SubPriority));
  assert_param(IS_NVIC_PREEMPTION_PRIORITY(PreemptPriority));
  
  prioritygroup = NVIC_GetPriorityGrouping();
 8000da4:	f7ff ff42 	bl	8000c2c <__NVIC_GetPriorityGrouping>
 8000da8:	6178      	str	r0, [r7, #20]
  
  NVIC_SetPriority(IRQn, NVIC_EncodePriority(prioritygroup, PreemptPriority, SubPriority));
 8000daa:	687a      	ldr	r2, [r7, #4]
 8000dac:	68b9      	ldr	r1, [r7, #8]
 8000dae:	6978      	ldr	r0, [r7, #20]
 8000db0:	f7ff ff90 	bl	8000cd4 <NVIC_EncodePriority>
 8000db4:	4602      	mov	r2, r0
 8000db6:	f997 300f 	ldrsb.w	r3, [r7, #15]
 8000dba:	4611      	mov	r1, r2
 8000dbc:	4618      	mov	r0, r3
 8000dbe:	f7ff ff5f 	bl	8000c80 <__NVIC_SetPriority>
}
 8000dc2:	bf00      	nop
 8000dc4:	3718      	adds	r7, #24
 8000dc6:	46bd      	mov	sp, r7
 8000dc8:	bd80      	pop	{r7, pc}

08000dca <HAL_NVIC_EnableIRQ>:
  *         This parameter can be an enumerator of IRQn_Type enumeration
  *         (For the complete STM32 Devices IRQ Channels list, please refer to the appropriate CMSIS device file (stm32f10xxx.h))
  * @retval None
  */
void HAL_NVIC_EnableIRQ(IRQn_Type IRQn)
{
 8000dca:	b580      	push	{r7, lr}
 8000dcc:	b082      	sub	sp, #8
 8000dce:	af00      	add	r7, sp, #0
 8000dd0:	4603      	mov	r3, r0
 8000dd2:	71fb      	strb	r3, [r7, #7]
  /* Check the parameters */
  assert_param(IS_NVIC_DEVICE_IRQ(IRQn));

  /* Enable interrupt */
  NVIC_EnableIRQ(IRQn);
 8000dd4:	f997 3007 	ldrsb.w	r3, [r7, #7]
 8000dd8:	4618      	mov	r0, r3
 8000dda:	f7ff ff35 	bl	8000c48 <__NVIC_EnableIRQ>
}
 8000dde:	bf00      	nop
 8000de0:	3708      	adds	r7, #8
 8000de2:	46bd      	mov	sp, r7
 8000de4:	bd80      	pop	{r7, pc}

08000de6 <HAL_SYSTICK_Config>:
  * @param  TicksNumb: Specifies the ticks Number of ticks between two interrupts.
  * @retval status:  - 0  Function succeeded.
  *                  - 1  Function failed.
  */
uint32_t HAL_SYSTICK_Config(uint32_t TicksNumb)
{
 8000de6:	b580      	push	{r7, lr}
 8000de8:	b082      	sub	sp, #8
 8000dea:	af00      	add	r7, sp, #0
 8000dec:	6078      	str	r0, [r7, #4]
   return SysTick_Config(TicksNumb);
 8000dee:	6878      	ldr	r0, [r7, #4]
 8000df0:	f7ff ffa2 	bl	8000d38 <SysTick_Config>
 8000df4:	4603      	mov	r3, r0
}
 8000df6:	4618      	mov	r0, r3
 8000df8:	3708      	adds	r7, #8
 8000dfa:	46bd      	mov	sp, r7
 8000dfc:	bd80      	pop	{r7, pc}
	...

08000e00 <HAL_GPIO_Init>:
  * @param  GPIO_Init: pointer to a GPIO_InitTypeDef structure that contains
  *         the configuration information for the specified GPIO peripheral.
  * @retval None
  */
void HAL_GPIO_Init(GPIO_TypeDef  *GPIOx, GPIO_InitTypeDef *GPIO_Init)
{
 8000e00:	b480      	push	{r7}
 8000e02:	b08b      	sub	sp, #44	; 0x2c
 8000e04:	af00      	add	r7, sp, #0
 8000e06:	6078      	str	r0, [r7, #4]
 8000e08:	6039      	str	r1, [r7, #0]
  uint32_t position = 0x00u;
 8000e0a:	2300      	movs	r3, #0
 8000e0c:	627b      	str	r3, [r7, #36]	; 0x24
  uint32_t ioposition;
  uint32_t iocurrent;
  uint32_t temp;
  uint32_t config = 0x00u;
 8000e0e:	2300      	movs	r3, #0
 8000e10:	623b      	str	r3, [r7, #32]
  assert_param(IS_GPIO_ALL_INSTANCE(GPIOx));
  assert_param(IS_GPIO_PIN(GPIO_Init->Pin));
  assert_param(IS_GPIO_MODE(GPIO_Init->Mode));

  /* Configure the port pins */
  while (((GPIO_Init->Pin) >> position) != 0x00u)
 8000e12:	e127      	b.n	8001064 <HAL_GPIO_Init+0x264>
  {
    /* Get the IO position */
    ioposition = (0x01uL << position);
 8000e14:	2201      	movs	r2, #1
 8000e16:	6a7b      	ldr	r3, [r7, #36]	; 0x24
 8000e18:	fa02 f303 	lsl.w	r3, r2, r3
 8000e1c:	61fb      	str	r3, [r7, #28]

    /* Get the current IO position */
    iocurrent = (uint32_t)(GPIO_Init->Pin) & ioposition;
 8000e1e:	683b      	ldr	r3, [r7, #0]
 8000e20:	681b      	ldr	r3, [r3, #0]
 8000e22:	69fa      	ldr	r2, [r7, #28]
 8000e24:	4013      	ands	r3, r2
 8000e26:	61bb      	str	r3, [r7, #24]

    if (iocurrent == ioposition)
 8000e28:	69ba      	ldr	r2, [r7, #24]
 8000e2a:	69fb      	ldr	r3, [r7, #28]
 8000e2c:	429a      	cmp	r2, r3
 8000e2e:	f040 8116 	bne.w	800105e <HAL_GPIO_Init+0x25e>
    {
      /* Check the Alternate function parameters */
      assert_param(IS_GPIO_AF_INSTANCE(GPIOx));

      /* Based on the required mode, filling config variable with MODEy[1:0] and CNFy[3:2] corresponding bits */
      switch (GPIO_Init->Mode)
 8000e32:	683b      	ldr	r3, [r7, #0]
 8000e34:	685b      	ldr	r3, [r3, #4]
 8000e36:	2b12      	cmp	r3, #18
 8000e38:	d034      	beq.n	8000ea4 <HAL_GPIO_Init+0xa4>
 8000e3a:	2b12      	cmp	r3, #18
 8000e3c:	d80d      	bhi.n	8000e5a <HAL_GPIO_Init+0x5a>
 8000e3e:	2b02      	cmp	r3, #2
 8000e40:	d02b      	beq.n	8000e9a <HAL_GPIO_Init+0x9a>
 8000e42:	2b02      	cmp	r3, #2
 8000e44:	d804      	bhi.n	8000e50 <HAL_GPIO_Init+0x50>
 8000e46:	2b00      	cmp	r3, #0
 8000e48:	d031      	beq.n	8000eae <HAL_GPIO_Init+0xae>
 8000e4a:	2b01      	cmp	r3, #1
 8000e4c:	d01c      	beq.n	8000e88 <HAL_GPIO_Init+0x88>
          config = GPIO_CR_MODE_INPUT + GPIO_CR_CNF_ANALOG;
          break;

        /* Parameters are checked with assert_param */
        default:
          break;
 8000e4e:	e048      	b.n	8000ee2 <HAL_GPIO_Init+0xe2>
      switch (GPIO_Init->Mode)
 8000e50:	2b03      	cmp	r3, #3
 8000e52:	d043      	beq.n	8000edc <HAL_GPIO_Init+0xdc>
 8000e54:	2b11      	cmp	r3, #17
 8000e56:	d01b      	beq.n	8000e90 <HAL_GPIO_Init+0x90>
          break;
 8000e58:	e043      	b.n	8000ee2 <HAL_GPIO_Init+0xe2>
      switch (GPIO_Init->Mode)
 8000e5a:	4a89      	ldr	r2, [pc, #548]	; (8001080 <HAL_GPIO_Init+0x280>)
 8000e5c:	4293      	cmp	r3, r2
 8000e5e:	d026      	beq.n	8000eae <HAL_GPIO_Init+0xae>
 8000e60:	4a87      	ldr	r2, [pc, #540]	; (8001080 <HAL_GPIO_Init+0x280>)
 8000e62:	4293      	cmp	r3, r2
 8000e64:	d806      	bhi.n	8000e74 <HAL_GPIO_Init+0x74>
 8000e66:	4a87      	ldr	r2, [pc, #540]	; (8001084 <HAL_GPIO_Init+0x284>)
 8000e68:	4293      	cmp	r3, r2
 8000e6a:	d020      	beq.n	8000eae <HAL_GPIO_Init+0xae>
 8000e6c:	4a86      	ldr	r2, [pc, #536]	; (8001088 <HAL_GPIO_Init+0x288>)
 8000e6e:	4293      	cmp	r3, r2
 8000e70:	d01d      	beq.n	8000eae <HAL_GPIO_Init+0xae>
          break;
 8000e72:	e036      	b.n	8000ee2 <HAL_GPIO_Init+0xe2>
      switch (GPIO_Init->Mode)
 8000e74:	4a85      	ldr	r2, [pc, #532]	; (800108c <HAL_GPIO_Init+0x28c>)
 8000e76:	4293      	cmp	r3, r2
 8000e78:	d019      	beq.n	8000eae <HAL_GPIO_Init+0xae>
 8000e7a:	4a85      	ldr	r2, [pc, #532]	; (8001090 <HAL_GPIO_Init+0x290>)
 8000e7c:	4293      	cmp	r3, r2
 8000e7e:	d016      	beq.n	8000eae <HAL_GPIO_Init+0xae>
 8000e80:	4a84      	ldr	r2, [pc, #528]	; (8001094 <HAL_GPIO_Init+0x294>)
 8000e82:	4293      	cmp	r3, r2
 8000e84:	d013      	beq.n	8000eae <HAL_GPIO_Init+0xae>
          break;
 8000e86:	e02c      	b.n	8000ee2 <HAL_GPIO_Init+0xe2>
          config = GPIO_Init->Speed + GPIO_CR_CNF_GP_OUTPUT_PP;
 8000e88:	683b      	ldr	r3, [r7, #0]
 8000e8a:	68db      	ldr	r3, [r3, #12]
 8000e8c:	623b      	str	r3, [r7, #32]
          break;
 8000e8e:	e028      	b.n	8000ee2 <HAL_GPIO_Init+0xe2>
          config = GPIO_Init->Speed + GPIO_CR_CNF_GP_OUTPUT_OD;
 8000e90:	683b      	ldr	r3, [r7, #0]
 8000e92:	68db      	ldr	r3, [r3, #12]
 8000e94:	3304      	adds	r3, #4
 8000e96:	623b      	str	r3, [r7, #32]
          break;
 8000e98:	e023      	b.n	8000ee2 <HAL_GPIO_Init+0xe2>
          config = GPIO_Init->Speed + GPIO_CR_CNF_AF_OUTPUT_PP;
 8000e9a:	683b      	ldr	r3, [r7, #0]
 8000e9c:	68db      	ldr	r3, [r3, #12]
 8000e9e:	3308      	adds	r3, #8
 8000ea0:	623b      	str	r3, [r7, #32]
          break;
 8000ea2:	e01e      	b.n	8000ee2 <HAL_GPIO_Init+0xe2>
          config = GPIO_Init->Speed + GPIO_CR_CNF_AF_OUTPUT_OD;
 8000ea4:	683b      	ldr	r3, [r7, #0]
 8000ea6:	68db      	ldr	r3, [r3, #12]
 8000ea8:	330c      	adds	r3, #12
 8000eaa:	623b      	str	r3, [r7, #32]
          break;
 8000eac:	e019      	b.n	8000ee2 <HAL_GPIO_Init+0xe2>
          if (GPIO_Init->Pull == GPIO_NOPULL)
 8000eae:	683b      	ldr	r3, [r7, #0]
 8000eb0:	689b      	ldr	r3, [r3, #8]
 8000eb2:	2b00      	cmp	r3, #0
 8000eb4:	d102      	bne.n	8000ebc <HAL_GPIO_Init+0xbc>
            config = GPIO_CR_MODE_INPUT + GPIO_CR_CNF_INPUT_FLOATING;
 8000eb6:	2304      	movs	r3, #4
 8000eb8:	623b      	str	r3, [r7, #32]
          break;
 8000eba:	e012      	b.n	8000ee2 <HAL_GPIO_Init+0xe2>
          else if (GPIO_Init->Pull == GPIO_PULLUP)
 8000ebc:	683b      	ldr	r3, [r7, #0]
 8000ebe:	689b      	ldr	r3, [r3, #8]
 8000ec0:	2b01      	cmp	r3, #1
 8000ec2:	d105      	bne.n	8000ed0 <HAL_GPIO_Init+0xd0>
            config = GPIO_CR_MODE_INPUT + GPIO_CR_CNF_INPUT_PU_PD;
 8000ec4:	2308      	movs	r3, #8
 8000ec6:	623b      	str	r3, [r7, #32]
            GPIOx->BSRR = ioposition;
 8000ec8:	687b      	ldr	r3, [r7, #4]
 8000eca:	69fa      	ldr	r2, [r7, #28]
 8000ecc:	611a      	str	r2, [r3, #16]
          break;
 8000ece:	e008      	b.n	8000ee2 <HAL_GPIO_Init+0xe2>
            config = GPIO_CR_MODE_INPUT + GPIO_CR_CNF_INPUT_PU_PD;
 8000ed0:	2308      	movs	r3, #8
 8000ed2:	623b      	str	r3, [r7, #32]
            GPIOx->BRR = ioposition;
 8000ed4:	687b      	ldr	r3, [r7, #4]
 8000ed6:	69fa      	ldr	r2, [r7, #28]
 8000ed8:	615a      	str	r2, [r3, #20]
          break;
 8000eda:	e002      	b.n	8000ee2 <HAL_GPIO_Init+0xe2>
          config = GPIO_CR_MODE_INPUT + GPIO_CR_CNF_ANALOG;
 8000edc:	2300      	movs	r3, #0
 8000ede:	623b      	str	r3, [r7, #32]
          break;
 8000ee0:	bf00      	nop
      }

      /* Check if the current bit belongs to first half or last half of the pin count number
       in order to address CRH or CRL register*/
      configregister = (iocurrent < GPIO_PIN_8) ? &GPIOx->CRL     : &GPIOx->CRH;
 8000ee2:	69bb      	ldr	r3, [r7, #24]
 8000ee4:	2bff      	cmp	r3, #255	; 0xff
 8000ee6:	d801      	bhi.n	8000eec <HAL_GPIO_Init+0xec>
 8000ee8:	687b      	ldr	r3, [r7, #4]
 8000eea:	e001      	b.n	8000ef0 <HAL_GPIO_Init+0xf0>
 8000eec:	687b      	ldr	r3, [r7, #4]
 8000eee:	3304      	adds	r3, #4
 8000ef0:	617b      	str	r3, [r7, #20]
      registeroffset = (iocurrent < GPIO_PIN_8) ? (position << 2u) : ((position - 8u) << 2u);
 8000ef2:	69bb      	ldr	r3, [r7, #24]
 8000ef4:	2bff      	cmp	r3, #255	; 0xff
 8000ef6:	d802      	bhi.n	8000efe <HAL_GPIO_Init+0xfe>
 8000ef8:	6a7b      	ldr	r3, [r7, #36]	; 0x24
 8000efa:	009b      	lsls	r3, r3, #2
 8000efc:	e002      	b.n	8000f04 <HAL_GPIO_Init+0x104>
 8000efe:	6a7b      	ldr	r3, [r7, #36]	; 0x24
 8000f00:	3b08      	subs	r3, #8
 8000f02:	009b      	lsls	r3, r3, #2
 8000f04:	613b      	str	r3, [r7, #16]

      /* Apply the new configuration of the pin to the register */
      MODIFY_REG((*configregister), ((GPIO_CRL_MODE0 | GPIO_CRL_CNF0) << registeroffset), (config << registeroffset));
 8000f06:	697b      	ldr	r3, [r7, #20]
 8000f08:	681a      	ldr	r2, [r3, #0]
 8000f0a:	210f      	movs	r1, #15
 8000f0c:	693b      	ldr	r3, [r7, #16]
 8000f0e:	fa01 f303 	lsl.w	r3, r1, r3
 8000f12:	43db      	mvns	r3, r3
 8000f14:	401a      	ands	r2, r3
 8000f16:	6a39      	ldr	r1, [r7, #32]
 8000f18:	693b      	ldr	r3, [r7, #16]
 8000f1a:	fa01 f303 	lsl.w	r3, r1, r3
 8000f1e:	431a      	orrs	r2, r3
 8000f20:	697b      	ldr	r3, [r7, #20]
 8000f22:	601a      	str	r2, [r3, #0]

      /*--------------------- EXTI Mode Configuration ------------------------*/
      /* Configure the External Interrupt or event for the current IO */
      if ((GPIO_Init->Mode & EXTI_MODE) == EXTI_MODE)
 8000f24:	683b      	ldr	r3, [r7, #0]
 8000f26:	685b      	ldr	r3, [r3, #4]
 8000f28:	f003 5380 	and.w	r3, r3, #268435456	; 0x10000000
 8000f2c:	2b00      	cmp	r3, #0
 8000f2e:	f000 8096 	beq.w	800105e <HAL_GPIO_Init+0x25e>
      {
        /* Enable AFIO Clock */
        __HAL_RCC_AFIO_CLK_ENABLE();
 8000f32:	4b59      	ldr	r3, [pc, #356]	; (8001098 <HAL_GPIO_Init+0x298>)
 8000f34:	699b      	ldr	r3, [r3, #24]
 8000f36:	4a58      	ldr	r2, [pc, #352]	; (8001098 <HAL_GPIO_Init+0x298>)
 8000f38:	f043 0301 	orr.w	r3, r3, #1
 8000f3c:	6193      	str	r3, [r2, #24]
 8000f3e:	4b56      	ldr	r3, [pc, #344]	; (8001098 <HAL_GPIO_Init+0x298>)
 8000f40:	699b      	ldr	r3, [r3, #24]
 8000f42:	f003 0301 	and.w	r3, r3, #1
 8000f46:	60bb      	str	r3, [r7, #8]
 8000f48:	68bb      	ldr	r3, [r7, #8]
        temp = AFIO->EXTICR[position >> 2u];
 8000f4a:	4a54      	ldr	r2, [pc, #336]	; (800109c <HAL_GPIO_Init+0x29c>)
 8000f4c:	6a7b      	ldr	r3, [r7, #36]	; 0x24
 8000f4e:	089b      	lsrs	r3, r3, #2
 8000f50:	3302      	adds	r3, #2
 8000f52:	f852 3023 	ldr.w	r3, [r2, r3, lsl #2]
 8000f56:	60fb      	str	r3, [r7, #12]
        CLEAR_BIT(temp, (0x0Fu) << (4u * (position & 0x03u)));
 8000f58:	6a7b      	ldr	r3, [r7, #36]	; 0x24
 8000f5a:	f003 0303 	and.w	r3, r3, #3
 8000f5e:	009b      	lsls	r3, r3, #2
 8000f60:	220f      	movs	r2, #15
 8000f62:	fa02 f303 	lsl.w	r3, r2, r3
 8000f66:	43db      	mvns	r3, r3
 8000f68:	68fa      	ldr	r2, [r7, #12]
 8000f6a:	4013      	ands	r3, r2
 8000f6c:	60fb      	str	r3, [r7, #12]
        SET_BIT(temp, (GPIO_GET_INDEX(GPIOx)) << (4u * (position & 0x03u)));
 8000f6e:	687b      	ldr	r3, [r7, #4]
 8000f70:	4a4b      	ldr	r2, [pc, #300]	; (80010a0 <HAL_GPIO_Init+0x2a0>)
 8000f72:	4293      	cmp	r3, r2
 8000f74:	d013      	beq.n	8000f9e <HAL_GPIO_Init+0x19e>
 8000f76:	687b      	ldr	r3, [r7, #4]
 8000f78:	4a4a      	ldr	r2, [pc, #296]	; (80010a4 <HAL_GPIO_Init+0x2a4>)
 8000f7a:	4293      	cmp	r3, r2
 8000f7c:	d00d      	beq.n	8000f9a <HAL_GPIO_Init+0x19a>
 8000f7e:	687b      	ldr	r3, [r7, #4]
 8000f80:	4a49      	ldr	r2, [pc, #292]	; (80010a8 <HAL_GPIO_Init+0x2a8>)
 8000f82:	4293      	cmp	r3, r2
 8000f84:	d007      	beq.n	8000f96 <HAL_GPIO_Init+0x196>
 8000f86:	687b      	ldr	r3, [r7, #4]
 8000f88:	4a48      	ldr	r2, [pc, #288]	; (80010ac <HAL_GPIO_Init+0x2ac>)
 8000f8a:	4293      	cmp	r3, r2
 8000f8c:	d101      	bne.n	8000f92 <HAL_GPIO_Init+0x192>
 8000f8e:	2303      	movs	r3, #3
 8000f90:	e006      	b.n	8000fa0 <HAL_GPIO_Init+0x1a0>
 8000f92:	2304      	movs	r3, #4
 8000f94:	e004      	b.n	8000fa0 <HAL_GPIO_Init+0x1a0>
 8000f96:	2302      	movs	r3, #2
 8000f98:	e002      	b.n	8000fa0 <HAL_GPIO_Init+0x1a0>
 8000f9a:	2301      	movs	r3, #1
 8000f9c:	e000      	b.n	8000fa0 <HAL_GPIO_Init+0x1a0>
 8000f9e:	2300      	movs	r3, #0
 8000fa0:	6a7a      	ldr	r2, [r7, #36]	; 0x24
 8000fa2:	f002 0203 	and.w	r2, r2, #3
 8000fa6:	0092      	lsls	r2, r2, #2
 8000fa8:	4093      	lsls	r3, r2
 8000faa:	68fa      	ldr	r2, [r7, #12]
 8000fac:	4313      	orrs	r3, r2
 8000fae:	60fb      	str	r3, [r7, #12]
        AFIO->EXTICR[position >> 2u] = temp;
 8000fb0:	493a      	ldr	r1, [pc, #232]	; (800109c <HAL_GPIO_Init+0x29c>)
 8000fb2:	6a7b      	ldr	r3, [r7, #36]	; 0x24
 8000fb4:	089b      	lsrs	r3, r3, #2
 8000fb6:	3302      	adds	r3, #2
 8000fb8:	68fa      	ldr	r2, [r7, #12]
 8000fba:	f841 2023 	str.w	r2, [r1, r3, lsl #2]


        /* Configure the interrupt mask */
        if ((GPIO_Init->Mode & GPIO_MODE_IT) == GPIO_MODE_IT)
 8000fbe:	683b      	ldr	r3, [r7, #0]
 8000fc0:	685b      	ldr	r3, [r3, #4]
 8000fc2:	f403 3380 	and.w	r3, r3, #65536	; 0x10000
 8000fc6:	2b00      	cmp	r3, #0
 8000fc8:	d006      	beq.n	8000fd8 <HAL_GPIO_Init+0x1d8>
        {
          SET_BIT(EXTI->IMR, iocurrent);
 8000fca:	4b39      	ldr	r3, [pc, #228]	; (80010b0 <HAL_GPIO_Init+0x2b0>)
 8000fcc:	681a      	ldr	r2, [r3, #0]
 8000fce:	4938      	ldr	r1, [pc, #224]	; (80010b0 <HAL_GPIO_Init+0x2b0>)
 8000fd0:	69bb      	ldr	r3, [r7, #24]
 8000fd2:	4313      	orrs	r3, r2
 8000fd4:	600b      	str	r3, [r1, #0]
 8000fd6:	e006      	b.n	8000fe6 <HAL_GPIO_Init+0x1e6>
        }
        else
        {
          CLEAR_BIT(EXTI->IMR, iocurrent);
 8000fd8:	4b35      	ldr	r3, [pc, #212]	; (80010b0 <HAL_GPIO_Init+0x2b0>)
 8000fda:	681a      	ldr	r2, [r3, #0]
 8000fdc:	69bb      	ldr	r3, [r7, #24]
 8000fde:	43db      	mvns	r3, r3
 8000fe0:	4933      	ldr	r1, [pc, #204]	; (80010b0 <HAL_GPIO_Init+0x2b0>)
 8000fe2:	4013      	ands	r3, r2
 8000fe4:	600b      	str	r3, [r1, #0]
        }

        /* Configure the event mask */
        if ((GPIO_Init->Mode & GPIO_MODE_EVT) == GPIO_MODE_EVT)
 8000fe6:	683b      	ldr	r3, [r7, #0]
 8000fe8:	685b      	ldr	r3, [r3, #4]
 8000fea:	f403 3300 	and.w	r3, r3, #131072	; 0x20000
 8000fee:	2b00      	cmp	r3, #0
 8000ff0:	d006      	beq.n	8001000 <HAL_GPIO_Init+0x200>
        {
          SET_BIT(EXTI->EMR, iocurrent);
 8000ff2:	4b2f      	ldr	r3, [pc, #188]	; (80010b0 <HAL_GPIO_Init+0x2b0>)
 8000ff4:	685a      	ldr	r2, [r3, #4]
 8000ff6:	492e      	ldr	r1, [pc, #184]	; (80010b0 <HAL_GPIO_Init+0x2b0>)
 8000ff8:	69bb      	ldr	r3, [r7, #24]
 8000ffa:	4313      	orrs	r3, r2
 8000ffc:	604b      	str	r3, [r1, #4]
 8000ffe:	e006      	b.n	800100e <HAL_GPIO_Init+0x20e>
        }
        else
        {
          CLEAR_BIT(EXTI->EMR, iocurrent);
 8001000:	4b2b      	ldr	r3, [pc, #172]	; (80010b0 <HAL_GPIO_Init+0x2b0>)
 8001002:	685a      	ldr	r2, [r3, #4]
 8001004:	69bb      	ldr	r3, [r7, #24]
 8001006:	43db      	mvns	r3, r3
 8001008:	4929      	ldr	r1, [pc, #164]	; (80010b0 <HAL_GPIO_Init+0x2b0>)
 800100a:	4013      	ands	r3, r2
 800100c:	604b      	str	r3, [r1, #4]
        }

        /* Enable or disable the rising trigger */
        if ((GPIO_Init->Mode & RISING_EDGE) == RISING_EDGE)
 800100e:	683b      	ldr	r3, [r7, #0]
 8001010:	685b      	ldr	r3, [r3, #4]
 8001012:	f403 1380 	and.w	r3, r3, #1048576	; 0x100000
 8001016:	2b00      	cmp	r3, #0
 8001018:	d006      	beq.n	8001028 <HAL_GPIO_Init+0x228>
        {
          SET_BIT(EXTI->RTSR, iocurrent);
 800101a:	4b25      	ldr	r3, [pc, #148]	; (80010b0 <HAL_GPIO_Init+0x2b0>)
 800101c:	689a      	ldr	r2, [r3, #8]
 800101e:	4924      	ldr	r1, [pc, #144]	; (80010b0 <HAL_GPIO_Init+0x2b0>)
 8001020:	69bb      	ldr	r3, [r7, #24]
 8001022:	4313      	orrs	r3, r2
 8001024:	608b      	str	r3, [r1, #8]
 8001026:	e006      	b.n	8001036 <HAL_GPIO_Init+0x236>
        }
        else
        {
          CLEAR_BIT(EXTI->RTSR, iocurrent);
 8001028:	4b21      	ldr	r3, [pc, #132]	; (80010b0 <HAL_GPIO_Init+0x2b0>)
 800102a:	689a      	ldr	r2, [r3, #8]
 800102c:	69bb      	ldr	r3, [r7, #24]
 800102e:	43db      	mvns	r3, r3
 8001030:	491f      	ldr	r1, [pc, #124]	; (80010b0 <HAL_GPIO_Init+0x2b0>)
 8001032:	4013      	ands	r3, r2
 8001034:	608b      	str	r3, [r1, #8]
        }

        /* Enable or disable the falling trigger */
        if ((GPIO_Init->Mode & FALLING_EDGE) == FALLING_EDGE)
 8001036:	683b      	ldr	r3, [r7, #0]
 8001038:	685b      	ldr	r3, [r3, #4]
 800103a:	f403 1300 	and.w	r3, r3, #2097152	; 0x200000
 800103e:	2b00      	cmp	r3, #0
 8001040:	d006      	beq.n	8001050 <HAL_GPIO_Init+0x250>
        {
          SET_BIT(EXTI->FTSR, iocurrent);
 8001042:	4b1b      	ldr	r3, [pc, #108]	; (80010b0 <HAL_GPIO_Init+0x2b0>)
 8001044:	68da      	ldr	r2, [r3, #12]
 8001046:	491a      	ldr	r1, [pc, #104]	; (80010b0 <HAL_GPIO_Init+0x2b0>)
 8001048:	69bb      	ldr	r3, [r7, #24]
 800104a:	4313      	orrs	r3, r2
 800104c:	60cb      	str	r3, [r1, #12]
 800104e:	e006      	b.n	800105e <HAL_GPIO_Init+0x25e>
        }
        else
        {
          CLEAR_BIT(EXTI->FTSR, iocurrent);
 8001050:	4b17      	ldr	r3, [pc, #92]	; (80010b0 <HAL_GPIO_Init+0x2b0>)
 8001052:	68da      	ldr	r2, [r3, #12]
 8001054:	69bb      	ldr	r3, [r7, #24]
 8001056:	43db      	mvns	r3, r3
 8001058:	4915      	ldr	r1, [pc, #84]	; (80010b0 <HAL_GPIO_Init+0x2b0>)
 800105a:	4013      	ands	r3, r2
 800105c:	60cb      	str	r3, [r1, #12]
        }
      }
    }

	position++;
 800105e:	6a7b      	ldr	r3, [r7, #36]	; 0x24
 8001060:	3301      	adds	r3, #1
 8001062:	627b      	str	r3, [r7, #36]	; 0x24
  while (((GPIO_Init->Pin) >> position) != 0x00u)
 8001064:	683b      	ldr	r3, [r7, #0]
 8001066:	681a      	ldr	r2, [r3, #0]
 8001068:	6a7b      	ldr	r3, [r7, #36]	; 0x24
 800106a:	fa22 f303 	lsr.w	r3, r2, r3
 800106e:	2b00      	cmp	r3, #0
 8001070:	f47f aed0 	bne.w	8000e14 <HAL_GPIO_Init+0x14>
  }
}
 8001074:	bf00      	nop
 8001076:	372c      	adds	r7, #44	; 0x2c
 8001078:	46bd      	mov	sp, r7
 800107a:	bc80      	pop	{r7}
 800107c:	4770      	bx	lr
 800107e:	bf00      	nop
 8001080:	10210000 	.word	0x10210000
 8001084:	10110000 	.word	0x10110000
 8001088:	10120000 	.word	0x10120000
 800108c:	10310000 	.word	0x10310000
 8001090:	10320000 	.word	0x10320000
 8001094:	10220000 	.word	0x10220000
 8001098:	40021000 	.word	0x40021000
 800109c:	40010000 	.word	0x40010000
 80010a0:	40010800 	.word	0x40010800
 80010a4:	40010c00 	.word	0x40010c00
 80010a8:	40011000 	.word	0x40011000
 80010ac:	40011400 	.word	0x40011400
 80010b0:	40010400 	.word	0x40010400

080010b4 <HAL_GPIO_WritePin>:
  *            @arg GPIO_PIN_RESET: to clear the port pin
  *            @arg GPIO_PIN_SET: to set the port pin
  * @retval None
  */
void HAL_GPIO_WritePin(GPIO_TypeDef *GPIOx, uint16_t GPIO_Pin, GPIO_PinState PinState)
{
 80010b4:	b480      	push	{r7}
 80010b6:	b083      	sub	sp, #12
 80010b8:	af00      	add	r7, sp, #0
 80010ba:	6078      	str	r0, [r7, #4]
 80010bc:	460b      	mov	r3, r1
 80010be:	807b      	strh	r3, [r7, #2]
 80010c0:	4613      	mov	r3, r2
 80010c2:	707b      	strb	r3, [r7, #1]
  /* Check the parameters */
  assert_param(IS_GPIO_PIN(GPIO_Pin));
  assert_param(IS_GPIO_PIN_ACTION(PinState));

  if (PinState != GPIO_PIN_RESET)
 80010c4:	787b      	ldrb	r3, [r7, #1]
 80010c6:	2b00      	cmp	r3, #0
 80010c8:	d003      	beq.n	80010d2 <HAL_GPIO_WritePin+0x1e>
  {
    GPIOx->BSRR = GPIO_Pin;
 80010ca:	887a      	ldrh	r2, [r7, #2]
 80010cc:	687b      	ldr	r3, [r7, #4]
 80010ce:	611a      	str	r2, [r3, #16]
  }
  else
  {
    GPIOx->BSRR = (uint32_t)GPIO_Pin << 16u;
  }
}
 80010d0:	e003      	b.n	80010da <HAL_GPIO_WritePin+0x26>
    GPIOx->BSRR = (uint32_t)GPIO_Pin << 16u;
 80010d2:	887b      	ldrh	r3, [r7, #2]
 80010d4:	041a      	lsls	r2, r3, #16
 80010d6:	687b      	ldr	r3, [r7, #4]
 80010d8:	611a      	str	r2, [r3, #16]
}
 80010da:	bf00      	nop
 80010dc:	370c      	adds	r7, #12
 80010de:	46bd      	mov	sp, r7
 80010e0:	bc80      	pop	{r7}
 80010e2:	4770      	bx	lr

080010e4 <HAL_GPIO_EXTI_IRQHandler>:
  * @brief  This function handles EXTI interrupt request.
  * @param  GPIO_Pin: Specifies the pins connected EXTI line
  * @retval None
  */
void HAL_GPIO_EXTI_IRQHandler(uint16_t GPIO_Pin)
{
 80010e4:	b580      	push	{r7, lr}
 80010e6:	b082      	sub	sp, #8
 80010e8:	af00      	add	r7, sp, #0
 80010ea:	4603      	mov	r3, r0
 80010ec:	80fb      	strh	r3, [r7, #6]
  /* EXTI line interrupt detected */
  if (__HAL_GPIO_EXTI_GET_IT(GPIO_Pin) != 0x00u)
 80010ee:	4b08      	ldr	r3, [pc, #32]	; (8001110 <HAL_GPIO_EXTI_IRQHandler+0x2c>)
 80010f0:	695a      	ldr	r2, [r3, #20]
 80010f2:	88fb      	ldrh	r3, [r7, #6]
 80010f4:	4013      	ands	r3, r2
 80010f6:	2b00      	cmp	r3, #0
 80010f8:	d006      	beq.n	8001108 <HAL_GPIO_EXTI_IRQHandler+0x24>
  {
    __HAL_GPIO_EXTI_CLEAR_IT(GPIO_Pin);
 80010fa:	4a05      	ldr	r2, [pc, #20]	; (8001110 <HAL_GPIO_EXTI_IRQHandler+0x2c>)
 80010fc:	88fb      	ldrh	r3, [r7, #6]
 80010fe:	6153      	str	r3, [r2, #20]
    HAL_GPIO_EXTI_Callback(GPIO_Pin);
 8001100:	88fb      	ldrh	r3, [r7, #6]
 8001102:	4618      	mov	r0, r3
 8001104:	f000 f806 	bl	8001114 <HAL_GPIO_EXTI_Callback>
  }
}
 8001108:	bf00      	nop
 800110a:	3708      	adds	r7, #8
 800110c:	46bd      	mov	sp, r7
 800110e:	bd80      	pop	{r7, pc}
 8001110:	40010400 	.word	0x40010400

08001114 <HAL_GPIO_EXTI_Callback>:
  * @brief  EXTI line detection callbacks.
  * @param  GPIO_Pin: Specifies the pins connected EXTI line
  * @retval None
  */
__weak void HAL_GPIO_EXTI_Callback(uint16_t GPIO_Pin)
{
 8001114:	b480      	push	{r7}
 8001116:	b083      	sub	sp, #12
 8001118:	af00      	add	r7, sp, #0
 800111a:	4603      	mov	r3, r0
 800111c:	80fb      	strh	r3, [r7, #6]
  /* Prevent unused argument(s) compilation warning */
  UNUSED(GPIO_Pin);
  /* NOTE: This function Should not be modified, when the callback is needed,
           the HAL_GPIO_EXTI_Callback could be implemented in the user file
   */
}
 800111e:	bf00      	nop
 8001120:	370c      	adds	r7, #12
 8001122:	46bd      	mov	sp, r7
 8001124:	bc80      	pop	{r7}
 8001126:	4770      	bx	lr

08001128 <HAL_RCC_OscConfig>:
  *         supported by this macro. User should request a transition to HSE Off
  *         first and then HSE On or HSE Bypass.
  * @retval HAL status
  */
HAL_StatusTypeDef HAL_RCC_OscConfig(RCC_OscInitTypeDef  *RCC_OscInitStruct)
{
 8001128:	b580      	push	{r7, lr}
 800112a:	b086      	sub	sp, #24
 800112c:	af00      	add	r7, sp, #0
 800112e:	6078      	str	r0, [r7, #4]
  uint32_t tickstart;
  uint32_t pll_config;

  /* Check Null pointer */
  if (RCC_OscInitStruct == NULL)
 8001130:	687b      	ldr	r3, [r7, #4]
 8001132:	2b00      	cmp	r3, #0
 8001134:	d101      	bne.n	800113a <HAL_RCC_OscConfig+0x12>
  {
    return HAL_ERROR;
 8001136:	2301      	movs	r3, #1
 8001138:	e26c      	b.n	8001614 <HAL_RCC_OscConfig+0x4ec>

  /* Check the parameters */
  assert_param(IS_RCC_OSCILLATORTYPE(RCC_OscInitStruct->OscillatorType));

  /*------------------------------- HSE Configuration ------------------------*/
  if (((RCC_OscInitStruct->OscillatorType) & RCC_OSCILLATORTYPE_HSE) == RCC_OSCILLATORTYPE_HSE)
 800113a:	687b      	ldr	r3, [r7, #4]
 800113c:	681b      	ldr	r3, [r3, #0]
 800113e:	f003 0301 	and.w	r3, r3, #1
 8001142:	2b00      	cmp	r3, #0
 8001144:	f000 8087 	beq.w	8001256 <HAL_RCC_OscConfig+0x12e>
  {
    /* Check the parameters */
    assert_param(IS_RCC_HSE(RCC_OscInitStruct->HSEState));

    /* When the HSE is used as system clock or clock source for PLL in these cases it is not allowed to be disabled */
    if ((__HAL_RCC_GET_SYSCLK_SOURCE() == RCC_SYSCLKSOURCE_STATUS_HSE)
 8001148:	4b92      	ldr	r3, [pc, #584]	; (8001394 <HAL_RCC_OscConfig+0x26c>)
 800114a:	685b      	ldr	r3, [r3, #4]
 800114c:	f003 030c 	and.w	r3, r3, #12
 8001150:	2b04      	cmp	r3, #4
 8001152:	d00c      	beq.n	800116e <HAL_RCC_OscConfig+0x46>
        || ((__HAL_RCC_GET_SYSCLK_SOURCE() == RCC_SYSCLKSOURCE_STATUS_PLLCLK) && (__HAL_RCC_GET_PLL_OSCSOURCE() == RCC_PLLSOURCE_HSE)))
 8001154:	4b8f      	ldr	r3, [pc, #572]	; (8001394 <HAL_RCC_OscConfig+0x26c>)
 8001156:	685b      	ldr	r3, [r3, #4]
 8001158:	f003 030c 	and.w	r3, r3, #12
 800115c:	2b08      	cmp	r3, #8
 800115e:	d112      	bne.n	8001186 <HAL_RCC_OscConfig+0x5e>
 8001160:	4b8c      	ldr	r3, [pc, #560]	; (8001394 <HAL_RCC_OscConfig+0x26c>)
 8001162:	685b      	ldr	r3, [r3, #4]
 8001164:	f403 3380 	and.w	r3, r3, #65536	; 0x10000
 8001168:	f5b3 3f80 	cmp.w	r3, #65536	; 0x10000
 800116c:	d10b      	bne.n	8001186 <HAL_RCC_OscConfig+0x5e>
    {
      if ((__HAL_RCC_GET_FLAG(RCC_FLAG_HSERDY) != RESET) && (RCC_OscInitStruct->HSEState == RCC_HSE_OFF))
 800116e:	4b89      	ldr	r3, [pc, #548]	; (8001394 <HAL_RCC_OscConfig+0x26c>)
 8001170:	681b      	ldr	r3, [r3, #0]
 8001172:	f403 3300 	and.w	r3, r3, #131072	; 0x20000
 8001176:	2b00      	cmp	r3, #0
 8001178:	d06c      	beq.n	8001254 <HAL_RCC_OscConfig+0x12c>
 800117a:	687b      	ldr	r3, [r7, #4]
 800117c:	685b      	ldr	r3, [r3, #4]
 800117e:	2b00      	cmp	r3, #0
 8001180:	d168      	bne.n	8001254 <HAL_RCC_OscConfig+0x12c>
      {
        return HAL_ERROR;
 8001182:	2301      	movs	r3, #1
 8001184:	e246      	b.n	8001614 <HAL_RCC_OscConfig+0x4ec>
      }
    }
    else
    {
      /* Set the new HSE configuration ---------------------------------------*/
      __HAL_RCC_HSE_CONFIG(RCC_OscInitStruct->HSEState);
 8001186:	687b      	ldr	r3, [r7, #4]
 8001188:	685b      	ldr	r3, [r3, #4]
 800118a:	f5b3 3f80 	cmp.w	r3, #65536	; 0x10000
 800118e:	d106      	bne.n	800119e <HAL_RCC_OscConfig+0x76>
 8001190:	4b80      	ldr	r3, [pc, #512]	; (8001394 <HAL_RCC_OscConfig+0x26c>)
 8001192:	681b      	ldr	r3, [r3, #0]
 8001194:	4a7f      	ldr	r2, [pc, #508]	; (8001394 <HAL_RCC_OscConfig+0x26c>)
 8001196:	f443 3380 	orr.w	r3, r3, #65536	; 0x10000
 800119a:	6013      	str	r3, [r2, #0]
 800119c:	e02e      	b.n	80011fc <HAL_RCC_OscConfig+0xd4>
 800119e:	687b      	ldr	r3, [r7, #4]
 80011a0:	685b      	ldr	r3, [r3, #4]
 80011a2:	2b00      	cmp	r3, #0
 80011a4:	d10c      	bne.n	80011c0 <HAL_RCC_OscConfig+0x98>
 80011a6:	4b7b      	ldr	r3, [pc, #492]	; (8001394 <HAL_RCC_OscConfig+0x26c>)
 80011a8:	681b      	ldr	r3, [r3, #0]
 80011aa:	4a7a      	ldr	r2, [pc, #488]	; (8001394 <HAL_RCC_OscConfig+0x26c>)
 80011ac:	f423 3380 	bic.w	r3, r3, #65536	; 0x10000
 80011b0:	6013      	str	r3, [r2, #0]
 80011b2:	4b78      	ldr	r3, [pc, #480]	; (8001394 <HAL_RCC_OscConfig+0x26c>)
 80011b4:	681b      	ldr	r3, [r3, #0]
 80011b6:	4a77      	ldr	r2, [pc, #476]	; (8001394 <HAL_RCC_OscConfig+0x26c>)
 80011b8:	f423 2380 	bic.w	r3, r3, #262144	; 0x40000
 80011bc:	6013      	str	r3, [r2, #0]
 80011be:	e01d      	b.n	80011fc <HAL_RCC_OscConfig+0xd4>
 80011c0:	687b      	ldr	r3, [r7, #4]
 80011c2:	685b      	ldr	r3, [r3, #4]
 80011c4:	f5b3 2fa0 	cmp.w	r3, #327680	; 0x50000
 80011c8:	d10c      	bne.n	80011e4 <HAL_RCC_OscConfig+0xbc>
 80011ca:	4b72      	ldr	r3, [pc, #456]	; (8001394 <HAL_RCC_OscConfig+0x26c>)
 80011cc:	681b      	ldr	r3, [r3, #0]
 80011ce:	4a71      	ldr	r2, [pc, #452]	; (8001394 <HAL_RCC_OscConfig+0x26c>)
 80011d0:	f443 2380 	orr.w	r3, r3, #262144	; 0x40000
 80011d4:	6013      	str	r3, [r2, #0]
 80011d6:	4b6f      	ldr	r3, [pc, #444]	; (8001394 <HAL_RCC_OscConfig+0x26c>)
 80011d8:	681b      	ldr	r3, [r3, #0]
 80011da:	4a6e      	ldr	r2, [pc, #440]	; (8001394 <HAL_RCC_OscConfig+0x26c>)
 80011dc:	f443 3380 	orr.w	r3, r3, #65536	; 0x10000
 80011e0:	6013      	str	r3, [r2, #0]
 80011e2:	e00b      	b.n	80011fc <HAL_RCC_OscConfig+0xd4>
 80011e4:	4b6b      	ldr	r3, [pc, #428]	; (8001394 <HAL_RCC_OscConfig+0x26c>)
 80011e6:	681b      	ldr	r3, [r3, #0]
 80011e8:	4a6a      	ldr	r2, [pc, #424]	; (8001394 <HAL_RCC_OscConfig+0x26c>)
 80011ea:	f423 3380 	bic.w	r3, r3, #65536	; 0x10000
 80011ee:	6013      	str	r3, [r2, #0]
 80011f0:	4b68      	ldr	r3, [pc, #416]	; (8001394 <HAL_RCC_OscConfig+0x26c>)
 80011f2:	681b      	ldr	r3, [r3, #0]
 80011f4:	4a67      	ldr	r2, [pc, #412]	; (8001394 <HAL_RCC_OscConfig+0x26c>)
 80011f6:	f423 2380 	bic.w	r3, r3, #262144	; 0x40000
 80011fa:	6013      	str	r3, [r2, #0]


      /* Check the HSE State */
      if (RCC_OscInitStruct->HSEState != RCC_HSE_OFF)
 80011fc:	687b      	ldr	r3, [r7, #4]
 80011fe:	685b      	ldr	r3, [r3, #4]
 8001200:	2b00      	cmp	r3, #0
 8001202:	d013      	beq.n	800122c <HAL_RCC_OscConfig+0x104>
      {
        /* Get Start Tick */
        tickstart = HAL_GetTick();
 8001204:	f7ff fcc2 	bl	8000b8c <HAL_GetTick>
 8001208:	6138      	str	r0, [r7, #16]

        /* Wait till HSE is ready */
        while (__HAL_RCC_GET_FLAG(RCC_FLAG_HSERDY) == RESET)
 800120a:	e008      	b.n	800121e <HAL_RCC_OscConfig+0xf6>
        {
          if ((HAL_GetTick() - tickstart) > HSE_TIMEOUT_VALUE)
 800120c:	f7ff fcbe 	bl	8000b8c <HAL_GetTick>
 8001210:	4602      	mov	r2, r0
 8001212:	693b      	ldr	r3, [r7, #16]
 8001214:	1ad3      	subs	r3, r2, r3
 8001216:	2b64      	cmp	r3, #100	; 0x64
 8001218:	d901      	bls.n	800121e <HAL_RCC_OscConfig+0xf6>
          {
            return HAL_TIMEOUT;
 800121a:	2303      	movs	r3, #3
 800121c:	e1fa      	b.n	8001614 <HAL_RCC_OscConfig+0x4ec>
        while (__HAL_RCC_GET_FLAG(RCC_FLAG_HSERDY) == RESET)
 800121e:	4b5d      	ldr	r3, [pc, #372]	; (8001394 <HAL_RCC_OscConfig+0x26c>)
 8001220:	681b      	ldr	r3, [r3, #0]
 8001222:	f403 3300 	and.w	r3, r3, #131072	; 0x20000
 8001226:	2b00      	cmp	r3, #0
 8001228:	d0f0      	beq.n	800120c <HAL_RCC_OscConfig+0xe4>
 800122a:	e014      	b.n	8001256 <HAL_RCC_OscConfig+0x12e>
        }
      }
      else
      {
        /* Get Start Tick */
        tickstart = HAL_GetTick();
 800122c:	f7ff fcae 	bl	8000b8c <HAL_GetTick>
 8001230:	6138      	str	r0, [r7, #16]

        /* Wait till HSE is disabled */
        while (__HAL_RCC_GET_FLAG(RCC_FLAG_HSERDY) != RESET)
 8001232:	e008      	b.n	8001246 <HAL_RCC_OscConfig+0x11e>
        {
          if ((HAL_GetTick() - tickstart) > HSE_TIMEOUT_VALUE)
 8001234:	f7ff fcaa 	bl	8000b8c <HAL_GetTick>
 8001238:	4602      	mov	r2, r0
 800123a:	693b      	ldr	r3, [r7, #16]
 800123c:	1ad3      	subs	r3, r2, r3
 800123e:	2b64      	cmp	r3, #100	; 0x64
 8001240:	d901      	bls.n	8001246 <HAL_RCC_OscConfig+0x11e>
          {
            return HAL_TIMEOUT;
 8001242:	2303      	movs	r3, #3
 8001244:	e1e6      	b.n	8001614 <HAL_RCC_OscConfig+0x4ec>
        while (__HAL_RCC_GET_FLAG(RCC_FLAG_HSERDY) != RESET)
 8001246:	4b53      	ldr	r3, [pc, #332]	; (8001394 <HAL_RCC_OscConfig+0x26c>)
 8001248:	681b      	ldr	r3, [r3, #0]
 800124a:	f403 3300 	and.w	r3, r3, #131072	; 0x20000
 800124e:	2b00      	cmp	r3, #0
 8001250:	d1f0      	bne.n	8001234 <HAL_RCC_OscConfig+0x10c>
 8001252:	e000      	b.n	8001256 <HAL_RCC_OscConfig+0x12e>
      if ((__HAL_RCC_GET_FLAG(RCC_FLAG_HSERDY) != RESET) && (RCC_OscInitStruct->HSEState == RCC_HSE_OFF))
 8001254:	bf00      	nop
        }
      }
    }
  }
  /*----------------------------- HSI Configuration --------------------------*/
  if (((RCC_OscInitStruct->OscillatorType) & RCC_OSCILLATORTYPE_HSI) == RCC_OSCILLATORTYPE_HSI)
 8001256:	687b      	ldr	r3, [r7, #4]
 8001258:	681b      	ldr	r3, [r3, #0]
 800125a:	f003 0302 	and.w	r3, r3, #2
 800125e:	2b00      	cmp	r3, #0
 8001260:	d063      	beq.n	800132a <HAL_RCC_OscConfig+0x202>
    /* Check the parameters */
    assert_param(IS_RCC_HSI(RCC_OscInitStruct->HSIState));
    assert_param(IS_RCC_CALIBRATION_VALUE(RCC_OscInitStruct->HSICalibrationValue));

    /* Check if HSI is used as system clock or as PLL source when PLL is selected as system clock */
    if ((__HAL_RCC_GET_SYSCLK_SOURCE() == RCC_SYSCLKSOURCE_STATUS_HSI)
 8001262:	4b4c      	ldr	r3, [pc, #304]	; (8001394 <HAL_RCC_OscConfig+0x26c>)
 8001264:	685b      	ldr	r3, [r3, #4]
 8001266:	f003 030c 	and.w	r3, r3, #12
 800126a:	2b00      	cmp	r3, #0
 800126c:	d00b      	beq.n	8001286 <HAL_RCC_OscConfig+0x15e>
        || ((__HAL_RCC_GET_SYSCLK_SOURCE() == RCC_SYSCLKSOURCE_STATUS_PLLCLK) && (__HAL_RCC_GET_PLL_OSCSOURCE() == RCC_PLLSOURCE_HSI_DIV2)))
 800126e:	4b49      	ldr	r3, [pc, #292]	; (8001394 <HAL_RCC_OscConfig+0x26c>)
 8001270:	685b      	ldr	r3, [r3, #4]
 8001272:	f003 030c 	and.w	r3, r3, #12
 8001276:	2b08      	cmp	r3, #8
 8001278:	d11c      	bne.n	80012b4 <HAL_RCC_OscConfig+0x18c>
 800127a:	4b46      	ldr	r3, [pc, #280]	; (8001394 <HAL_RCC_OscConfig+0x26c>)
 800127c:	685b      	ldr	r3, [r3, #4]
 800127e:	f403 3380 	and.w	r3, r3, #65536	; 0x10000
 8001282:	2b00      	cmp	r3, #0
 8001284:	d116      	bne.n	80012b4 <HAL_RCC_OscConfig+0x18c>
    {
      /* When HSI is used as system clock it will not disabled */
      if ((__HAL_RCC_GET_FLAG(RCC_FLAG_HSIRDY) != RESET) && (RCC_OscInitStruct->HSIState != RCC_HSI_ON))
 8001286:	4b43      	ldr	r3, [pc, #268]	; (8001394 <HAL_RCC_OscConfig+0x26c>)
 8001288:	681b      	ldr	r3, [r3, #0]
 800128a:	f003 0302 	and.w	r3, r3, #2
 800128e:	2b00      	cmp	r3, #0
 8001290:	d005      	beq.n	800129e <HAL_RCC_OscConfig+0x176>
 8001292:	687b      	ldr	r3, [r7, #4]
 8001294:	691b      	ldr	r3, [r3, #16]
 8001296:	2b01      	cmp	r3, #1
 8001298:	d001      	beq.n	800129e <HAL_RCC_OscConfig+0x176>
      {
        return HAL_ERROR;
 800129a:	2301      	movs	r3, #1
 800129c:	e1ba      	b.n	8001614 <HAL_RCC_OscConfig+0x4ec>
      }
      /* Otherwise, just the calibration is allowed */
      else
      {
        /* Adjusts the Internal High Speed oscillator (HSI) calibration value.*/
        __HAL_RCC_HSI_CALIBRATIONVALUE_ADJUST(RCC_OscInitStruct->HSICalibrationValue);
 800129e:	4b3d      	ldr	r3, [pc, #244]	; (8001394 <HAL_RCC_OscConfig+0x26c>)
 80012a0:	681b      	ldr	r3, [r3, #0]
 80012a2:	f023 02f8 	bic.w	r2, r3, #248	; 0xf8
 80012a6:	687b      	ldr	r3, [r7, #4]
 80012a8:	695b      	ldr	r3, [r3, #20]
 80012aa:	00db      	lsls	r3, r3, #3
 80012ac:	4939      	ldr	r1, [pc, #228]	; (8001394 <HAL_RCC_OscConfig+0x26c>)
 80012ae:	4313      	orrs	r3, r2
 80012b0:	600b      	str	r3, [r1, #0]
      if ((__HAL_RCC_GET_FLAG(RCC_FLAG_HSIRDY) != RESET) && (RCC_OscInitStruct->HSIState != RCC_HSI_ON))
 80012b2:	e03a      	b.n	800132a <HAL_RCC_OscConfig+0x202>
      }
    }
    else
    {
      /* Check the HSI State */
      if (RCC_OscInitStruct->HSIState != RCC_HSI_OFF)
 80012b4:	687b      	ldr	r3, [r7, #4]
 80012b6:	691b      	ldr	r3, [r3, #16]
 80012b8:	2b00      	cmp	r3, #0
 80012ba:	d020      	beq.n	80012fe <HAL_RCC_OscConfig+0x1d6>
      {
        /* Enable the Internal High Speed oscillator (HSI). */
        __HAL_RCC_HSI_ENABLE();
 80012bc:	4b36      	ldr	r3, [pc, #216]	; (8001398 <HAL_RCC_OscConfig+0x270>)
 80012be:	2201      	movs	r2, #1
 80012c0:	601a      	str	r2, [r3, #0]

        /* Get Start Tick */
        tickstart = HAL_GetTick();
 80012c2:	f7ff fc63 	bl	8000b8c <HAL_GetTick>
 80012c6:	6138      	str	r0, [r7, #16]

        /* Wait till HSI is ready */
        while (__HAL_RCC_GET_FLAG(RCC_FLAG_HSIRDY) == RESET)
 80012c8:	e008      	b.n	80012dc <HAL_RCC_OscConfig+0x1b4>
        {
          if ((HAL_GetTick() - tickstart) > HSI_TIMEOUT_VALUE)
 80012ca:	f7ff fc5f 	bl	8000b8c <HAL_GetTick>
 80012ce:	4602      	mov	r2, r0
 80012d0:	693b      	ldr	r3, [r7, #16]
 80012d2:	1ad3      	subs	r3, r2, r3
 80012d4:	2b02      	cmp	r3, #2
 80012d6:	d901      	bls.n	80012dc <HAL_RCC_OscConfig+0x1b4>
          {
            return HAL_TIMEOUT;
 80012d8:	2303      	movs	r3, #3
 80012da:	e19b      	b.n	8001614 <HAL_RCC_OscConfig+0x4ec>
        while (__HAL_RCC_GET_FLAG(RCC_FLAG_HSIRDY) == RESET)
 80012dc:	4b2d      	ldr	r3, [pc, #180]	; (8001394 <HAL_RCC_OscConfig+0x26c>)
 80012de:	681b      	ldr	r3, [r3, #0]
 80012e0:	f003 0302 	and.w	r3, r3, #2
 80012e4:	2b00      	cmp	r3, #0
 80012e6:	d0f0      	beq.n	80012ca <HAL_RCC_OscConfig+0x1a2>
          }
        }

        /* Adjusts the Internal High Speed oscillator (HSI) calibration value.*/
        __HAL_RCC_HSI_CALIBRATIONVALUE_ADJUST(RCC_OscInitStruct->HSICalibrationValue);
 80012e8:	4b2a      	ldr	r3, [pc, #168]	; (8001394 <HAL_RCC_OscConfig+0x26c>)
 80012ea:	681b      	ldr	r3, [r3, #0]
 80012ec:	f023 02f8 	bic.w	r2, r3, #248	; 0xf8
 80012f0:	687b      	ldr	r3, [r7, #4]
 80012f2:	695b      	ldr	r3, [r3, #20]
 80012f4:	00db      	lsls	r3, r3, #3
 80012f6:	4927      	ldr	r1, [pc, #156]	; (8001394 <HAL_RCC_OscConfig+0x26c>)
 80012f8:	4313      	orrs	r3, r2
 80012fa:	600b      	str	r3, [r1, #0]
 80012fc:	e015      	b.n	800132a <HAL_RCC_OscConfig+0x202>
      }
      else
      {
        /* Disable the Internal High Speed oscillator (HSI). */
        __HAL_RCC_HSI_DISABLE();
 80012fe:	4b26      	ldr	r3, [pc, #152]	; (8001398 <HAL_RCC_OscConfig+0x270>)
 8001300:	2200      	movs	r2, #0
 8001302:	601a      	str	r2, [r3, #0]

        /* Get Start Tick */
        tickstart = HAL_GetTick();
 8001304:	f7ff fc42 	bl	8000b8c <HAL_GetTick>
 8001308:	6138      	str	r0, [r7, #16]

        /* Wait till HSI is disabled */
        while (__HAL_RCC_GET_FLAG(RCC_FLAG_HSIRDY) != RESET)
 800130a:	e008      	b.n	800131e <HAL_RCC_OscConfig+0x1f6>
        {
          if ((HAL_GetTick() - tickstart) > HSI_TIMEOUT_VALUE)
 800130c:	f7ff fc3e 	bl	8000b8c <HAL_GetTick>
 8001310:	4602      	mov	r2, r0
 8001312:	693b      	ldr	r3, [r7, #16]
 8001314:	1ad3      	subs	r3, r2, r3
 8001316:	2b02      	cmp	r3, #2
 8001318:	d901      	bls.n	800131e <HAL_RCC_OscConfig+0x1f6>
          {
            return HAL_TIMEOUT;
 800131a:	2303      	movs	r3, #3
 800131c:	e17a      	b.n	8001614 <HAL_RCC_OscConfig+0x4ec>
        while (__HAL_RCC_GET_FLAG(RCC_FLAG_HSIRDY) != RESET)
 800131e:	4b1d      	ldr	r3, [pc, #116]	; (8001394 <HAL_RCC_OscConfig+0x26c>)
 8001320:	681b      	ldr	r3, [r3, #0]
 8001322:	f003 0302 	and.w	r3, r3, #2
 8001326:	2b00      	cmp	r3, #0
 8001328:	d1f0      	bne.n	800130c <HAL_RCC_OscConfig+0x1e4>
        }
      }
    }
  }
  /*------------------------------ LSI Configuration -------------------------*/
  if (((RCC_OscInitStruct->OscillatorType) & RCC_OSCILLATORTYPE_LSI) == RCC_OSCILLATORTYPE_LSI)
 800132a:	687b      	ldr	r3, [r7, #4]
 800132c:	681b      	ldr	r3, [r3, #0]
 800132e:	f003 0308 	and.w	r3, r3, #8
 8001332:	2b00      	cmp	r3, #0
 8001334:	d03a      	beq.n	80013ac <HAL_RCC_OscConfig+0x284>
  {
    /* Check the parameters */
    assert_param(IS_RCC_LSI(RCC_OscInitStruct->LSIState));

    /* Check the LSI State */
    if (RCC_OscInitStruct->LSIState != RCC_LSI_OFF)
 8001336:	687b      	ldr	r3, [r7, #4]
 8001338:	699b      	ldr	r3, [r3, #24]
 800133a:	2b00      	cmp	r3, #0
 800133c:	d019      	beq.n	8001372 <HAL_RCC_OscConfig+0x24a>
    {
      /* Enable the Internal Low Speed oscillator (LSI). */
      __HAL_RCC_LSI_ENABLE();
 800133e:	4b17      	ldr	r3, [pc, #92]	; (800139c <HAL_RCC_OscConfig+0x274>)
 8001340:	2201      	movs	r2, #1
 8001342:	601a      	str	r2, [r3, #0]

      /* Get Start Tick */
      tickstart = HAL_GetTick();
 8001344:	f7ff fc22 	bl	8000b8c <HAL_GetTick>
 8001348:	6138      	str	r0, [r7, #16]

      /* Wait till LSI is ready */
      while (__HAL_RCC_GET_FLAG(RCC_FLAG_LSIRDY) == RESET)
 800134a:	e008      	b.n	800135e <HAL_RCC_OscConfig+0x236>
      {
        if ((HAL_GetTick() - tickstart) > LSI_TIMEOUT_VALUE)
 800134c:	f7ff fc1e 	bl	8000b8c <HAL_GetTick>
 8001350:	4602      	mov	r2, r0
 8001352:	693b      	ldr	r3, [r7, #16]
 8001354:	1ad3      	subs	r3, r2, r3
 8001356:	2b02      	cmp	r3, #2
 8001358:	d901      	bls.n	800135e <HAL_RCC_OscConfig+0x236>
        {
          return HAL_TIMEOUT;
 800135a:	2303      	movs	r3, #3
 800135c:	e15a      	b.n	8001614 <HAL_RCC_OscConfig+0x4ec>
      while (__HAL_RCC_GET_FLAG(RCC_FLAG_LSIRDY) == RESET)
 800135e:	4b0d      	ldr	r3, [pc, #52]	; (8001394 <HAL_RCC_OscConfig+0x26c>)
 8001360:	6a5b      	ldr	r3, [r3, #36]	; 0x24
 8001362:	f003 0302 	and.w	r3, r3, #2
 8001366:	2b00      	cmp	r3, #0
 8001368:	d0f0      	beq.n	800134c <HAL_RCC_OscConfig+0x224>
        }
      }
      /*  To have a fully stabilized clock in the specified range, a software delay of 1ms
          should be added.*/
      RCC_Delay(1);
 800136a:	2001      	movs	r0, #1
 800136c:	f000 fada 	bl	8001924 <RCC_Delay>
 8001370:	e01c      	b.n	80013ac <HAL_RCC_OscConfig+0x284>
    }
    else
    {
      /* Disable the Internal Low Speed oscillator (LSI). */
      __HAL_RCC_LSI_DISABLE();
 8001372:	4b0a      	ldr	r3, [pc, #40]	; (800139c <HAL_RCC_OscConfig+0x274>)
 8001374:	2200      	movs	r2, #0
 8001376:	601a      	str	r2, [r3, #0]

      /* Get Start Tick */
      tickstart = HAL_GetTick();
 8001378:	f7ff fc08 	bl	8000b8c <HAL_GetTick>
 800137c:	6138      	str	r0, [r7, #16]

      /* Wait till LSI is disabled */
      while (__HAL_RCC_GET_FLAG(RCC_FLAG_LSIRDY) != RESET)
 800137e:	e00f      	b.n	80013a0 <HAL_RCC_OscConfig+0x278>
      {
        if ((HAL_GetTick() - tickstart) > LSI_TIMEOUT_VALUE)
 8001380:	f7ff fc04 	bl	8000b8c <HAL_GetTick>
 8001384:	4602      	mov	r2, r0
 8001386:	693b      	ldr	r3, [r7, #16]
 8001388:	1ad3      	subs	r3, r2, r3
 800138a:	2b02      	cmp	r3, #2
 800138c:	d908      	bls.n	80013a0 <HAL_RCC_OscConfig+0x278>
        {
          return HAL_TIMEOUT;
 800138e:	2303      	movs	r3, #3
 8001390:	e140      	b.n	8001614 <HAL_RCC_OscConfig+0x4ec>
 8001392:	bf00      	nop
 8001394:	40021000 	.word	0x40021000
 8001398:	42420000 	.word	0x42420000
 800139c:	42420480 	.word	0x42420480
      while (__HAL_RCC_GET_FLAG(RCC_FLAG_LSIRDY) != RESET)
 80013a0:	4b9e      	ldr	r3, [pc, #632]	; (800161c <HAL_RCC_OscConfig+0x4f4>)
 80013a2:	6a5b      	ldr	r3, [r3, #36]	; 0x24
 80013a4:	f003 0302 	and.w	r3, r3, #2
 80013a8:	2b00      	cmp	r3, #0
 80013aa:	d1e9      	bne.n	8001380 <HAL_RCC_OscConfig+0x258>
        }
      }
    }
  }
  /*------------------------------ LSE Configuration -------------------------*/
  if (((RCC_OscInitStruct->OscillatorType) & RCC_OSCILLATORTYPE_LSE) == RCC_OSCILLATORTYPE_LSE)
 80013ac:	687b      	ldr	r3, [r7, #4]
 80013ae:	681b      	ldr	r3, [r3, #0]
 80013b0:	f003 0304 	and.w	r3, r3, #4
 80013b4:	2b00      	cmp	r3, #0
 80013b6:	f000 80a6 	beq.w	8001506 <HAL_RCC_OscConfig+0x3de>
  {
    FlagStatus       pwrclkchanged = RESET;
 80013ba:	2300      	movs	r3, #0
 80013bc:	75fb      	strb	r3, [r7, #23]
    /* Check the parameters */
    assert_param(IS_RCC_LSE(RCC_OscInitStruct->LSEState));

    /* Update LSE configuration in Backup Domain control register    */
    /* Requires to enable write access to Backup Domain of necessary */
    if (__HAL_RCC_PWR_IS_CLK_DISABLED())
 80013be:	4b97      	ldr	r3, [pc, #604]	; (800161c <HAL_RCC_OscConfig+0x4f4>)
 80013c0:	69db      	ldr	r3, [r3, #28]
 80013c2:	f003 5380 	and.w	r3, r3, #268435456	; 0x10000000
 80013c6:	2b00      	cmp	r3, #0
 80013c8:	d10d      	bne.n	80013e6 <HAL_RCC_OscConfig+0x2be>
    {
      __HAL_RCC_PWR_CLK_ENABLE();
 80013ca:	4b94      	ldr	r3, [pc, #592]	; (800161c <HAL_RCC_OscConfig+0x4f4>)
 80013cc:	69db      	ldr	r3, [r3, #28]
 80013ce:	4a93      	ldr	r2, [pc, #588]	; (800161c <HAL_RCC_OscConfig+0x4f4>)
 80013d0:	f043 5380 	orr.w	r3, r3, #268435456	; 0x10000000
 80013d4:	61d3      	str	r3, [r2, #28]
 80013d6:	4b91      	ldr	r3, [pc, #580]	; (800161c <HAL_RCC_OscConfig+0x4f4>)
 80013d8:	69db      	ldr	r3, [r3, #28]
 80013da:	f003 5380 	and.w	r3, r3, #268435456	; 0x10000000
 80013de:	60bb      	str	r3, [r7, #8]
 80013e0:	68bb      	ldr	r3, [r7, #8]
      pwrclkchanged = SET;
 80013e2:	2301      	movs	r3, #1
 80013e4:	75fb      	strb	r3, [r7, #23]
    }

    if (HAL_IS_BIT_CLR(PWR->CR, PWR_CR_DBP))
 80013e6:	4b8e      	ldr	r3, [pc, #568]	; (8001620 <HAL_RCC_OscConfig+0x4f8>)
 80013e8:	681b      	ldr	r3, [r3, #0]
 80013ea:	f403 7380 	and.w	r3, r3, #256	; 0x100
 80013ee:	2b00      	cmp	r3, #0
 80013f0:	d118      	bne.n	8001424 <HAL_RCC_OscConfig+0x2fc>
    {
      /* Enable write access to Backup domain */
      SET_BIT(PWR->CR, PWR_CR_DBP);
 80013f2:	4b8b      	ldr	r3, [pc, #556]	; (8001620 <HAL_RCC_OscConfig+0x4f8>)
 80013f4:	681b      	ldr	r3, [r3, #0]
 80013f6:	4a8a      	ldr	r2, [pc, #552]	; (8001620 <HAL_RCC_OscConfig+0x4f8>)
 80013f8:	f443 7380 	orr.w	r3, r3, #256	; 0x100
 80013fc:	6013      	str	r3, [r2, #0]

      /* Wait for Backup domain Write protection disable */
      tickstart = HAL_GetTick();
 80013fe:	f7ff fbc5 	bl	8000b8c <HAL_GetTick>
 8001402:	6138      	str	r0, [r7, #16]

      while (HAL_IS_BIT_CLR(PWR->CR, PWR_CR_DBP))
 8001404:	e008      	b.n	8001418 <HAL_RCC_OscConfig+0x2f0>
      {
        if ((HAL_GetTick() - tickstart) > RCC_DBP_TIMEOUT_VALUE)
 8001406:	f7ff fbc1 	bl	8000b8c <HAL_GetTick>
 800140a:	4602      	mov	r2, r0
 800140c:	693b      	ldr	r3, [r7, #16]
 800140e:	1ad3      	subs	r3, r2, r3
 8001410:	2b64      	cmp	r3, #100	; 0x64
 8001412:	d901      	bls.n	8001418 <HAL_RCC_OscConfig+0x2f0>
        {
          return HAL_TIMEOUT;
 8001414:	2303      	movs	r3, #3
 8001416:	e0fd      	b.n	8001614 <HAL_RCC_OscConfig+0x4ec>
      while (HAL_IS_BIT_CLR(PWR->CR, PWR_CR_DBP))
 8001418:	4b81      	ldr	r3, [pc, #516]	; (8001620 <HAL_RCC_OscConfig+0x4f8>)
 800141a:	681b      	ldr	r3, [r3, #0]
 800141c:	f403 7380 	and.w	r3, r3, #256	; 0x100
 8001420:	2b00      	cmp	r3, #0
 8001422:	d0f0      	beq.n	8001406 <HAL_RCC_OscConfig+0x2de>
        }
      }
    }

    /* Set the new LSE configuration -----------------------------------------*/
    __HAL_RCC_LSE_CONFIG(RCC_OscInitStruct->LSEState);
 8001424:	687b      	ldr	r3, [r7, #4]
 8001426:	68db      	ldr	r3, [r3, #12]
 8001428:	2b01      	cmp	r3, #1
 800142a:	d106      	bne.n	800143a <HAL_RCC_OscConfig+0x312>
 800142c:	4b7b      	ldr	r3, [pc, #492]	; (800161c <HAL_RCC_OscConfig+0x4f4>)
 800142e:	6a1b      	ldr	r3, [r3, #32]
 8001430:	4a7a      	ldr	r2, [pc, #488]	; (800161c <HAL_RCC_OscConfig+0x4f4>)
 8001432:	f043 0301 	orr.w	r3, r3, #1
 8001436:	6213      	str	r3, [r2, #32]
 8001438:	e02d      	b.n	8001496 <HAL_RCC_OscConfig+0x36e>
 800143a:	687b      	ldr	r3, [r7, #4]
 800143c:	68db      	ldr	r3, [r3, #12]
 800143e:	2b00      	cmp	r3, #0
 8001440:	d10c      	bne.n	800145c <HAL_RCC_OscConfig+0x334>
 8001442:	4b76      	ldr	r3, [pc, #472]	; (800161c <HAL_RCC_OscConfig+0x4f4>)
 8001444:	6a1b      	ldr	r3, [r3, #32]
 8001446:	4a75      	ldr	r2, [pc, #468]	; (800161c <HAL_RCC_OscConfig+0x4f4>)
 8001448:	f023 0301 	bic.w	r3, r3, #1
 800144c:	6213      	str	r3, [r2, #32]
 800144e:	4b73      	ldr	r3, [pc, #460]	; (800161c <HAL_RCC_OscConfig+0x4f4>)
 8001450:	6a1b      	ldr	r3, [r3, #32]
 8001452:	4a72      	ldr	r2, [pc, #456]	; (800161c <HAL_RCC_OscConfig+0x4f4>)
 8001454:	f023 0304 	bic.w	r3, r3, #4
 8001458:	6213      	str	r3, [r2, #32]
 800145a:	e01c      	b.n	8001496 <HAL_RCC_OscConfig+0x36e>
 800145c:	687b      	ldr	r3, [r7, #4]
 800145e:	68db      	ldr	r3, [r3, #12]
 8001460:	2b05      	cmp	r3, #5
 8001462:	d10c      	bne.n	800147e <HAL_RCC_OscConfig+0x356>
 8001464:	4b6d      	ldr	r3, [pc, #436]	; (800161c <HAL_RCC_OscConfig+0x4f4>)
 8001466:	6a1b      	ldr	r3, [r3, #32]
 8001468:	4a6c      	ldr	r2, [pc, #432]	; (800161c <HAL_RCC_OscConfig+0x4f4>)
 800146a:	f043 0304 	orr.w	r3, r3, #4
 800146e:	6213      	str	r3, [r2, #32]
 8001470:	4b6a      	ldr	r3, [pc, #424]	; (800161c <HAL_RCC_OscConfig+0x4f4>)
 8001472:	6a1b      	ldr	r3, [r3, #32]
 8001474:	4a69      	ldr	r2, [pc, #420]	; (800161c <HAL_RCC_OscConfig+0x4f4>)
 8001476:	f043 0301 	orr.w	r3, r3, #1
 800147a:	6213      	str	r3, [r2, #32]
 800147c:	e00b      	b.n	8001496 <HAL_RCC_OscConfig+0x36e>
 800147e:	4b67      	ldr	r3, [pc, #412]	; (800161c <HAL_RCC_OscConfig+0x4f4>)
 8001480:	6a1b      	ldr	r3, [r3, #32]
 8001482:	4a66      	ldr	r2, [pc, #408]	; (800161c <HAL_RCC_OscConfig+0x4f4>)
 8001484:	f023 0301 	bic.w	r3, r3, #1
 8001488:	6213      	str	r3, [r2, #32]
 800148a:	4b64      	ldr	r3, [pc, #400]	; (800161c <HAL_RCC_OscConfig+0x4f4>)
 800148c:	6a1b      	ldr	r3, [r3, #32]
 800148e:	4a63      	ldr	r2, [pc, #396]	; (800161c <HAL_RCC_OscConfig+0x4f4>)
 8001490:	f023 0304 	bic.w	r3, r3, #4
 8001494:	6213      	str	r3, [r2, #32]
    /* Check the LSE State */
    if (RCC_OscInitStruct->LSEState != RCC_LSE_OFF)
 8001496:	687b      	ldr	r3, [r7, #4]
 8001498:	68db      	ldr	r3, [r3, #12]
 800149a:	2b00      	cmp	r3, #0
 800149c:	d015      	beq.n	80014ca <HAL_RCC_OscConfig+0x3a2>
    {
      /* Get Start Tick */
      tickstart = HAL_GetTick();
 800149e:	f7ff fb75 	bl	8000b8c <HAL_GetTick>
 80014a2:	6138      	str	r0, [r7, #16]

      /* Wait till LSE is ready */
      while (__HAL_RCC_GET_FLAG(RCC_FLAG_LSERDY) == RESET)
 80014a4:	e00a      	b.n	80014bc <HAL_RCC_OscConfig+0x394>
      {
        if ((HAL_GetTick() - tickstart) > RCC_LSE_TIMEOUT_VALUE)
 80014a6:	f7ff fb71 	bl	8000b8c <HAL_GetTick>
 80014aa:	4602      	mov	r2, r0
 80014ac:	693b      	ldr	r3, [r7, #16]
 80014ae:	1ad3      	subs	r3, r2, r3
 80014b0:	f241 3288 	movw	r2, #5000	; 0x1388
 80014b4:	4293      	cmp	r3, r2
 80014b6:	d901      	bls.n	80014bc <HAL_RCC_OscConfig+0x394>
        {
          return HAL_TIMEOUT;
 80014b8:	2303      	movs	r3, #3
 80014ba:	e0ab      	b.n	8001614 <HAL_RCC_OscConfig+0x4ec>
      while (__HAL_RCC_GET_FLAG(RCC_FLAG_LSERDY) == RESET)
 80014bc:	4b57      	ldr	r3, [pc, #348]	; (800161c <HAL_RCC_OscConfig+0x4f4>)
 80014be:	6a1b      	ldr	r3, [r3, #32]
 80014c0:	f003 0302 	and.w	r3, r3, #2
 80014c4:	2b00      	cmp	r3, #0
 80014c6:	d0ee      	beq.n	80014a6 <HAL_RCC_OscConfig+0x37e>
 80014c8:	e014      	b.n	80014f4 <HAL_RCC_OscConfig+0x3cc>
      }
    }
    else
    {
      /* Get Start Tick */
      tickstart = HAL_GetTick();
 80014ca:	f7ff fb5f 	bl	8000b8c <HAL_GetTick>
 80014ce:	6138      	str	r0, [r7, #16]

      /* Wait till LSE is disabled */
      while (__HAL_RCC_GET_FLAG(RCC_FLAG_LSERDY) != RESET)
 80014d0:	e00a      	b.n	80014e8 <HAL_RCC_OscConfig+0x3c0>
      {
        if ((HAL_GetTick() - tickstart) > RCC_LSE_TIMEOUT_VALUE)
 80014d2:	f7ff fb5b 	bl	8000b8c <HAL_GetTick>
 80014d6:	4602      	mov	r2, r0
 80014d8:	693b      	ldr	r3, [r7, #16]
 80014da:	1ad3      	subs	r3, r2, r3
 80014dc:	f241 3288 	movw	r2, #5000	; 0x1388
 80014e0:	4293      	cmp	r3, r2
 80014e2:	d901      	bls.n	80014e8 <HAL_RCC_OscConfig+0x3c0>
        {
          return HAL_TIMEOUT;
 80014e4:	2303      	movs	r3, #3
 80014e6:	e095      	b.n	8001614 <HAL_RCC_OscConfig+0x4ec>
      while (__HAL_RCC_GET_FLAG(RCC_FLAG_LSERDY) != RESET)
 80014e8:	4b4c      	ldr	r3, [pc, #304]	; (800161c <HAL_RCC_OscConfig+0x4f4>)
 80014ea:	6a1b      	ldr	r3, [r3, #32]
 80014ec:	f003 0302 	and.w	r3, r3, #2
 80014f0:	2b00      	cmp	r3, #0
 80014f2:	d1ee      	bne.n	80014d2 <HAL_RCC_OscConfig+0x3aa>
        }
      }
    }

    /* Require to disable power clock if necessary */
    if (pwrclkchanged == SET)
 80014f4:	7dfb      	ldrb	r3, [r7, #23]
 80014f6:	2b01      	cmp	r3, #1
 80014f8:	d105      	bne.n	8001506 <HAL_RCC_OscConfig+0x3de>
    {
      __HAL_RCC_PWR_CLK_DISABLE();
 80014fa:	4b48      	ldr	r3, [pc, #288]	; (800161c <HAL_RCC_OscConfig+0x4f4>)
 80014fc:	69db      	ldr	r3, [r3, #28]
 80014fe:	4a47      	ldr	r2, [pc, #284]	; (800161c <HAL_RCC_OscConfig+0x4f4>)
 8001500:	f023 5380 	bic.w	r3, r3, #268435456	; 0x10000000
 8001504:	61d3      	str	r3, [r2, #28]

#endif /* RCC_CR_PLL2ON */
  /*-------------------------------- PLL Configuration -----------------------*/
  /* Check the parameters */
  assert_param(IS_RCC_PLL(RCC_OscInitStruct->PLL.PLLState));
  if ((RCC_OscInitStruct->PLL.PLLState) != RCC_PLL_NONE)
 8001506:	687b      	ldr	r3, [r7, #4]
 8001508:	69db      	ldr	r3, [r3, #28]
 800150a:	2b00      	cmp	r3, #0
 800150c:	f000 8081 	beq.w	8001612 <HAL_RCC_OscConfig+0x4ea>
  {
    /* Check if the PLL is used as system clock or not */
    if (__HAL_RCC_GET_SYSCLK_SOURCE() != RCC_SYSCLKSOURCE_STATUS_PLLCLK)
 8001510:	4b42      	ldr	r3, [pc, #264]	; (800161c <HAL_RCC_OscConfig+0x4f4>)
 8001512:	685b      	ldr	r3, [r3, #4]
 8001514:	f003 030c 	and.w	r3, r3, #12
 8001518:	2b08      	cmp	r3, #8
 800151a:	d061      	beq.n	80015e0 <HAL_RCC_OscConfig+0x4b8>
    {
      if ((RCC_OscInitStruct->PLL.PLLState) == RCC_PLL_ON)
 800151c:	687b      	ldr	r3, [r7, #4]
 800151e:	69db      	ldr	r3, [r3, #28]
 8001520:	2b02      	cmp	r3, #2
 8001522:	d146      	bne.n	80015b2 <HAL_RCC_OscConfig+0x48a>
        /* Check the parameters */
        assert_param(IS_RCC_PLLSOURCE(RCC_OscInitStruct->PLL.PLLSource));
        assert_param(IS_RCC_PLL_MUL(RCC_OscInitStruct->PLL.PLLMUL));

        /* Disable the main PLL. */
        __HAL_RCC_PLL_DISABLE();
 8001524:	4b3f      	ldr	r3, [pc, #252]	; (8001624 <HAL_RCC_OscConfig+0x4fc>)
 8001526:	2200      	movs	r2, #0
 8001528:	601a      	str	r2, [r3, #0]

        /* Get Start Tick */
        tickstart = HAL_GetTick();
 800152a:	f7ff fb2f 	bl	8000b8c <HAL_GetTick>
 800152e:	6138      	str	r0, [r7, #16]

        /* Wait till PLL is disabled */
        while (__HAL_RCC_GET_FLAG(RCC_FLAG_PLLRDY)  != RESET)
 8001530:	e008      	b.n	8001544 <HAL_RCC_OscConfig+0x41c>
        {
          if ((HAL_GetTick() - tickstart) > PLL_TIMEOUT_VALUE)
 8001532:	f7ff fb2b 	bl	8000b8c <HAL_GetTick>
 8001536:	4602      	mov	r2, r0
 8001538:	693b      	ldr	r3, [r7, #16]
 800153a:	1ad3      	subs	r3, r2, r3
 800153c:	2b02      	cmp	r3, #2
 800153e:	d901      	bls.n	8001544 <HAL_RCC_OscConfig+0x41c>
          {
            return HAL_TIMEOUT;
 8001540:	2303      	movs	r3, #3
 8001542:	e067      	b.n	8001614 <HAL_RCC_OscConfig+0x4ec>
        while (__HAL_RCC_GET_FLAG(RCC_FLAG_PLLRDY)  != RESET)
 8001544:	4b35      	ldr	r3, [pc, #212]	; (800161c <HAL_RCC_OscConfig+0x4f4>)
 8001546:	681b      	ldr	r3, [r3, #0]
 8001548:	f003 7300 	and.w	r3, r3, #33554432	; 0x2000000
 800154c:	2b00      	cmp	r3, #0
 800154e:	d1f0      	bne.n	8001532 <HAL_RCC_OscConfig+0x40a>
          }
        }

        /* Configure the HSE prediv factor --------------------------------*/
        /* It can be written only when the PLL is disabled. Not used in PLL source is different than HSE */
        if (RCC_OscInitStruct->PLL.PLLSource == RCC_PLLSOURCE_HSE)
 8001550:	687b      	ldr	r3, [r7, #4]
 8001552:	6a1b      	ldr	r3, [r3, #32]
 8001554:	f5b3 3f80 	cmp.w	r3, #65536	; 0x10000
 8001558:	d108      	bne.n	800156c <HAL_RCC_OscConfig+0x444>
          /* Set PREDIV1 source */
          SET_BIT(RCC->CFGR2, RCC_OscInitStruct->Prediv1Source);
#endif /* RCC_CFGR2_PREDIV1SRC */

          /* Set PREDIV1 Value */
          __HAL_RCC_HSE_PREDIV_CONFIG(RCC_OscInitStruct->HSEPredivValue);
 800155a:	4b30      	ldr	r3, [pc, #192]	; (800161c <HAL_RCC_OscConfig+0x4f4>)
 800155c:	685b      	ldr	r3, [r3, #4]
 800155e:	f423 3200 	bic.w	r2, r3, #131072	; 0x20000
 8001562:	687b      	ldr	r3, [r7, #4]
 8001564:	689b      	ldr	r3, [r3, #8]
 8001566:	492d      	ldr	r1, [pc, #180]	; (800161c <HAL_RCC_OscConfig+0x4f4>)
 8001568:	4313      	orrs	r3, r2
 800156a:	604b      	str	r3, [r1, #4]
        }

        /* Configure the main PLL clock source and multiplication factors. */
        __HAL_RCC_PLL_CONFIG(RCC_OscInitStruct->PLL.PLLSource,
 800156c:	4b2b      	ldr	r3, [pc, #172]	; (800161c <HAL_RCC_OscConfig+0x4f4>)
 800156e:	685b      	ldr	r3, [r3, #4]
 8001570:	f423 1274 	bic.w	r2, r3, #3997696	; 0x3d0000
 8001574:	687b      	ldr	r3, [r7, #4]
 8001576:	6a19      	ldr	r1, [r3, #32]
 8001578:	687b      	ldr	r3, [r7, #4]
 800157a:	6a5b      	ldr	r3, [r3, #36]	; 0x24
 800157c:	430b      	orrs	r3, r1
 800157e:	4927      	ldr	r1, [pc, #156]	; (800161c <HAL_RCC_OscConfig+0x4f4>)
 8001580:	4313      	orrs	r3, r2
 8001582:	604b      	str	r3, [r1, #4]
                             RCC_OscInitStruct->PLL.PLLMUL);
        /* Enable the main PLL. */
        __HAL_RCC_PLL_ENABLE();
 8001584:	4b27      	ldr	r3, [pc, #156]	; (8001624 <HAL_RCC_OscConfig+0x4fc>)
 8001586:	2201      	movs	r2, #1
 8001588:	601a      	str	r2, [r3, #0]

        /* Get Start Tick */
        tickstart = HAL_GetTick();
 800158a:	f7ff faff 	bl	8000b8c <HAL_GetTick>
 800158e:	6138      	str	r0, [r7, #16]

        /* Wait till PLL is ready */
        while (__HAL_RCC_GET_FLAG(RCC_FLAG_PLLRDY)  == RESET)
 8001590:	e008      	b.n	80015a4 <HAL_RCC_OscConfig+0x47c>
        {
          if ((HAL_GetTick() - tickstart) > PLL_TIMEOUT_VALUE)
 8001592:	f7ff fafb 	bl	8000b8c <HAL_GetTick>
 8001596:	4602      	mov	r2, r0
 8001598:	693b      	ldr	r3, [r7, #16]
 800159a:	1ad3      	subs	r3, r2, r3
 800159c:	2b02      	cmp	r3, #2
 800159e:	d901      	bls.n	80015a4 <HAL_RCC_OscConfig+0x47c>
          {
            return HAL_TIMEOUT;
 80015a0:	2303      	movs	r3, #3
 80015a2:	e037      	b.n	8001614 <HAL_RCC_OscConfig+0x4ec>
        while (__HAL_RCC_GET_FLAG(RCC_FLAG_PLLRDY)  == RESET)
 80015a4:	4b1d      	ldr	r3, [pc, #116]	; (800161c <HAL_RCC_OscConfig+0x4f4>)
 80015a6:	681b      	ldr	r3, [r3, #0]
 80015a8:	f003 7300 	and.w	r3, r3, #33554432	; 0x2000000
 80015ac:	2b00      	cmp	r3, #0
 80015ae:	d0f0      	beq.n	8001592 <HAL_RCC_OscConfig+0x46a>
 80015b0:	e02f      	b.n	8001612 <HAL_RCC_OscConfig+0x4ea>
        }
      }
      else
      {
        /* Disable the main PLL. */
        __HAL_RCC_PLL_DISABLE();
 80015b2:	4b1c      	ldr	r3, [pc, #112]	; (8001624 <HAL_RCC_OscConfig+0x4fc>)
 80015b4:	2200      	movs	r2, #0
 80015b6:	601a      	str	r2, [r3, #0]

        /* Get Start Tick */
        tickstart = HAL_GetTick();
 80015b8:	f7ff fae8 	bl	8000b8c <HAL_GetTick>
 80015bc:	6138      	str	r0, [r7, #16]

        /* Wait till PLL is disabled */
        while (__HAL_RCC_GET_FLAG(RCC_FLAG_PLLRDY)  != RESET)
 80015be:	e008      	b.n	80015d2 <HAL_RCC_OscConfig+0x4aa>
        {
          if ((HAL_GetTick() - tickstart) > PLL_TIMEOUT_VALUE)
 80015c0:	f7ff fae4 	bl	8000b8c <HAL_GetTick>
 80015c4:	4602      	mov	r2, r0
 80015c6:	693b      	ldr	r3, [r7, #16]
 80015c8:	1ad3      	subs	r3, r2, r3
 80015ca:	2b02      	cmp	r3, #2
 80015cc:	d901      	bls.n	80015d2 <HAL_RCC_OscConfig+0x4aa>
          {
            return HAL_TIMEOUT;
 80015ce:	2303      	movs	r3, #3
 80015d0:	e020      	b.n	8001614 <HAL_RCC_OscConfig+0x4ec>
        while (__HAL_RCC_GET_FLAG(RCC_FLAG_PLLRDY)  != RESET)
 80015d2:	4b12      	ldr	r3, [pc, #72]	; (800161c <HAL_RCC_OscConfig+0x4f4>)
 80015d4:	681b      	ldr	r3, [r3, #0]
 80015d6:	f003 7300 	and.w	r3, r3, #33554432	; 0x2000000
 80015da:	2b00      	cmp	r3, #0
 80015dc:	d1f0      	bne.n	80015c0 <HAL_RCC_OscConfig+0x498>
 80015de:	e018      	b.n	8001612 <HAL_RCC_OscConfig+0x4ea>
      }
    }
    else
    {
      /* Check if there is a request to disable the PLL used as System clock source */
      if ((RCC_OscInitStruct->PLL.PLLState) == RCC_PLL_OFF)
 80015e0:	687b      	ldr	r3, [r7, #4]
 80015e2:	69db      	ldr	r3, [r3, #28]
 80015e4:	2b01      	cmp	r3, #1
 80015e6:	d101      	bne.n	80015ec <HAL_RCC_OscConfig+0x4c4>
      {
        return HAL_ERROR;
 80015e8:	2301      	movs	r3, #1
 80015ea:	e013      	b.n	8001614 <HAL_RCC_OscConfig+0x4ec>
      }
      else
      {
        /* Do not return HAL_ERROR if request repeats the current configuration */
        pll_config = RCC->CFGR;
 80015ec:	4b0b      	ldr	r3, [pc, #44]	; (800161c <HAL_RCC_OscConfig+0x4f4>)
 80015ee:	685b      	ldr	r3, [r3, #4]
 80015f0:	60fb      	str	r3, [r7, #12]
        if ((READ_BIT(pll_config, RCC_CFGR_PLLSRC) != RCC_OscInitStruct->PLL.PLLSource) ||
 80015f2:	68fb      	ldr	r3, [r7, #12]
 80015f4:	f403 3280 	and.w	r2, r3, #65536	; 0x10000
 80015f8:	687b      	ldr	r3, [r7, #4]
 80015fa:	6a1b      	ldr	r3, [r3, #32]
 80015fc:	429a      	cmp	r2, r3
 80015fe:	d106      	bne.n	800160e <HAL_RCC_OscConfig+0x4e6>
            (READ_BIT(pll_config, RCC_CFGR_PLLMULL) != RCC_OscInitStruct->PLL.PLLMUL))
 8001600:	68fb      	ldr	r3, [r7, #12]
 8001602:	f403 1270 	and.w	r2, r3, #3932160	; 0x3c0000
 8001606:	687b      	ldr	r3, [r7, #4]
 8001608:	6a5b      	ldr	r3, [r3, #36]	; 0x24
        if ((READ_BIT(pll_config, RCC_CFGR_PLLSRC) != RCC_OscInitStruct->PLL.PLLSource) ||
 800160a:	429a      	cmp	r2, r3
 800160c:	d001      	beq.n	8001612 <HAL_RCC_OscConfig+0x4ea>
        {
          return HAL_ERROR;
 800160e:	2301      	movs	r3, #1
 8001610:	e000      	b.n	8001614 <HAL_RCC_OscConfig+0x4ec>
        }
      }
    }
  }

  return HAL_OK;
 8001612:	2300      	movs	r3, #0
}
 8001614:	4618      	mov	r0, r3
 8001616:	3718      	adds	r7, #24
 8001618:	46bd      	mov	sp, r7
 800161a:	bd80      	pop	{r7, pc}
 800161c:	40021000 	.word	0x40021000
 8001620:	40007000 	.word	0x40007000
 8001624:	42420060 	.word	0x42420060

08001628 <HAL_RCC_ClockConfig>:
  *         You can use @ref HAL_RCC_GetClockConfig() function to know which clock is
  *         currently used as system clock source.
  * @retval HAL status
  */
HAL_StatusTypeDef HAL_RCC_ClockConfig(RCC_ClkInitTypeDef  *RCC_ClkInitStruct, uint32_t FLatency)
{
 8001628:	b580      	push	{r7, lr}
 800162a:	b084      	sub	sp, #16
 800162c:	af00      	add	r7, sp, #0
 800162e:	6078      	str	r0, [r7, #4]
 8001630:	6039      	str	r1, [r7, #0]
  uint32_t tickstart;

  /* Check Null pointer */
  if (RCC_ClkInitStruct == NULL)
 8001632:	687b      	ldr	r3, [r7, #4]
 8001634:	2b00      	cmp	r3, #0
 8001636:	d101      	bne.n	800163c <HAL_RCC_ClockConfig+0x14>
  {
    return HAL_ERROR;
 8001638:	2301      	movs	r3, #1
 800163a:	e0d0      	b.n	80017de <HAL_RCC_ClockConfig+0x1b6>
  must be correctly programmed according to the frequency of the CPU clock
    (HCLK) of the device. */

#if defined(FLASH_ACR_LATENCY)
  /* Increasing the number of wait states because of higher CPU frequency */
  if (FLatency > __HAL_FLASH_GET_LATENCY())
 800163c:	4b6a      	ldr	r3, [pc, #424]	; (80017e8 <HAL_RCC_ClockConfig+0x1c0>)
 800163e:	681b      	ldr	r3, [r3, #0]
 8001640:	f003 0307 	and.w	r3, r3, #7
 8001644:	683a      	ldr	r2, [r7, #0]
 8001646:	429a      	cmp	r2, r3
 8001648:	d910      	bls.n	800166c <HAL_RCC_ClockConfig+0x44>
  {
    /* Program the new number of wait states to the LATENCY bits in the FLASH_ACR register */
    __HAL_FLASH_SET_LATENCY(FLatency);
 800164a:	4b67      	ldr	r3, [pc, #412]	; (80017e8 <HAL_RCC_ClockConfig+0x1c0>)
 800164c:	681b      	ldr	r3, [r3, #0]
 800164e:	f023 0207 	bic.w	r2, r3, #7
 8001652:	4965      	ldr	r1, [pc, #404]	; (80017e8 <HAL_RCC_ClockConfig+0x1c0>)
 8001654:	683b      	ldr	r3, [r7, #0]
 8001656:	4313      	orrs	r3, r2
 8001658:	600b      	str	r3, [r1, #0]

    /* Check that the new number of wait states is taken into account to access the Flash
    memory by reading the FLASH_ACR register */
    if (__HAL_FLASH_GET_LATENCY() != FLatency)
 800165a:	4b63      	ldr	r3, [pc, #396]	; (80017e8 <HAL_RCC_ClockConfig+0x1c0>)
 800165c:	681b      	ldr	r3, [r3, #0]
 800165e:	f003 0307 	and.w	r3, r3, #7
 8001662:	683a      	ldr	r2, [r7, #0]
 8001664:	429a      	cmp	r2, r3
 8001666:	d001      	beq.n	800166c <HAL_RCC_ClockConfig+0x44>
  {
    return HAL_ERROR;
 8001668:	2301      	movs	r3, #1
 800166a:	e0b8      	b.n	80017de <HAL_RCC_ClockConfig+0x1b6>
  }
}

#endif /* FLASH_ACR_LATENCY */
/*-------------------------- HCLK Configuration --------------------------*/
if (((RCC_ClkInitStruct->ClockType) & RCC_CLOCKTYPE_HCLK) == RCC_CLOCKTYPE_HCLK)
 800166c:	687b      	ldr	r3, [r7, #4]
 800166e:	681b      	ldr	r3, [r3, #0]
 8001670:	f003 0302 	and.w	r3, r3, #2
 8001674:	2b00      	cmp	r3, #0
 8001676:	d020      	beq.n	80016ba <HAL_RCC_ClockConfig+0x92>
  {
    /* Set the highest APBx dividers in order to ensure that we do not go through
    a non-spec phase whatever we decrease or increase HCLK. */
    if (((RCC_ClkInitStruct->ClockType) & RCC_CLOCKTYPE_PCLK1) == RCC_CLOCKTYPE_PCLK1)
 8001678:	687b      	ldr	r3, [r7, #4]
 800167a:	681b      	ldr	r3, [r3, #0]
 800167c:	f003 0304 	and.w	r3, r3, #4
 8001680:	2b00      	cmp	r3, #0
 8001682:	d005      	beq.n	8001690 <HAL_RCC_ClockConfig+0x68>
    {
      MODIFY_REG(RCC->CFGR, RCC_CFGR_PPRE1, RCC_HCLK_DIV16);
 8001684:	4b59      	ldr	r3, [pc, #356]	; (80017ec <HAL_RCC_ClockConfig+0x1c4>)
 8001686:	685b      	ldr	r3, [r3, #4]
 8001688:	4a58      	ldr	r2, [pc, #352]	; (80017ec <HAL_RCC_ClockConfig+0x1c4>)
 800168a:	f443 63e0 	orr.w	r3, r3, #1792	; 0x700
 800168e:	6053      	str	r3, [r2, #4]
    }

    if (((RCC_ClkInitStruct->ClockType) & RCC_CLOCKTYPE_PCLK2) == RCC_CLOCKTYPE_PCLK2)
 8001690:	687b      	ldr	r3, [r7, #4]
 8001692:	681b      	ldr	r3, [r3, #0]
 8001694:	f003 0308 	and.w	r3, r3, #8
 8001698:	2b00      	cmp	r3, #0
 800169a:	d005      	beq.n	80016a8 <HAL_RCC_ClockConfig+0x80>
    {
      MODIFY_REG(RCC->CFGR, RCC_CFGR_PPRE2, (RCC_HCLK_DIV16 << 3));
 800169c:	4b53      	ldr	r3, [pc, #332]	; (80017ec <HAL_RCC_ClockConfig+0x1c4>)
 800169e:	685b      	ldr	r3, [r3, #4]
 80016a0:	4a52      	ldr	r2, [pc, #328]	; (80017ec <HAL_RCC_ClockConfig+0x1c4>)
 80016a2:	f443 5360 	orr.w	r3, r3, #14336	; 0x3800
 80016a6:	6053      	str	r3, [r2, #4]
    }

    /* Set the new HCLK clock divider */
    assert_param(IS_RCC_HCLK(RCC_ClkInitStruct->AHBCLKDivider));
    MODIFY_REG(RCC->CFGR, RCC_CFGR_HPRE, RCC_ClkInitStruct->AHBCLKDivider);
 80016a8:	4b50      	ldr	r3, [pc, #320]	; (80017ec <HAL_RCC_ClockConfig+0x1c4>)
 80016aa:	685b      	ldr	r3, [r3, #4]
 80016ac:	f023 02f0 	bic.w	r2, r3, #240	; 0xf0
 80016b0:	687b      	ldr	r3, [r7, #4]
 80016b2:	689b      	ldr	r3, [r3, #8]
 80016b4:	494d      	ldr	r1, [pc, #308]	; (80017ec <HAL_RCC_ClockConfig+0x1c4>)
 80016b6:	4313      	orrs	r3, r2
 80016b8:	604b      	str	r3, [r1, #4]
  }

  /*------------------------- SYSCLK Configuration ---------------------------*/
  if (((RCC_ClkInitStruct->ClockType) & RCC_CLOCKTYPE_SYSCLK) == RCC_CLOCKTYPE_SYSCLK)
 80016ba:	687b      	ldr	r3, [r7, #4]
 80016bc:	681b      	ldr	r3, [r3, #0]
 80016be:	f003 0301 	and.w	r3, r3, #1
 80016c2:	2b00      	cmp	r3, #0
 80016c4:	d040      	beq.n	8001748 <HAL_RCC_ClockConfig+0x120>
  {
    assert_param(IS_RCC_SYSCLKSOURCE(RCC_ClkInitStruct->SYSCLKSource));

    /* HSE is selected as System Clock Source */
    if (RCC_ClkInitStruct->SYSCLKSource == RCC_SYSCLKSOURCE_HSE)
 80016c6:	687b      	ldr	r3, [r7, #4]
 80016c8:	685b      	ldr	r3, [r3, #4]
 80016ca:	2b01      	cmp	r3, #1
 80016cc:	d107      	bne.n	80016de <HAL_RCC_ClockConfig+0xb6>
    {
      /* Check the HSE ready flag */
      if (__HAL_RCC_GET_FLAG(RCC_FLAG_HSERDY) == RESET)
 80016ce:	4b47      	ldr	r3, [pc, #284]	; (80017ec <HAL_RCC_ClockConfig+0x1c4>)
 80016d0:	681b      	ldr	r3, [r3, #0]
 80016d2:	f403 3300 	and.w	r3, r3, #131072	; 0x20000
 80016d6:	2b00      	cmp	r3, #0
 80016d8:	d115      	bne.n	8001706 <HAL_RCC_ClockConfig+0xde>
      {
        return HAL_ERROR;
 80016da:	2301      	movs	r3, #1
 80016dc:	e07f      	b.n	80017de <HAL_RCC_ClockConfig+0x1b6>
      }
    }
    /* PLL is selected as System Clock Source */
    else if (RCC_ClkInitStruct->SYSCLKSource == RCC_SYSCLKSOURCE_PLLCLK)
 80016de:	687b      	ldr	r3, [r7, #4]
 80016e0:	685b      	ldr	r3, [r3, #4]
 80016e2:	2b02      	cmp	r3, #2
 80016e4:	d107      	bne.n	80016f6 <HAL_RCC_ClockConfig+0xce>
    {
      /* Check the PLL ready flag */
      if (__HAL_RCC_GET_FLAG(RCC_FLAG_PLLRDY) == RESET)
 80016e6:	4b41      	ldr	r3, [pc, #260]	; (80017ec <HAL_RCC_ClockConfig+0x1c4>)
 80016e8:	681b      	ldr	r3, [r3, #0]
 80016ea:	f003 7300 	and.w	r3, r3, #33554432	; 0x2000000
 80016ee:	2b00      	cmp	r3, #0
 80016f0:	d109      	bne.n	8001706 <HAL_RCC_ClockConfig+0xde>
      {
        return HAL_ERROR;
 80016f2:	2301      	movs	r3, #1
 80016f4:	e073      	b.n	80017de <HAL_RCC_ClockConfig+0x1b6>
    }
    /* HSI is selected as System Clock Source */
    else
    {
      /* Check the HSI ready flag */
      if (__HAL_RCC_GET_FLAG(RCC_FLAG_HSIRDY) == RESET)
 80016f6:	4b3d      	ldr	r3, [pc, #244]	; (80017ec <HAL_RCC_ClockConfig+0x1c4>)
 80016f8:	681b      	ldr	r3, [r3, #0]
 80016fa:	f003 0302 	and.w	r3, r3, #2
 80016fe:	2b00      	cmp	r3, #0
 8001700:	d101      	bne.n	8001706 <HAL_RCC_ClockConfig+0xde>
      {
        return HAL_ERROR;
 8001702:	2301      	movs	r3, #1
 8001704:	e06b      	b.n	80017de <HAL_RCC_ClockConfig+0x1b6>
      }
    }
    __HAL_RCC_SYSCLK_CONFIG(RCC_ClkInitStruct->SYSCLKSource);
 8001706:	4b39      	ldr	r3, [pc, #228]	; (80017ec <HAL_RCC_ClockConfig+0x1c4>)
 8001708:	685b      	ldr	r3, [r3, #4]
 800170a:	f023 0203 	bic.w	r2, r3, #3
 800170e:	687b      	ldr	r3, [r7, #4]
 8001710:	685b      	ldr	r3, [r3, #4]
 8001712:	4936      	ldr	r1, [pc, #216]	; (80017ec <HAL_RCC_ClockConfig+0x1c4>)
 8001714:	4313      	orrs	r3, r2
 8001716:	604b      	str	r3, [r1, #4]

    /* Get Start Tick */
    tickstart = HAL_GetTick();
 8001718:	f7ff fa38 	bl	8000b8c <HAL_GetTick>
 800171c:	60f8      	str	r0, [r7, #12]

    while (__HAL_RCC_GET_SYSCLK_SOURCE() != (RCC_ClkInitStruct->SYSCLKSource << RCC_CFGR_SWS_Pos))
 800171e:	e00a      	b.n	8001736 <HAL_RCC_ClockConfig+0x10e>
    {
      if ((HAL_GetTick() - tickstart) > CLOCKSWITCH_TIMEOUT_VALUE)
 8001720:	f7ff fa34 	bl	8000b8c <HAL_GetTick>
 8001724:	4602      	mov	r2, r0
 8001726:	68fb      	ldr	r3, [r7, #12]
 8001728:	1ad3      	subs	r3, r2, r3
 800172a:	f241 3288 	movw	r2, #5000	; 0x1388
 800172e:	4293      	cmp	r3, r2
 8001730:	d901      	bls.n	8001736 <HAL_RCC_ClockConfig+0x10e>
      {
        return HAL_TIMEOUT;
 8001732:	2303      	movs	r3, #3
 8001734:	e053      	b.n	80017de <HAL_RCC_ClockConfig+0x1b6>
    while (__HAL_RCC_GET_SYSCLK_SOURCE() != (RCC_ClkInitStruct->SYSCLKSource << RCC_CFGR_SWS_Pos))
 8001736:	4b2d      	ldr	r3, [pc, #180]	; (80017ec <HAL_RCC_ClockConfig+0x1c4>)
 8001738:	685b      	ldr	r3, [r3, #4]
 800173a:	f003 020c 	and.w	r2, r3, #12
 800173e:	687b      	ldr	r3, [r7, #4]
 8001740:	685b      	ldr	r3, [r3, #4]
 8001742:	009b      	lsls	r3, r3, #2
 8001744:	429a      	cmp	r2, r3
 8001746:	d1eb      	bne.n	8001720 <HAL_RCC_ClockConfig+0xf8>
    }
  }

#if defined(FLASH_ACR_LATENCY)
  /* Decreasing the number of wait states because of lower CPU frequency */
  if (FLatency < __HAL_FLASH_GET_LATENCY())
 8001748:	4b27      	ldr	r3, [pc, #156]	; (80017e8 <HAL_RCC_ClockConfig+0x1c0>)
 800174a:	681b      	ldr	r3, [r3, #0]
 800174c:	f003 0307 	and.w	r3, r3, #7
 8001750:	683a      	ldr	r2, [r7, #0]
 8001752:	429a      	cmp	r2, r3
 8001754:	d210      	bcs.n	8001778 <HAL_RCC_ClockConfig+0x150>
  {
    /* Program the new number of wait states to the LATENCY bits in the FLASH_ACR register */
    __HAL_FLASH_SET_LATENCY(FLatency);
 8001756:	4b24      	ldr	r3, [pc, #144]	; (80017e8 <HAL_RCC_ClockConfig+0x1c0>)
 8001758:	681b      	ldr	r3, [r3, #0]
 800175a:	f023 0207 	bic.w	r2, r3, #7
 800175e:	4922      	ldr	r1, [pc, #136]	; (80017e8 <HAL_RCC_ClockConfig+0x1c0>)
 8001760:	683b      	ldr	r3, [r7, #0]
 8001762:	4313      	orrs	r3, r2
 8001764:	600b      	str	r3, [r1, #0]

    /* Check that the new number of wait states is taken into account to access the Flash
    memory by reading the FLASH_ACR register */
    if (__HAL_FLASH_GET_LATENCY() != FLatency)
 8001766:	4b20      	ldr	r3, [pc, #128]	; (80017e8 <HAL_RCC_ClockConfig+0x1c0>)
 8001768:	681b      	ldr	r3, [r3, #0]
 800176a:	f003 0307 	and.w	r3, r3, #7
 800176e:	683a      	ldr	r2, [r7, #0]
 8001770:	429a      	cmp	r2, r3
 8001772:	d001      	beq.n	8001778 <HAL_RCC_ClockConfig+0x150>
  {
    return HAL_ERROR;
 8001774:	2301      	movs	r3, #1
 8001776:	e032      	b.n	80017de <HAL_RCC_ClockConfig+0x1b6>
  }
}
#endif /* FLASH_ACR_LATENCY */

/*-------------------------- PCLK1 Configuration ---------------------------*/
if (((RCC_ClkInitStruct->ClockType) & RCC_CLOCKTYPE_PCLK1) == RCC_CLOCKTYPE_PCLK1)
 8001778:	687b      	ldr	r3, [r7, #4]
 800177a:	681b      	ldr	r3, [r3, #0]
 800177c:	f003 0304 	and.w	r3, r3, #4
 8001780:	2b00      	cmp	r3, #0
 8001782:	d008      	beq.n	8001796 <HAL_RCC_ClockConfig+0x16e>
  {
    assert_param(IS_RCC_PCLK(RCC_ClkInitStruct->APB1CLKDivider));
    MODIFY_REG(RCC->CFGR, RCC_CFGR_PPRE1, RCC_ClkInitStruct->APB1CLKDivider);
 8001784:	4b19      	ldr	r3, [pc, #100]	; (80017ec <HAL_RCC_ClockConfig+0x1c4>)
 8001786:	685b      	ldr	r3, [r3, #4]
 8001788:	f423 62e0 	bic.w	r2, r3, #1792	; 0x700
 800178c:	687b      	ldr	r3, [r7, #4]
 800178e:	68db      	ldr	r3, [r3, #12]
 8001790:	4916      	ldr	r1, [pc, #88]	; (80017ec <HAL_RCC_ClockConfig+0x1c4>)
 8001792:	4313      	orrs	r3, r2
 8001794:	604b      	str	r3, [r1, #4]
  }

  /*-------------------------- PCLK2 Configuration ---------------------------*/
  if (((RCC_ClkInitStruct->ClockType) & RCC_CLOCKTYPE_PCLK2) == RCC_CLOCKTYPE_PCLK2)
 8001796:	687b      	ldr	r3, [r7, #4]
 8001798:	681b      	ldr	r3, [r3, #0]
 800179a:	f003 0308 	and.w	r3, r3, #8
 800179e:	2b00      	cmp	r3, #0
 80017a0:	d009      	beq.n	80017b6 <HAL_RCC_ClockConfig+0x18e>
  {
    assert_param(IS_RCC_PCLK(RCC_ClkInitStruct->APB2CLKDivider));
    MODIFY_REG(RCC->CFGR, RCC_CFGR_PPRE2, ((RCC_ClkInitStruct->APB2CLKDivider) << 3));
 80017a2:	4b12      	ldr	r3, [pc, #72]	; (80017ec <HAL_RCC_ClockConfig+0x1c4>)
 80017a4:	685b      	ldr	r3, [r3, #4]
 80017a6:	f423 5260 	bic.w	r2, r3, #14336	; 0x3800
 80017aa:	687b      	ldr	r3, [r7, #4]
 80017ac:	691b      	ldr	r3, [r3, #16]
 80017ae:	00db      	lsls	r3, r3, #3
 80017b0:	490e      	ldr	r1, [pc, #56]	; (80017ec <HAL_RCC_ClockConfig+0x1c4>)
 80017b2:	4313      	orrs	r3, r2
 80017b4:	604b      	str	r3, [r1, #4]
  }

  /* Update the SystemCoreClock global variable */
  SystemCoreClock = HAL_RCC_GetSysClockFreq() >> AHBPrescTable[(RCC->CFGR & RCC_CFGR_HPRE) >> RCC_CFGR_HPRE_Pos];
 80017b6:	f000 f821 	bl	80017fc <HAL_RCC_GetSysClockFreq>
 80017ba:	4601      	mov	r1, r0
 80017bc:	4b0b      	ldr	r3, [pc, #44]	; (80017ec <HAL_RCC_ClockConfig+0x1c4>)
 80017be:	685b      	ldr	r3, [r3, #4]
 80017c0:	091b      	lsrs	r3, r3, #4
 80017c2:	f003 030f 	and.w	r3, r3, #15
 80017c6:	4a0a      	ldr	r2, [pc, #40]	; (80017f0 <HAL_RCC_ClockConfig+0x1c8>)
 80017c8:	5cd3      	ldrb	r3, [r2, r3]
 80017ca:	fa21 f303 	lsr.w	r3, r1, r3
 80017ce:	4a09      	ldr	r2, [pc, #36]	; (80017f4 <HAL_RCC_ClockConfig+0x1cc>)
 80017d0:	6013      	str	r3, [r2, #0]

  /* Configure the source of time base considering new system clocks settings*/
  HAL_InitTick(uwTickPrio);
 80017d2:	4b09      	ldr	r3, [pc, #36]	; (80017f8 <HAL_RCC_ClockConfig+0x1d0>)
 80017d4:	681b      	ldr	r3, [r3, #0]
 80017d6:	4618      	mov	r0, r3
 80017d8:	f7ff f996 	bl	8000b08 <HAL_InitTick>

  return HAL_OK;
 80017dc:	2300      	movs	r3, #0
}
 80017de:	4618      	mov	r0, r3
 80017e0:	3710      	adds	r7, #16
 80017e2:	46bd      	mov	sp, r7
 80017e4:	bd80      	pop	{r7, pc}
 80017e6:	bf00      	nop
 80017e8:	40022000 	.word	0x40022000
 80017ec:	40021000 	.word	0x40021000
 80017f0:	080029d8 	.word	0x080029d8
 80017f4:	20000000 	.word	0x20000000
 80017f8:	20000004 	.word	0x20000004

080017fc <HAL_RCC_GetSysClockFreq>:
  *         right SYSCLK value. Otherwise, any configuration based on this function will be incorrect.
  *
  * @retval SYSCLK frequency
  */
uint32_t HAL_RCC_GetSysClockFreq(void)
{
 80017fc:	b490      	push	{r4, r7}
 80017fe:	b08a      	sub	sp, #40	; 0x28
 8001800:	af00      	add	r7, sp, #0
#if defined(RCC_CFGR2_PREDIV1SRC)
  const uint8_t aPLLMULFactorTable[14] = {0, 0, 4, 5, 6, 7, 8, 9, 0, 0, 0, 0, 0, 13};
  const uint8_t aPredivFactorTable[16] = {1, 2, 3, 4, 5, 6, 7, 8, 9, 10, 11, 12, 13, 14, 15, 16};
#else
  const uint8_t aPLLMULFactorTable[16] = {2, 3, 4, 5, 6, 7, 8, 9, 10, 11, 12, 13, 14, 15, 16, 16};
 8001802:	4b2a      	ldr	r3, [pc, #168]	; (80018ac <HAL_RCC_GetSysClockFreq+0xb0>)
 8001804:	1d3c      	adds	r4, r7, #4
 8001806:	cb0f      	ldmia	r3, {r0, r1, r2, r3}
 8001808:	e884 000f 	stmia.w	r4, {r0, r1, r2, r3}
#if defined(RCC_CFGR2_PREDIV1)
  const uint8_t aPredivFactorTable[16] = {1, 2, 3, 4, 5, 6, 7, 8, 9, 10, 11, 12, 13, 14, 15, 16};
#else
  const uint8_t aPredivFactorTable[2] = {1, 2};
 800180c:	4b28      	ldr	r3, [pc, #160]	; (80018b0 <HAL_RCC_GetSysClockFreq+0xb4>)
 800180e:	881b      	ldrh	r3, [r3, #0]
 8001810:	803b      	strh	r3, [r7, #0]
#endif /*RCC_CFGR2_PREDIV1*/

#endif
  uint32_t tmpreg = 0U, prediv = 0U, pllclk = 0U, pllmul = 0U;
 8001812:	2300      	movs	r3, #0
 8001814:	61fb      	str	r3, [r7, #28]
 8001816:	2300      	movs	r3, #0
 8001818:	61bb      	str	r3, [r7, #24]
 800181a:	2300      	movs	r3, #0
 800181c:	627b      	str	r3, [r7, #36]	; 0x24
 800181e:	2300      	movs	r3, #0
 8001820:	617b      	str	r3, [r7, #20]
  uint32_t sysclockfreq = 0U;
 8001822:	2300      	movs	r3, #0
 8001824:	623b      	str	r3, [r7, #32]
#if defined(RCC_CFGR2_PREDIV1SRC)
  uint32_t prediv2 = 0U, pll2mul = 0U;
#endif /*RCC_CFGR2_PREDIV1SRC*/

  tmpreg = RCC->CFGR;
 8001826:	4b23      	ldr	r3, [pc, #140]	; (80018b4 <HAL_RCC_GetSysClockFreq+0xb8>)
 8001828:	685b      	ldr	r3, [r3, #4]
 800182a:	61fb      	str	r3, [r7, #28]

  /* Get SYSCLK source -------------------------------------------------------*/
  switch (tmpreg & RCC_CFGR_SWS)
 800182c:	69fb      	ldr	r3, [r7, #28]
 800182e:	f003 030c 	and.w	r3, r3, #12
 8001832:	2b04      	cmp	r3, #4
 8001834:	d002      	beq.n	800183c <HAL_RCC_GetSysClockFreq+0x40>
 8001836:	2b08      	cmp	r3, #8
 8001838:	d003      	beq.n	8001842 <HAL_RCC_GetSysClockFreq+0x46>
 800183a:	e02d      	b.n	8001898 <HAL_RCC_GetSysClockFreq+0x9c>
  {
    case RCC_SYSCLKSOURCE_STATUS_HSE:  /* HSE used as system clock */
    {
      sysclockfreq = HSE_VALUE;
 800183c:	4b1e      	ldr	r3, [pc, #120]	; (80018b8 <HAL_RCC_GetSysClockFreq+0xbc>)
 800183e:	623b      	str	r3, [r7, #32]
      break;
 8001840:	e02d      	b.n	800189e <HAL_RCC_GetSysClockFreq+0xa2>
    }
    case RCC_SYSCLKSOURCE_STATUS_PLLCLK:  /* PLL used as system clock */
    {
      pllmul = aPLLMULFactorTable[(uint32_t)(tmpreg & RCC_CFGR_PLLMULL) >> RCC_CFGR_PLLMULL_Pos];
 8001842:	69fb      	ldr	r3, [r7, #28]
 8001844:	0c9b      	lsrs	r3, r3, #18
 8001846:	f003 030f 	and.w	r3, r3, #15
 800184a:	f107 0228 	add.w	r2, r7, #40	; 0x28
 800184e:	4413      	add	r3, r2
 8001850:	f813 3c24 	ldrb.w	r3, [r3, #-36]
 8001854:	617b      	str	r3, [r7, #20]
      if ((tmpreg & RCC_CFGR_PLLSRC) != RCC_PLLSOURCE_HSI_DIV2)
 8001856:	69fb      	ldr	r3, [r7, #28]
 8001858:	f403 3380 	and.w	r3, r3, #65536	; 0x10000
 800185c:	2b00      	cmp	r3, #0
 800185e:	d013      	beq.n	8001888 <HAL_RCC_GetSysClockFreq+0x8c>
      {
#if defined(RCC_CFGR2_PREDIV1)
        prediv = aPredivFactorTable[(uint32_t)(RCC->CFGR2 & RCC_CFGR2_PREDIV1) >> RCC_CFGR2_PREDIV1_Pos];
#else
        prediv = aPredivFactorTable[(uint32_t)(RCC->CFGR & RCC_CFGR_PLLXTPRE) >> RCC_CFGR_PLLXTPRE_Pos];
 8001860:	4b14      	ldr	r3, [pc, #80]	; (80018b4 <HAL_RCC_GetSysClockFreq+0xb8>)
 8001862:	685b      	ldr	r3, [r3, #4]
 8001864:	0c5b      	lsrs	r3, r3, #17
 8001866:	f003 0301 	and.w	r3, r3, #1
 800186a:	f107 0228 	add.w	r2, r7, #40	; 0x28
 800186e:	4413      	add	r3, r2
 8001870:	f813 3c28 	ldrb.w	r3, [r3, #-40]
 8001874:	61bb      	str	r3, [r7, #24]
        {
          pllclk = pllclk / 2;
        }
#else
        /* HSE used as PLL clock source : PLLCLK = HSE/PREDIV1 * PLLMUL */
        pllclk = (uint32_t)((HSE_VALUE  * pllmul) / prediv);
 8001876:	697b      	ldr	r3, [r7, #20]
 8001878:	4a0f      	ldr	r2, [pc, #60]	; (80018b8 <HAL_RCC_GetSysClockFreq+0xbc>)
 800187a:	fb02 f203 	mul.w	r2, r2, r3
 800187e:	69bb      	ldr	r3, [r7, #24]
 8001880:	fbb2 f3f3 	udiv	r3, r2, r3
 8001884:	627b      	str	r3, [r7, #36]	; 0x24
 8001886:	e004      	b.n	8001892 <HAL_RCC_GetSysClockFreq+0x96>
#endif /*RCC_CFGR2_PREDIV1SRC*/
      }
      else
      {
        /* HSI used as PLL clock source : PLLCLK = HSI/2 * PLLMUL */
        pllclk = (uint32_t)((HSI_VALUE >> 1) * pllmul);
 8001888:	697b      	ldr	r3, [r7, #20]
 800188a:	4a0c      	ldr	r2, [pc, #48]	; (80018bc <HAL_RCC_GetSysClockFreq+0xc0>)
 800188c:	fb02 f303 	mul.w	r3, r2, r3
 8001890:	627b      	str	r3, [r7, #36]	; 0x24
      }
      sysclockfreq = pllclk;
 8001892:	6a7b      	ldr	r3, [r7, #36]	; 0x24
 8001894:	623b      	str	r3, [r7, #32]
      break;
 8001896:	e002      	b.n	800189e <HAL_RCC_GetSysClockFreq+0xa2>
    }
    case RCC_SYSCLKSOURCE_STATUS_HSI:  /* HSI used as system clock source */
    default: /* HSI used as system clock */
    {
      sysclockfreq = HSI_VALUE;
 8001898:	4b07      	ldr	r3, [pc, #28]	; (80018b8 <HAL_RCC_GetSysClockFreq+0xbc>)
 800189a:	623b      	str	r3, [r7, #32]
      break;
 800189c:	bf00      	nop
    }
  }
  return sysclockfreq;
 800189e:	6a3b      	ldr	r3, [r7, #32]
}
 80018a0:	4618      	mov	r0, r3
 80018a2:	3728      	adds	r7, #40	; 0x28
 80018a4:	46bd      	mov	sp, r7
 80018a6:	bc90      	pop	{r4, r7}
 80018a8:	4770      	bx	lr
 80018aa:	bf00      	nop
 80018ac:	080029c4 	.word	0x080029c4
 80018b0:	080029d4 	.word	0x080029d4
 80018b4:	40021000 	.word	0x40021000
 80018b8:	007a1200 	.word	0x007a1200
 80018bc:	003d0900 	.word	0x003d0900

080018c0 <HAL_RCC_GetHCLKFreq>:
  * @note   The SystemCoreClock CMSIS variable is used to store System Clock Frequency
  *         and updated within this function
  * @retval HCLK frequency
  */
uint32_t HAL_RCC_GetHCLKFreq(void)
{
 80018c0:	b480      	push	{r7}
 80018c2:	af00      	add	r7, sp, #0
  return SystemCoreClock;
 80018c4:	4b02      	ldr	r3, [pc, #8]	; (80018d0 <HAL_RCC_GetHCLKFreq+0x10>)
 80018c6:	681b      	ldr	r3, [r3, #0]
}
 80018c8:	4618      	mov	r0, r3
 80018ca:	46bd      	mov	sp, r7
 80018cc:	bc80      	pop	{r7}
 80018ce:	4770      	bx	lr
 80018d0:	20000000 	.word	0x20000000

080018d4 <HAL_RCC_GetPCLK1Freq>:
  * @note   Each time PCLK1 changes, this function must be called to update the
  *         right PCLK1 value. Otherwise, any configuration based on this function will be incorrect.
  * @retval PCLK1 frequency
  */
uint32_t HAL_RCC_GetPCLK1Freq(void)
{
 80018d4:	b580      	push	{r7, lr}
 80018d6:	af00      	add	r7, sp, #0
  /* Get HCLK source and Compute PCLK1 frequency ---------------------------*/
  return (HAL_RCC_GetHCLKFreq() >> APBPrescTable[(RCC->CFGR & RCC_CFGR_PPRE1) >> RCC_CFGR_PPRE1_Pos]);
 80018d8:	f7ff fff2 	bl	80018c0 <HAL_RCC_GetHCLKFreq>
 80018dc:	4601      	mov	r1, r0
 80018de:	4b05      	ldr	r3, [pc, #20]	; (80018f4 <HAL_RCC_GetPCLK1Freq+0x20>)
 80018e0:	685b      	ldr	r3, [r3, #4]
 80018e2:	0a1b      	lsrs	r3, r3, #8
 80018e4:	f003 0307 	and.w	r3, r3, #7
 80018e8:	4a03      	ldr	r2, [pc, #12]	; (80018f8 <HAL_RCC_GetPCLK1Freq+0x24>)
 80018ea:	5cd3      	ldrb	r3, [r2, r3]
 80018ec:	fa21 f303 	lsr.w	r3, r1, r3
}
 80018f0:	4618      	mov	r0, r3
 80018f2:	bd80      	pop	{r7, pc}
 80018f4:	40021000 	.word	0x40021000
 80018f8:	080029e8 	.word	0x080029e8

080018fc <HAL_RCC_GetPCLK2Freq>:
  * @note   Each time PCLK2 changes, this function must be called to update the
  *         right PCLK2 value. Otherwise, any configuration based on this function will be incorrect.
  * @retval PCLK2 frequency
  */
uint32_t HAL_RCC_GetPCLK2Freq(void)
{
 80018fc:	b580      	push	{r7, lr}
 80018fe:	af00      	add	r7, sp, #0
  /* Get HCLK source and Compute PCLK2 frequency ---------------------------*/
  return (HAL_RCC_GetHCLKFreq() >> APBPrescTable[(RCC->CFGR & RCC_CFGR_PPRE2) >> RCC_CFGR_PPRE2_Pos]);
 8001900:	f7ff ffde 	bl	80018c0 <HAL_RCC_GetHCLKFreq>
 8001904:	4601      	mov	r1, r0
 8001906:	4b05      	ldr	r3, [pc, #20]	; (800191c <HAL_RCC_GetPCLK2Freq+0x20>)
 8001908:	685b      	ldr	r3, [r3, #4]
 800190a:	0adb      	lsrs	r3, r3, #11
 800190c:	f003 0307 	and.w	r3, r3, #7
 8001910:	4a03      	ldr	r2, [pc, #12]	; (8001920 <HAL_RCC_GetPCLK2Freq+0x24>)
 8001912:	5cd3      	ldrb	r3, [r2, r3]
 8001914:	fa21 f303 	lsr.w	r3, r1, r3
}
 8001918:	4618      	mov	r0, r3
 800191a:	bd80      	pop	{r7, pc}
 800191c:	40021000 	.word	0x40021000
 8001920:	080029e8 	.word	0x080029e8

08001924 <RCC_Delay>:
  * @brief  This function provides delay (in milliseconds) based on CPU cycles method.
  * @param  mdelay: specifies the delay time length, in milliseconds.
  * @retval None
  */
static void RCC_Delay(uint32_t mdelay)
{
 8001924:	b480      	push	{r7}
 8001926:	b085      	sub	sp, #20
 8001928:	af00      	add	r7, sp, #0
 800192a:	6078      	str	r0, [r7, #4]
  __IO uint32_t Delay = mdelay * (SystemCoreClock / 8U / 1000U);
 800192c:	4b0a      	ldr	r3, [pc, #40]	; (8001958 <RCC_Delay+0x34>)
 800192e:	681b      	ldr	r3, [r3, #0]
 8001930:	4a0a      	ldr	r2, [pc, #40]	; (800195c <RCC_Delay+0x38>)
 8001932:	fba2 2303 	umull	r2, r3, r2, r3
 8001936:	0a5b      	lsrs	r3, r3, #9
 8001938:	687a      	ldr	r2, [r7, #4]
 800193a:	fb02 f303 	mul.w	r3, r2, r3
 800193e:	60fb      	str	r3, [r7, #12]
  do
  {
    __NOP();
 8001940:	bf00      	nop
  }
  while (Delay --);
 8001942:	68fb      	ldr	r3, [r7, #12]
 8001944:	1e5a      	subs	r2, r3, #1
 8001946:	60fa      	str	r2, [r7, #12]
 8001948:	2b00      	cmp	r3, #0
 800194a:	d1f9      	bne.n	8001940 <RCC_Delay+0x1c>
}
 800194c:	bf00      	nop
 800194e:	3714      	adds	r7, #20
 8001950:	46bd      	mov	sp, r7
 8001952:	bc80      	pop	{r7}
 8001954:	4770      	bx	lr
 8001956:	bf00      	nop
 8001958:	20000000 	.word	0x20000000
 800195c:	10624dd3 	.word	0x10624dd3

08001960 <HAL_SPI_Init>:
  * @param  hspi pointer to a SPI_HandleTypeDef structure that contains
  *               the configuration information for SPI module.
  * @retval HAL status
  */
HAL_StatusTypeDef HAL_SPI_Init(SPI_HandleTypeDef *hspi)
{
 8001960:	b580      	push	{r7, lr}
 8001962:	b082      	sub	sp, #8
 8001964:	af00      	add	r7, sp, #0
 8001966:	6078      	str	r0, [r7, #4]
  /* Check the SPI handle allocation */
  if (hspi == NULL)
 8001968:	687b      	ldr	r3, [r7, #4]
 800196a:	2b00      	cmp	r3, #0
 800196c:	d101      	bne.n	8001972 <HAL_SPI_Init+0x12>
  {
    return HAL_ERROR;
 800196e:	2301      	movs	r3, #1
 8001970:	e076      	b.n	8001a60 <HAL_SPI_Init+0x100>
  assert_param(IS_SPI_BAUDRATE_PRESCALER(hspi->Init.BaudRatePrescaler));
  assert_param(IS_SPI_FIRST_BIT(hspi->Init.FirstBit));
  /* TI mode is not supported on this device.
     TIMode parameter is mandatory equal to SPI_TIMODE_DISABLE */
  assert_param(IS_SPI_TIMODE(hspi->Init.TIMode));
  if (hspi->Init.TIMode == SPI_TIMODE_DISABLE)
 8001972:	687b      	ldr	r3, [r7, #4]
 8001974:	6a5b      	ldr	r3, [r3, #36]	; 0x24
 8001976:	2b00      	cmp	r3, #0
 8001978:	d108      	bne.n	800198c <HAL_SPI_Init+0x2c>
  {
    assert_param(IS_SPI_CPOL(hspi->Init.CLKPolarity));
    assert_param(IS_SPI_CPHA(hspi->Init.CLKPhase));

    if (hspi->Init.Mode == SPI_MODE_MASTER)
 800197a:	687b      	ldr	r3, [r7, #4]
 800197c:	685b      	ldr	r3, [r3, #4]
 800197e:	f5b3 7f82 	cmp.w	r3, #260	; 0x104
 8001982:	d009      	beq.n	8001998 <HAL_SPI_Init+0x38>
      assert_param(IS_SPI_BAUDRATE_PRESCALER(hspi->Init.BaudRatePrescaler));
    }
    else
    {
      /* Baudrate prescaler not use in Motoraola Slave mode. force to default value */
      hspi->Init.BaudRatePrescaler = SPI_BAUDRATEPRESCALER_2;
 8001984:	687b      	ldr	r3, [r7, #4]
 8001986:	2200      	movs	r2, #0
 8001988:	61da      	str	r2, [r3, #28]
 800198a:	e005      	b.n	8001998 <HAL_SPI_Init+0x38>
  else
  {
    assert_param(IS_SPI_BAUDRATE_PRESCALER(hspi->Init.BaudRatePrescaler));

    /* Force polarity and phase to TI protocaol requirements */
    hspi->Init.CLKPolarity = SPI_POLARITY_LOW;
 800198c:	687b      	ldr	r3, [r7, #4]
 800198e:	2200      	movs	r2, #0
 8001990:	611a      	str	r2, [r3, #16]
    hspi->Init.CLKPhase    = SPI_PHASE_1EDGE;
 8001992:	687b      	ldr	r3, [r7, #4]
 8001994:	2200      	movs	r2, #0
 8001996:	615a      	str	r2, [r3, #20]
  if (hspi->Init.CRCCalculation == SPI_CRCCALCULATION_ENABLE)
  {
    assert_param(IS_SPI_CRC_POLYNOMIAL(hspi->Init.CRCPolynomial));
  }
#else
  hspi->Init.CRCCalculation = SPI_CRCCALCULATION_DISABLE;
 8001998:	687b      	ldr	r3, [r7, #4]
 800199a:	2200      	movs	r2, #0
 800199c:	629a      	str	r2, [r3, #40]	; 0x28
#endif /* USE_SPI_CRC */

  if (hspi->State == HAL_SPI_STATE_RESET)
 800199e:	687b      	ldr	r3, [r7, #4]
 80019a0:	f893 3051 	ldrb.w	r3, [r3, #81]	; 0x51
 80019a4:	b2db      	uxtb	r3, r3
 80019a6:	2b00      	cmp	r3, #0
 80019a8:	d106      	bne.n	80019b8 <HAL_SPI_Init+0x58>
  {
    /* Allocate lock resource and initialize it */
    hspi->Lock = HAL_UNLOCKED;
 80019aa:	687b      	ldr	r3, [r7, #4]
 80019ac:	2200      	movs	r2, #0
 80019ae:	f883 2050 	strb.w	r2, [r3, #80]	; 0x50

    /* Init the low level hardware : GPIO, CLOCK, NVIC... */
    hspi->MspInitCallback(hspi);
#else
    /* Init the low level hardware : GPIO, CLOCK, NVIC... */
    HAL_SPI_MspInit(hspi);
 80019b2:	6878      	ldr	r0, [r7, #4]
 80019b4:	f7fe fd84 	bl	80004c0 <HAL_SPI_MspInit>
#endif /* USE_HAL_SPI_REGISTER_CALLBACKS */
  }

  hspi->State = HAL_SPI_STATE_BUSY;
 80019b8:	687b      	ldr	r3, [r7, #4]
 80019ba:	2202      	movs	r2, #2
 80019bc:	f883 2051 	strb.w	r2, [r3, #81]	; 0x51

  /* Disable the selected SPI peripheral */
  __HAL_SPI_DISABLE(hspi);
 80019c0:	687b      	ldr	r3, [r7, #4]
 80019c2:	681b      	ldr	r3, [r3, #0]
 80019c4:	681a      	ldr	r2, [r3, #0]
 80019c6:	687b      	ldr	r3, [r7, #4]
 80019c8:	681b      	ldr	r3, [r3, #0]
 80019ca:	f022 0240 	bic.w	r2, r2, #64	; 0x40
 80019ce:	601a      	str	r2, [r3, #0]

  /*----------------------- SPIx CR1 & CR2 Configuration ---------------------*/
  /* Configure : SPI Mode, Communication Mode, Data size, Clock polarity and phase, NSS management,
  Communication speed, First bit and CRC calculation state */
  WRITE_REG(hspi->Instance->CR1, ((hspi->Init.Mode & (SPI_CR1_MSTR | SPI_CR1_SSI)) |
 80019d0:	687b      	ldr	r3, [r7, #4]
 80019d2:	685b      	ldr	r3, [r3, #4]
 80019d4:	f403 7282 	and.w	r2, r3, #260	; 0x104
 80019d8:	687b      	ldr	r3, [r7, #4]
 80019da:	689b      	ldr	r3, [r3, #8]
 80019dc:	f403 4304 	and.w	r3, r3, #33792	; 0x8400
 80019e0:	431a      	orrs	r2, r3
 80019e2:	687b      	ldr	r3, [r7, #4]
 80019e4:	68db      	ldr	r3, [r3, #12]
 80019e6:	f403 6300 	and.w	r3, r3, #2048	; 0x800
 80019ea:	431a      	orrs	r2, r3
 80019ec:	687b      	ldr	r3, [r7, #4]
 80019ee:	691b      	ldr	r3, [r3, #16]
 80019f0:	f003 0302 	and.w	r3, r3, #2
 80019f4:	431a      	orrs	r2, r3
 80019f6:	687b      	ldr	r3, [r7, #4]
 80019f8:	695b      	ldr	r3, [r3, #20]
 80019fa:	f003 0301 	and.w	r3, r3, #1
 80019fe:	431a      	orrs	r2, r3
 8001a00:	687b      	ldr	r3, [r7, #4]
 8001a02:	699b      	ldr	r3, [r3, #24]
 8001a04:	f403 7300 	and.w	r3, r3, #512	; 0x200
 8001a08:	431a      	orrs	r2, r3
 8001a0a:	687b      	ldr	r3, [r7, #4]
 8001a0c:	69db      	ldr	r3, [r3, #28]
 8001a0e:	f003 0338 	and.w	r3, r3, #56	; 0x38
 8001a12:	431a      	orrs	r2, r3
 8001a14:	687b      	ldr	r3, [r7, #4]
 8001a16:	6a1b      	ldr	r3, [r3, #32]
 8001a18:	f003 0380 	and.w	r3, r3, #128	; 0x80
 8001a1c:	ea42 0103 	orr.w	r1, r2, r3
 8001a20:	687b      	ldr	r3, [r7, #4]
 8001a22:	6a9b      	ldr	r3, [r3, #40]	; 0x28
 8001a24:	f403 5200 	and.w	r2, r3, #8192	; 0x2000
 8001a28:	687b      	ldr	r3, [r7, #4]
 8001a2a:	681b      	ldr	r3, [r3, #0]
 8001a2c:	430a      	orrs	r2, r1
 8001a2e:	601a      	str	r2, [r3, #0]
                                  (hspi->Init.BaudRatePrescaler & SPI_CR1_BR_Msk) |
                                  (hspi->Init.FirstBit  & SPI_CR1_LSBFIRST) |
                                  (hspi->Init.CRCCalculation & SPI_CR1_CRCEN)));

  /* Configure : NSS management */
  WRITE_REG(hspi->Instance->CR2, ((hspi->Init.NSS >> 16U) & SPI_CR2_SSOE));
 8001a30:	687b      	ldr	r3, [r7, #4]
 8001a32:	699b      	ldr	r3, [r3, #24]
 8001a34:	0c1a      	lsrs	r2, r3, #16
 8001a36:	687b      	ldr	r3, [r7, #4]
 8001a38:	681b      	ldr	r3, [r3, #0]
 8001a3a:	f002 0204 	and.w	r2, r2, #4
 8001a3e:	605a      	str	r2, [r3, #4]
  }
#endif /* USE_SPI_CRC */

#if defined(SPI_I2SCFGR_I2SMOD)
  /* Activate the SPI mode (Make sure that I2SMOD bit in I2SCFGR register is reset) */
  CLEAR_BIT(hspi->Instance->I2SCFGR, SPI_I2SCFGR_I2SMOD);
 8001a40:	687b      	ldr	r3, [r7, #4]
 8001a42:	681b      	ldr	r3, [r3, #0]
 8001a44:	69da      	ldr	r2, [r3, #28]
 8001a46:	687b      	ldr	r3, [r7, #4]
 8001a48:	681b      	ldr	r3, [r3, #0]
 8001a4a:	f422 6200 	bic.w	r2, r2, #2048	; 0x800
 8001a4e:	61da      	str	r2, [r3, #28]
#endif /* SPI_I2SCFGR_I2SMOD */

  hspi->ErrorCode = HAL_SPI_ERROR_NONE;
 8001a50:	687b      	ldr	r3, [r7, #4]
 8001a52:	2200      	movs	r2, #0
 8001a54:	655a      	str	r2, [r3, #84]	; 0x54
  hspi->State     = HAL_SPI_STATE_READY;
 8001a56:	687b      	ldr	r3, [r7, #4]
 8001a58:	2201      	movs	r2, #1
 8001a5a:	f883 2051 	strb.w	r2, [r3, #81]	; 0x51

  return HAL_OK;
 8001a5e:	2300      	movs	r3, #0
}
 8001a60:	4618      	mov	r0, r3
 8001a62:	3708      	adds	r7, #8
 8001a64:	46bd      	mov	sp, r7
 8001a66:	bd80      	pop	{r7, pc}

08001a68 <HAL_SPI_Transmit>:
  * @param  Size amount of data to be sent
  * @param  Timeout Timeout duration
  * @retval HAL status
  */
HAL_StatusTypeDef HAL_SPI_Transmit(SPI_HandleTypeDef *hspi, uint8_t *pData, uint16_t Size, uint32_t Timeout)
{
 8001a68:	b580      	push	{r7, lr}
 8001a6a:	b088      	sub	sp, #32
 8001a6c:	af00      	add	r7, sp, #0
 8001a6e:	60f8      	str	r0, [r7, #12]
 8001a70:	60b9      	str	r1, [r7, #8]
 8001a72:	603b      	str	r3, [r7, #0]
 8001a74:	4613      	mov	r3, r2
 8001a76:	80fb      	strh	r3, [r7, #6]
  uint32_t tickstart;
  HAL_StatusTypeDef errorcode = HAL_OK;
 8001a78:	2300      	movs	r3, #0
 8001a7a:	77fb      	strb	r3, [r7, #31]

  /* Check Direction parameter */
  assert_param(IS_SPI_DIRECTION_2LINES_OR_1LINE(hspi->Init.Direction));

  /* Process Locked */
  __HAL_LOCK(hspi);
 8001a7c:	68fb      	ldr	r3, [r7, #12]
 8001a7e:	f893 3050 	ldrb.w	r3, [r3, #80]	; 0x50
 8001a82:	2b01      	cmp	r3, #1
 8001a84:	d101      	bne.n	8001a8a <HAL_SPI_Transmit+0x22>
 8001a86:	2302      	movs	r3, #2
 8001a88:	e126      	b.n	8001cd8 <HAL_SPI_Transmit+0x270>
 8001a8a:	68fb      	ldr	r3, [r7, #12]
 8001a8c:	2201      	movs	r2, #1
 8001a8e:	f883 2050 	strb.w	r2, [r3, #80]	; 0x50

  /* Init tickstart for timeout management*/
  tickstart = HAL_GetTick();
 8001a92:	f7ff f87b 	bl	8000b8c <HAL_GetTick>
 8001a96:	61b8      	str	r0, [r7, #24]
  initial_TxXferCount = Size;
 8001a98:	88fb      	ldrh	r3, [r7, #6]
 8001a9a:	82fb      	strh	r3, [r7, #22]

  if (hspi->State != HAL_SPI_STATE_READY)
 8001a9c:	68fb      	ldr	r3, [r7, #12]
 8001a9e:	f893 3051 	ldrb.w	r3, [r3, #81]	; 0x51
 8001aa2:	b2db      	uxtb	r3, r3
 8001aa4:	2b01      	cmp	r3, #1
 8001aa6:	d002      	beq.n	8001aae <HAL_SPI_Transmit+0x46>
  {
    errorcode = HAL_BUSY;
 8001aa8:	2302      	movs	r3, #2
 8001aaa:	77fb      	strb	r3, [r7, #31]
    goto error;
 8001aac:	e10b      	b.n	8001cc6 <HAL_SPI_Transmit+0x25e>
  }

  if ((pData == NULL) || (Size == 0U))
 8001aae:	68bb      	ldr	r3, [r7, #8]
 8001ab0:	2b00      	cmp	r3, #0
 8001ab2:	d002      	beq.n	8001aba <HAL_SPI_Transmit+0x52>
 8001ab4:	88fb      	ldrh	r3, [r7, #6]
 8001ab6:	2b00      	cmp	r3, #0
 8001ab8:	d102      	bne.n	8001ac0 <HAL_SPI_Transmit+0x58>
  {
    errorcode = HAL_ERROR;
 8001aba:	2301      	movs	r3, #1
 8001abc:	77fb      	strb	r3, [r7, #31]
    goto error;
 8001abe:	e102      	b.n	8001cc6 <HAL_SPI_Transmit+0x25e>
  }

  /* Set the transaction information */
  hspi->State       = HAL_SPI_STATE_BUSY_TX;
 8001ac0:	68fb      	ldr	r3, [r7, #12]
 8001ac2:	2203      	movs	r2, #3
 8001ac4:	f883 2051 	strb.w	r2, [r3, #81]	; 0x51
  hspi->ErrorCode   = HAL_SPI_ERROR_NONE;
 8001ac8:	68fb      	ldr	r3, [r7, #12]
 8001aca:	2200      	movs	r2, #0
 8001acc:	655a      	str	r2, [r3, #84]	; 0x54
  hspi->pTxBuffPtr  = (uint8_t *)pData;
 8001ace:	68fb      	ldr	r3, [r7, #12]
 8001ad0:	68ba      	ldr	r2, [r7, #8]
 8001ad2:	631a      	str	r2, [r3, #48]	; 0x30
  hspi->TxXferSize  = Size;
 8001ad4:	68fb      	ldr	r3, [r7, #12]
 8001ad6:	88fa      	ldrh	r2, [r7, #6]
 8001ad8:	869a      	strh	r2, [r3, #52]	; 0x34
  hspi->TxXferCount = Size;
 8001ada:	68fb      	ldr	r3, [r7, #12]
 8001adc:	88fa      	ldrh	r2, [r7, #6]
 8001ade:	86da      	strh	r2, [r3, #54]	; 0x36

  /*Init field not used in handle to zero */
  hspi->pRxBuffPtr  = (uint8_t *)NULL;
 8001ae0:	68fb      	ldr	r3, [r7, #12]
 8001ae2:	2200      	movs	r2, #0
 8001ae4:	639a      	str	r2, [r3, #56]	; 0x38
  hspi->RxXferSize  = 0U;
 8001ae6:	68fb      	ldr	r3, [r7, #12]
 8001ae8:	2200      	movs	r2, #0
 8001aea:	879a      	strh	r2, [r3, #60]	; 0x3c
  hspi->RxXferCount = 0U;
 8001aec:	68fb      	ldr	r3, [r7, #12]
 8001aee:	2200      	movs	r2, #0
 8001af0:	87da      	strh	r2, [r3, #62]	; 0x3e
  hspi->TxISR       = NULL;
 8001af2:	68fb      	ldr	r3, [r7, #12]
 8001af4:	2200      	movs	r2, #0
 8001af6:	645a      	str	r2, [r3, #68]	; 0x44
  hspi->RxISR       = NULL;
 8001af8:	68fb      	ldr	r3, [r7, #12]
 8001afa:	2200      	movs	r2, #0
 8001afc:	641a      	str	r2, [r3, #64]	; 0x40

  /* Configure communication direction : 1Line */
  if (hspi->Init.Direction == SPI_DIRECTION_1LINE)
 8001afe:	68fb      	ldr	r3, [r7, #12]
 8001b00:	689b      	ldr	r3, [r3, #8]
 8001b02:	f5b3 4f00 	cmp.w	r3, #32768	; 0x8000
 8001b06:	d10f      	bne.n	8001b28 <HAL_SPI_Transmit+0xc0>
  {
    /* Disable SPI Peripheral before set 1Line direction (BIDIOE bit) */
    __HAL_SPI_DISABLE(hspi);
 8001b08:	68fb      	ldr	r3, [r7, #12]
 8001b0a:	681b      	ldr	r3, [r3, #0]
 8001b0c:	681a      	ldr	r2, [r3, #0]
 8001b0e:	68fb      	ldr	r3, [r7, #12]
 8001b10:	681b      	ldr	r3, [r3, #0]
 8001b12:	f022 0240 	bic.w	r2, r2, #64	; 0x40
 8001b16:	601a      	str	r2, [r3, #0]
    SPI_1LINE_TX(hspi);
 8001b18:	68fb      	ldr	r3, [r7, #12]
 8001b1a:	681b      	ldr	r3, [r3, #0]
 8001b1c:	681a      	ldr	r2, [r3, #0]
 8001b1e:	68fb      	ldr	r3, [r7, #12]
 8001b20:	681b      	ldr	r3, [r3, #0]
 8001b22:	f442 4280 	orr.w	r2, r2, #16384	; 0x4000
 8001b26:	601a      	str	r2, [r3, #0]
    SPI_RESET_CRC(hspi);
  }
#endif /* USE_SPI_CRC */

  /* Check if the SPI is already enabled */
  if ((hspi->Instance->CR1 & SPI_CR1_SPE) != SPI_CR1_SPE)
 8001b28:	68fb      	ldr	r3, [r7, #12]
 8001b2a:	681b      	ldr	r3, [r3, #0]
 8001b2c:	681b      	ldr	r3, [r3, #0]
 8001b2e:	f003 0340 	and.w	r3, r3, #64	; 0x40
 8001b32:	2b40      	cmp	r3, #64	; 0x40
 8001b34:	d007      	beq.n	8001b46 <HAL_SPI_Transmit+0xde>
  {
    /* Enable SPI peripheral */
    __HAL_SPI_ENABLE(hspi);
 8001b36:	68fb      	ldr	r3, [r7, #12]
 8001b38:	681b      	ldr	r3, [r3, #0]
 8001b3a:	681a      	ldr	r2, [r3, #0]
 8001b3c:	68fb      	ldr	r3, [r7, #12]
 8001b3e:	681b      	ldr	r3, [r3, #0]
 8001b40:	f042 0240 	orr.w	r2, r2, #64	; 0x40
 8001b44:	601a      	str	r2, [r3, #0]
  }

  /* Transmit data in 16 Bit mode */
  if (hspi->Init.DataSize == SPI_DATASIZE_16BIT)
 8001b46:	68fb      	ldr	r3, [r7, #12]
 8001b48:	68db      	ldr	r3, [r3, #12]
 8001b4a:	f5b3 6f00 	cmp.w	r3, #2048	; 0x800
 8001b4e:	d14b      	bne.n	8001be8 <HAL_SPI_Transmit+0x180>
  {
    if ((hspi->Init.Mode == SPI_MODE_SLAVE) || (initial_TxXferCount == 0x01U))
 8001b50:	68fb      	ldr	r3, [r7, #12]
 8001b52:	685b      	ldr	r3, [r3, #4]
 8001b54:	2b00      	cmp	r3, #0
 8001b56:	d002      	beq.n	8001b5e <HAL_SPI_Transmit+0xf6>
 8001b58:	8afb      	ldrh	r3, [r7, #22]
 8001b5a:	2b01      	cmp	r3, #1
 8001b5c:	d13e      	bne.n	8001bdc <HAL_SPI_Transmit+0x174>
    {
      hspi->Instance->DR = *((uint16_t *)hspi->pTxBuffPtr);
 8001b5e:	68fb      	ldr	r3, [r7, #12]
 8001b60:	6b1b      	ldr	r3, [r3, #48]	; 0x30
 8001b62:	881a      	ldrh	r2, [r3, #0]
 8001b64:	68fb      	ldr	r3, [r7, #12]
 8001b66:	681b      	ldr	r3, [r3, #0]
 8001b68:	60da      	str	r2, [r3, #12]
      hspi->pTxBuffPtr += sizeof(uint16_t);
 8001b6a:	68fb      	ldr	r3, [r7, #12]
 8001b6c:	6b1b      	ldr	r3, [r3, #48]	; 0x30
 8001b6e:	1c9a      	adds	r2, r3, #2
 8001b70:	68fb      	ldr	r3, [r7, #12]
 8001b72:	631a      	str	r2, [r3, #48]	; 0x30
      hspi->TxXferCount--;
 8001b74:	68fb      	ldr	r3, [r7, #12]
 8001b76:	8edb      	ldrh	r3, [r3, #54]	; 0x36
 8001b78:	b29b      	uxth	r3, r3
 8001b7a:	3b01      	subs	r3, #1
 8001b7c:	b29a      	uxth	r2, r3
 8001b7e:	68fb      	ldr	r3, [r7, #12]
 8001b80:	86da      	strh	r2, [r3, #54]	; 0x36
    }
    /* Transmit data in 16 Bit mode */
    while (hspi->TxXferCount > 0U)
 8001b82:	e02b      	b.n	8001bdc <HAL_SPI_Transmit+0x174>
    {
      /* Wait until TXE flag is set to send data */
      if (__HAL_SPI_GET_FLAG(hspi, SPI_FLAG_TXE))
 8001b84:	68fb      	ldr	r3, [r7, #12]
 8001b86:	681b      	ldr	r3, [r3, #0]
 8001b88:	689b      	ldr	r3, [r3, #8]
 8001b8a:	f003 0302 	and.w	r3, r3, #2
 8001b8e:	2b02      	cmp	r3, #2
 8001b90:	d112      	bne.n	8001bb8 <HAL_SPI_Transmit+0x150>
      {
        hspi->Instance->DR = *((uint16_t *)hspi->pTxBuffPtr);
 8001b92:	68fb      	ldr	r3, [r7, #12]
 8001b94:	6b1b      	ldr	r3, [r3, #48]	; 0x30
 8001b96:	881a      	ldrh	r2, [r3, #0]
 8001b98:	68fb      	ldr	r3, [r7, #12]
 8001b9a:	681b      	ldr	r3, [r3, #0]
 8001b9c:	60da      	str	r2, [r3, #12]
        hspi->pTxBuffPtr += sizeof(uint16_t);
 8001b9e:	68fb      	ldr	r3, [r7, #12]
 8001ba0:	6b1b      	ldr	r3, [r3, #48]	; 0x30
 8001ba2:	1c9a      	adds	r2, r3, #2
 8001ba4:	68fb      	ldr	r3, [r7, #12]
 8001ba6:	631a      	str	r2, [r3, #48]	; 0x30
        hspi->TxXferCount--;
 8001ba8:	68fb      	ldr	r3, [r7, #12]
 8001baa:	8edb      	ldrh	r3, [r3, #54]	; 0x36
 8001bac:	b29b      	uxth	r3, r3
 8001bae:	3b01      	subs	r3, #1
 8001bb0:	b29a      	uxth	r2, r3
 8001bb2:	68fb      	ldr	r3, [r7, #12]
 8001bb4:	86da      	strh	r2, [r3, #54]	; 0x36
 8001bb6:	e011      	b.n	8001bdc <HAL_SPI_Transmit+0x174>
      }
      else
      {
        /* Timeout management */
        if ((((HAL_GetTick() - tickstart) >=  Timeout) && (Timeout != HAL_MAX_DELAY)) || (Timeout == 0U))
 8001bb8:	f7fe ffe8 	bl	8000b8c <HAL_GetTick>
 8001bbc:	4602      	mov	r2, r0
 8001bbe:	69bb      	ldr	r3, [r7, #24]
 8001bc0:	1ad3      	subs	r3, r2, r3
 8001bc2:	683a      	ldr	r2, [r7, #0]
 8001bc4:	429a      	cmp	r2, r3
 8001bc6:	d803      	bhi.n	8001bd0 <HAL_SPI_Transmit+0x168>
 8001bc8:	683b      	ldr	r3, [r7, #0]
 8001bca:	f1b3 3fff 	cmp.w	r3, #4294967295
 8001bce:	d102      	bne.n	8001bd6 <HAL_SPI_Transmit+0x16e>
 8001bd0:	683b      	ldr	r3, [r7, #0]
 8001bd2:	2b00      	cmp	r3, #0
 8001bd4:	d102      	bne.n	8001bdc <HAL_SPI_Transmit+0x174>
        {
          errorcode = HAL_TIMEOUT;
 8001bd6:	2303      	movs	r3, #3
 8001bd8:	77fb      	strb	r3, [r7, #31]
          goto error;
 8001bda:	e074      	b.n	8001cc6 <HAL_SPI_Transmit+0x25e>
    while (hspi->TxXferCount > 0U)
 8001bdc:	68fb      	ldr	r3, [r7, #12]
 8001bde:	8edb      	ldrh	r3, [r3, #54]	; 0x36
 8001be0:	b29b      	uxth	r3, r3
 8001be2:	2b00      	cmp	r3, #0
 8001be4:	d1ce      	bne.n	8001b84 <HAL_SPI_Transmit+0x11c>
 8001be6:	e04c      	b.n	8001c82 <HAL_SPI_Transmit+0x21a>
    }
  }
  /* Transmit data in 8 Bit mode */
  else
  {
    if ((hspi->Init.Mode == SPI_MODE_SLAVE) || (initial_TxXferCount == 0x01U))
 8001be8:	68fb      	ldr	r3, [r7, #12]
 8001bea:	685b      	ldr	r3, [r3, #4]
 8001bec:	2b00      	cmp	r3, #0
 8001bee:	d002      	beq.n	8001bf6 <HAL_SPI_Transmit+0x18e>
 8001bf0:	8afb      	ldrh	r3, [r7, #22]
 8001bf2:	2b01      	cmp	r3, #1
 8001bf4:	d140      	bne.n	8001c78 <HAL_SPI_Transmit+0x210>
    {
      *((__IO uint8_t *)&hspi->Instance->DR) = (*hspi->pTxBuffPtr);
 8001bf6:	68fb      	ldr	r3, [r7, #12]
 8001bf8:	6b1a      	ldr	r2, [r3, #48]	; 0x30
 8001bfa:	68fb      	ldr	r3, [r7, #12]
 8001bfc:	681b      	ldr	r3, [r3, #0]
 8001bfe:	330c      	adds	r3, #12
 8001c00:	7812      	ldrb	r2, [r2, #0]
 8001c02:	701a      	strb	r2, [r3, #0]
      hspi->pTxBuffPtr += sizeof(uint8_t);
 8001c04:	68fb      	ldr	r3, [r7, #12]
 8001c06:	6b1b      	ldr	r3, [r3, #48]	; 0x30
 8001c08:	1c5a      	adds	r2, r3, #1
 8001c0a:	68fb      	ldr	r3, [r7, #12]
 8001c0c:	631a      	str	r2, [r3, #48]	; 0x30
      hspi->TxXferCount--;
 8001c0e:	68fb      	ldr	r3, [r7, #12]
 8001c10:	8edb      	ldrh	r3, [r3, #54]	; 0x36
 8001c12:	b29b      	uxth	r3, r3
 8001c14:	3b01      	subs	r3, #1
 8001c16:	b29a      	uxth	r2, r3
 8001c18:	68fb      	ldr	r3, [r7, #12]
 8001c1a:	86da      	strh	r2, [r3, #54]	; 0x36
    }
    while (hspi->TxXferCount > 0U)
 8001c1c:	e02c      	b.n	8001c78 <HAL_SPI_Transmit+0x210>
    {
      /* Wait until TXE flag is set to send data */
      if (__HAL_SPI_GET_FLAG(hspi, SPI_FLAG_TXE))
 8001c1e:	68fb      	ldr	r3, [r7, #12]
 8001c20:	681b      	ldr	r3, [r3, #0]
 8001c22:	689b      	ldr	r3, [r3, #8]
 8001c24:	f003 0302 	and.w	r3, r3, #2
 8001c28:	2b02      	cmp	r3, #2
 8001c2a:	d113      	bne.n	8001c54 <HAL_SPI_Transmit+0x1ec>
      {
        *((__IO uint8_t *)&hspi->Instance->DR) = (*hspi->pTxBuffPtr);
 8001c2c:	68fb      	ldr	r3, [r7, #12]
 8001c2e:	6b1a      	ldr	r2, [r3, #48]	; 0x30
 8001c30:	68fb      	ldr	r3, [r7, #12]
 8001c32:	681b      	ldr	r3, [r3, #0]
 8001c34:	330c      	adds	r3, #12
 8001c36:	7812      	ldrb	r2, [r2, #0]
 8001c38:	701a      	strb	r2, [r3, #0]
        hspi->pTxBuffPtr += sizeof(uint8_t);
 8001c3a:	68fb      	ldr	r3, [r7, #12]
 8001c3c:	6b1b      	ldr	r3, [r3, #48]	; 0x30
 8001c3e:	1c5a      	adds	r2, r3, #1
 8001c40:	68fb      	ldr	r3, [r7, #12]
 8001c42:	631a      	str	r2, [r3, #48]	; 0x30
        hspi->TxXferCount--;
 8001c44:	68fb      	ldr	r3, [r7, #12]
 8001c46:	8edb      	ldrh	r3, [r3, #54]	; 0x36
 8001c48:	b29b      	uxth	r3, r3
 8001c4a:	3b01      	subs	r3, #1
 8001c4c:	b29a      	uxth	r2, r3
 8001c4e:	68fb      	ldr	r3, [r7, #12]
 8001c50:	86da      	strh	r2, [r3, #54]	; 0x36
 8001c52:	e011      	b.n	8001c78 <HAL_SPI_Transmit+0x210>
      }
      else
      {
        /* Timeout management */
        if ((((HAL_GetTick() - tickstart) >=  Timeout) && (Timeout != HAL_MAX_DELAY)) || (Timeout == 0U))
 8001c54:	f7fe ff9a 	bl	8000b8c <HAL_GetTick>
 8001c58:	4602      	mov	r2, r0
 8001c5a:	69bb      	ldr	r3, [r7, #24]
 8001c5c:	1ad3      	subs	r3, r2, r3
 8001c5e:	683a      	ldr	r2, [r7, #0]
 8001c60:	429a      	cmp	r2, r3
 8001c62:	d803      	bhi.n	8001c6c <HAL_SPI_Transmit+0x204>
 8001c64:	683b      	ldr	r3, [r7, #0]
 8001c66:	f1b3 3fff 	cmp.w	r3, #4294967295
 8001c6a:	d102      	bne.n	8001c72 <HAL_SPI_Transmit+0x20a>
 8001c6c:	683b      	ldr	r3, [r7, #0]
 8001c6e:	2b00      	cmp	r3, #0
 8001c70:	d102      	bne.n	8001c78 <HAL_SPI_Transmit+0x210>
        {
          errorcode = HAL_TIMEOUT;
 8001c72:	2303      	movs	r3, #3
 8001c74:	77fb      	strb	r3, [r7, #31]
          goto error;
 8001c76:	e026      	b.n	8001cc6 <HAL_SPI_Transmit+0x25e>
    while (hspi->TxXferCount > 0U)
 8001c78:	68fb      	ldr	r3, [r7, #12]
 8001c7a:	8edb      	ldrh	r3, [r3, #54]	; 0x36
 8001c7c:	b29b      	uxth	r3, r3
 8001c7e:	2b00      	cmp	r3, #0
 8001c80:	d1cd      	bne.n	8001c1e <HAL_SPI_Transmit+0x1b6>
    SET_BIT(hspi->Instance->CR1, SPI_CR1_CRCNEXT);
  }
#endif /* USE_SPI_CRC */

  /* Check the end of the transaction */
  if (SPI_EndRxTxTransaction(hspi, Timeout, tickstart) != HAL_OK)
 8001c82:	69ba      	ldr	r2, [r7, #24]
 8001c84:	6839      	ldr	r1, [r7, #0]
 8001c86:	68f8      	ldr	r0, [r7, #12]
 8001c88:	f000 fbb8 	bl	80023fc <SPI_EndRxTxTransaction>
 8001c8c:	4603      	mov	r3, r0
 8001c8e:	2b00      	cmp	r3, #0
 8001c90:	d002      	beq.n	8001c98 <HAL_SPI_Transmit+0x230>
  {
    hspi->ErrorCode = HAL_SPI_ERROR_FLAG;
 8001c92:	68fb      	ldr	r3, [r7, #12]
 8001c94:	2220      	movs	r2, #32
 8001c96:	655a      	str	r2, [r3, #84]	; 0x54
  }

  /* Clear overrun flag in 2 Lines communication mode because received is not read */
  if (hspi->Init.Direction == SPI_DIRECTION_2LINES)
 8001c98:	68fb      	ldr	r3, [r7, #12]
 8001c9a:	689b      	ldr	r3, [r3, #8]
 8001c9c:	2b00      	cmp	r3, #0
 8001c9e:	d10a      	bne.n	8001cb6 <HAL_SPI_Transmit+0x24e>
  {
    __HAL_SPI_CLEAR_OVRFLAG(hspi);
 8001ca0:	2300      	movs	r3, #0
 8001ca2:	613b      	str	r3, [r7, #16]
 8001ca4:	68fb      	ldr	r3, [r7, #12]
 8001ca6:	681b      	ldr	r3, [r3, #0]
 8001ca8:	68db      	ldr	r3, [r3, #12]
 8001caa:	613b      	str	r3, [r7, #16]
 8001cac:	68fb      	ldr	r3, [r7, #12]
 8001cae:	681b      	ldr	r3, [r3, #0]
 8001cb0:	689b      	ldr	r3, [r3, #8]
 8001cb2:	613b      	str	r3, [r7, #16]
 8001cb4:	693b      	ldr	r3, [r7, #16]
  }

  if (hspi->ErrorCode != HAL_SPI_ERROR_NONE)
 8001cb6:	68fb      	ldr	r3, [r7, #12]
 8001cb8:	6d5b      	ldr	r3, [r3, #84]	; 0x54
 8001cba:	2b00      	cmp	r3, #0
 8001cbc:	d002      	beq.n	8001cc4 <HAL_SPI_Transmit+0x25c>
  {
    errorcode = HAL_ERROR;
 8001cbe:	2301      	movs	r3, #1
 8001cc0:	77fb      	strb	r3, [r7, #31]
 8001cc2:	e000      	b.n	8001cc6 <HAL_SPI_Transmit+0x25e>
  }

error:
 8001cc4:	bf00      	nop
  hspi->State = HAL_SPI_STATE_READY;
 8001cc6:	68fb      	ldr	r3, [r7, #12]
 8001cc8:	2201      	movs	r2, #1
 8001cca:	f883 2051 	strb.w	r2, [r3, #81]	; 0x51
  /* Process Unlocked */
  __HAL_UNLOCK(hspi);
 8001cce:	68fb      	ldr	r3, [r7, #12]
 8001cd0:	2200      	movs	r2, #0
 8001cd2:	f883 2050 	strb.w	r2, [r3, #80]	; 0x50
  return errorcode;
 8001cd6:	7ffb      	ldrb	r3, [r7, #31]
}
 8001cd8:	4618      	mov	r0, r3
 8001cda:	3720      	adds	r7, #32
 8001cdc:	46bd      	mov	sp, r7
 8001cde:	bd80      	pop	{r7, pc}

08001ce0 <HAL_SPI_Receive>:
  * @param  Size amount of data to be received
  * @param  Timeout Timeout duration
  * @retval HAL status
  */
HAL_StatusTypeDef HAL_SPI_Receive(SPI_HandleTypeDef *hspi, uint8_t *pData, uint16_t Size, uint32_t Timeout)
{
 8001ce0:	b580      	push	{r7, lr}
 8001ce2:	b088      	sub	sp, #32
 8001ce4:	af02      	add	r7, sp, #8
 8001ce6:	60f8      	str	r0, [r7, #12]
 8001ce8:	60b9      	str	r1, [r7, #8]
 8001cea:	603b      	str	r3, [r7, #0]
 8001cec:	4613      	mov	r3, r2
 8001cee:	80fb      	strh	r3, [r7, #6]
#if (USE_SPI_CRC != 0U)
  __IO uint32_t tmpreg = 0U;
#endif /* USE_SPI_CRC */
  uint32_t tickstart;
  HAL_StatusTypeDef errorcode = HAL_OK;
 8001cf0:	2300      	movs	r3, #0
 8001cf2:	75fb      	strb	r3, [r7, #23]

  if ((hspi->Init.Mode == SPI_MODE_MASTER) && (hspi->Init.Direction == SPI_DIRECTION_2LINES))
 8001cf4:	68fb      	ldr	r3, [r7, #12]
 8001cf6:	685b      	ldr	r3, [r3, #4]
 8001cf8:	f5b3 7f82 	cmp.w	r3, #260	; 0x104
 8001cfc:	d112      	bne.n	8001d24 <HAL_SPI_Receive+0x44>
 8001cfe:	68fb      	ldr	r3, [r7, #12]
 8001d00:	689b      	ldr	r3, [r3, #8]
 8001d02:	2b00      	cmp	r3, #0
 8001d04:	d10e      	bne.n	8001d24 <HAL_SPI_Receive+0x44>
  {
    hspi->State = HAL_SPI_STATE_BUSY_RX;
 8001d06:	68fb      	ldr	r3, [r7, #12]
 8001d08:	2204      	movs	r2, #4
 8001d0a:	f883 2051 	strb.w	r2, [r3, #81]	; 0x51
    /* Call transmit-receive function to send Dummy data on Tx line and generate clock on CLK line */
